{
  "contracts/HederaLabDex.sol": {
    "HederaLabDex": {
      "abi": [
        {
          "inputs": [],
          "stateMutability": "nonpayable",
          "type": "constructor"
        },
        {
          "anonymous": false,
          "inputs": [
            {
              "indexed": false,
              "internalType": "int256",
              "name": "withdrawAmount",
              "type": "int256"
            }
          ],
          "name": "Deposit",
          "type": "event"
        },
        {
          "anonymous": false,
          "inputs": [
            {
              "indexed": false,
              "internalType": "int256",
              "name": "responseCodeA",
              "type": "int256"
            },
            {
              "indexed": false,
              "internalType": "int256",
              "name": "responseCodeB",
              "type": "int256"
            }
          ],
          "name": "InitializationAssociatation",
          "type": "event"
        },
        {
          "anonymous": false,
          "inputs": [
            {
              "indexed": false,
              "internalType": "int256",
              "name": "responseCodeA",
              "type": "int256"
            },
            {
              "indexed": false,
              "internalType": "int256",
              "name": "responseCodeB",
              "type": "int256"
            }
          ],
          "name": "InitializationLiquidityAdd",
          "type": "event"
        },
        {
          "anonymous": false,
          "inputs": [
            {
              "indexed": true,
              "internalType": "address",
              "name": "account",
              "type": "address"
            },
            {
              "indexed": false,
              "internalType": "int256",
              "name": "walletTokenA",
              "type": "int256"
            },
            {
              "indexed": false,
              "internalType": "int256",
              "name": "walletTokenB",
              "type": "int256"
            }
          ],
          "name": "Signup",
          "type": "event"
        },
        {
          "anonymous": false,
          "inputs": [
            {
              "indexed": false,
              "internalType": "int256",
              "name": "depositAmount",
              "type": "int256"
            }
          ],
          "name": "Withdrawal",
          "type": "event"
        },
        {
          "inputs": [
            {
              "internalType": "string",
              "name": "token",
              "type": "string"
            },
            {
              "internalType": "int256",
              "name": "amount",
              "type": "int256"
            }
          ],
          "name": "deposit",
          "outputs": [],
          "stateMutability": "nonpayable",
          "type": "function"
        },
        {
          "inputs": [],
          "name": "getCurrentState",
          "outputs": [
            {
              "internalType": "int256",
              "name": "_quantityA",
              "type": "int256"
            },
            {
              "internalType": "int256",
              "name": "_quantityB",
              "type": "int256"
            },
            {
              "internalType": "int256",
              "name": "_priceA",
              "type": "int256"
            },
            {
              "internalType": "int256",
              "name": "_priceB",
              "type": "int256"
            },
            {
              "internalType": "int256",
              "name": "_k",
              "type": "int256"
            },
            {
              "internalType": "int256",
              "name": "_x",
              "type": "int256"
            },
            {
              "internalType": "int256",
              "name": "_y",
              "type": "int256"
            }
          ],
          "stateMutability": "view",
          "type": "function"
        },
        {
          "inputs": [
            {
              "internalType": "string",
              "name": "value",
              "type": "string"
            }
          ],
          "name": "getFormulaVariableValue",
          "outputs": [
            {
              "internalType": "int256",
              "name": "",
              "type": "int256"
            }
          ],
          "stateMutability": "view",
          "type": "function"
        },
        {
          "inputs": [
            {
              "internalType": "string",
              "name": "token",
              "type": "string"
            },
            {
              "internalType": "string",
              "name": "direction",
              "type": "string"
            },
            {
              "internalType": "int256",
              "name": "amount",
              "type": "int256"
            }
          ],
          "name": "getPostSwapDetails",
          "outputs": [
            {
              "internalType": "int256",
              "name": "newQuantityA",
              "type": "int256"
            },
            {
              "internalType": "int256",
              "name": "newQuantityB",
              "type": "int256"
            },
            {
              "internalType": "int256",
              "name": "newPriceA",
              "type": "int256"
            },
            {
              "internalType": "int256",
              "name": "newPriceB",
              "type": "int256"
            },
            {
              "internalType": "int256",
              "name": "oppositeAmountRequired",
              "type": "int256"
            }
          ],
          "stateMutability": "view",
          "type": "function"
        },
        {
          "inputs": [
            {
              "internalType": "string",
              "name": "token",
              "type": "string"
            },
            {
              "internalType": "string",
              "name": "detail",
              "type": "string"
            }
          ],
          "name": "getTokenDetail",
          "outputs": [
            {
              "internalType": "int256",
              "name": "",
              "type": "int256"
            }
          ],
          "stateMutability": "view",
          "type": "function"
        },
        {
          "inputs": [],
          "name": "getWalletBalanceA",
          "outputs": [
            {
              "internalType": "int256",
              "name": "",
              "type": "int256"
            }
          ],
          "stateMutability": "view",
          "type": "function"
        },
        {
          "inputs": [],
          "name": "getWalletBalanceB",
          "outputs": [
            {
              "internalType": "int256",
              "name": "",
              "type": "int256"
            }
          ],
          "stateMutability": "view",
          "type": "function"
        },
        {
          "inputs": [],
          "name": "greetings",
          "outputs": [
            {
              "internalType": "string",
              "name": "",
              "type": "string"
            }
          ],
          "stateMutability": "pure",
          "type": "function"
        },
        {
          "inputs": [],
          "name": "signup",
          "outputs": [],
          "stateMutability": "nonpayable",
          "type": "function"
        },
        {
          "inputs": [
            {
              "internalType": "address",
              "name": "sender",
              "type": "address"
            },
            {
              "internalType": "address",
              "name": "tokenAddress",
              "type": "address"
            }
          ],
          "name": "tokenAssociate",
          "outputs": [
            {
              "internalType": "int256",
              "name": "",
              "type": "int256"
            }
          ],
          "stateMutability": "nonpayable",
          "type": "function"
        },
        {
          "inputs": [
            {
              "internalType": "address",
              "name": "sender",
              "type": "address"
            },
            {
              "internalType": "address",
              "name": "tokenAddress",
              "type": "address"
            }
          ],
          "name": "tokenDissociate",
          "outputs": [
            {
              "internalType": "int256",
              "name": "",
              "type": "int256"
            }
          ],
          "stateMutability": "nonpayable",
          "type": "function"
        },
        {
          "inputs": [
            {
              "internalType": "address",
              "name": "tokenId",
              "type": "address"
            },
            {
              "internalType": "address",
              "name": "fromAccountId",
              "type": "address"
            },
            {
              "internalType": "address",
              "name": "toAccountId",
              "type": "address"
            },
            {
              "internalType": "int64",
              "name": "tokenAmount",
              "type": "int64"
            }
          ],
          "name": "tokenTransfer",
          "outputs": [
            {
              "internalType": "int256",
              "name": "",
              "type": "int256"
            }
          ],
          "stateMutability": "nonpayable",
          "type": "function"
        },
        {
          "inputs": [
            {
              "internalType": "string",
              "name": "token",
              "type": "string"
            },
            {
              "internalType": "int256",
              "name": "amount",
              "type": "int256"
            }
          ],
          "name": "withdrawal",
          "outputs": [],
          "stateMutability": "nonpayable",
          "type": "function"
        }
      ],
      "evm": {
        "bytecode": {
          "linkReferences": {},
          "object": "60806040523480156200001157600080fd5b506103e86003819055506101f4600481905550633b9aca0060058190555063773594006006819055506003546005546200004c9190620000b7565b600881905550600454600654620000649190620000b7565b600981905550600954600854146200007b57600080fd5b6004546006546200008d9190620000b7565b6003546005546200009f9190620000b7565b620000ab9190620000b7565b60078190555062000217565b6000620000c482620001de565b9150620000d183620001de565b9250827f7fffffffffffffffffffffffffffffffffffffffffffffffffffffffffffffff0482116000841360008413161615620001135762000112620001e8565b5b817f80000000000000000000000000000000000000000000000000000000000000000583126000841260008413161615620001535762000152620001e8565b5b827f80000000000000000000000000000000000000000000000000000000000000000582126000841360008412161615620001935762000192620001e8565b5b827f7fffffffffffffffffffffffffffffffffffffffffffffffffffffffffffffff0582126000841260008412161615620001d357620001d2620001e8565b5b828202905092915050565b6000819050919050565b7f4e487b7100000000000000000000000000000000000000000000000000000000600052601160045260246000fd5b61269180620002276000396000f3fe608060405234801561001057600080fd5b50600436106100cf5760003560e01c806356d0b3781161008c578063acb34ce811610066578063acb34ce814610244578063b7bc0f7314610262578063cb04040a1461026c578063d898fe321461029c576100cf565b806356d0b378146101da5780637f6314d0146101f657806387b3d11314610226576100cf565b806312ca6ef3146100d45780631ceb689d1461010457806326c9274d14610138578063378aa701146101565780633a04033c1461017a5780634753b51b146101aa575b600080fd5b6100ee60048036038101906100e99190611cf4565b6102b8565b6040516100fb9190611f64565b60405180910390f35b61011e60048036038101906101199190611d60565b61046a565b60405161012f959493929190611fa8565b60405180910390f35b61014061076b565b60405161014d9190611f64565b60405180910390f35b61015e61080a565b6040516101719796959493929190611ffb565b60405180910390f35b610194600480360381019061018f9190611bd3565b610841565b6040516101a19190611f64565b60405180910390f35b6101c460048036038101906101bf9190611b97565b610995565b6040516101d19190611f64565b60405180910390f35b6101f460048036038101906101ef9190611ca0565b6109f4565b005b610210600480360381019061020b9190611b97565b610df6565b60405161021d9190611f64565b60405180910390f35b61022e610e55565b60405161023b9190611f64565b60405180910390f35b61024c610ef4565b604051610259919061206a565b60405180910390f35b61026a610f31565b005b61028660048036038101906102819190611c5f565b61116a565b6040516102939190611f64565b60405180910390f35b6102b660048036038101906102b19190611ca0565b61130a565b005b60006040518060400160405280600581526020017f7072696365000000000000000000000000000000000000000000000000000000815250805190602001208280519060200120148061034d57506040518060400160405280600881526020017f7175616e74697479000000000000000000000000000000000000000000000000815250805190602001208280519060200120145b61035657600080fd5b61035f836116ee565b6040518060400160405280600681526020017f746f6b656e4100000000000000000000000000000000000000000000000000008152508051906020012083805190602001201415610409576040518060400160405280600581526020017f707269636500000000000000000000000000000000000000000000000000000081525080519060200120828051906020012014156103ff576005549050610464565b6003549050610464565b6040518060400160405280600581526020017f7072696365000000000000000000000000000000000000000000000000000000815250805190602001208280519060200120141561045e576006549050610464565b60045490505b92915050565b60008060008060006040518060400160405280600781526020017f6465706f73697400000000000000000000000000000000000000000000000000815250805190602001208780519060200120148061050557506040518060400160405280600a81526020017f7769746864726177616c00000000000000000000000000000000000000000000815250805190602001208780519060200120145b61050e57600080fd5b610517886116ee565b600086121561052557600080fd5b6040518060400160405280600781526020017f6465706f73697400000000000000000000000000000000000000000000000000815250805190602001208780519060200120141561065a576040518060400160405280600681526020017f746f6b656e410000000000000000000000000000000000000000000000000000815250805190602001208880519060200120141561060a57856003546105c99190612174565b9450600654600554866105dc9190612272565b6105e69190612272565b6007546105f39190612208565b9350836004546106039190612389565b9050610655565b856004546106189190612174565b93506005546006548561062b9190612272565b6106359190612272565b6007546106429190612208565b9450846003546106529190612389565b90505b610740565b6040518060400160405280600681526020017f746f6b656e41000000000000000000000000000000000000000000000000000081525080519060200120888051906020012014156106f457856003546106b39190612389565b9450600654600554866106c69190612272565b6106d09190612272565b6007546106dd9190612208565b9350600454846106ed9190612389565b905061073f565b856004546107029190612389565b9350600554600654856107159190612272565b61071f9190612272565b60075461072c9190612208565b94506003548561073c9190612389565b90505b5b8460085461074e9190612208565b92508360095461075e9190612208565b9150939792965093509350565b60008060003373ffffffffffffffffffffffffffffffffffffffff1673ffffffffffffffffffffffffffffffffffffffff16815260200190815260200160002060009054906101000a900460ff166107c257600080fd5b600160003373ffffffffffffffffffffffffffffffffffffffff1673ffffffffffffffffffffffffffffffffffffffff16815260200190815260200160002060010154905090565b6000806000806000806000600354600454600554600654600754600854600954965096509650965096509650965090919293949596565b6000806108508686868661178d565b9050601660030b8114610898576040517f08c379a000000000000000000000000000000000000000000000000000000000815260040161088f9061208c565b60405180910390fd5b6000808573ffffffffffffffffffffffffffffffffffffffff1673ffffffffffffffffffffffffffffffffffffffff16815260200190815260200160002060009054906101000a900460ff1615610989576000600160008673ffffffffffffffffffffffffffffffffffffffff1673ffffffffffffffffffffffffffffffffffffffff16815260200190815260200160002090508360070b8160020160008973ffffffffffffffffffffffffffffffffffffffff1673ffffffffffffffffffffffffffffffffffffffff16815260200190815260200160002060008282546109809190612174565b92505081905550505b80915050949350505050565b6000806109a284846118ab565b9050601660030b81146109ea576040517f08c379a00000000000000000000000000000000000000000000000000000000081526004016109e1906120cc565b60405180910390fd5b8091505092915050565b6000803373ffffffffffffffffffffffffffffffffffffffff1673ffffffffffffffffffffffffffffffffffffffff16815260200190815260200160002060009054906101000a900460ff16610a4957600080fd5b610a52826116ee565b6040518060400160405280600681526020017f746f6b656e4100000000000000000000000000000000000000000000000000008152508051906020012082805190602001201415610ab157806003541215610aac57600080fd5b610ac1565b806004541215610ac057600080fd5b5b6000806000806000610b09876040518060400160405280600a81526020017f7769746864726177616c000000000000000000000000000000000000000000008152508861046a565b9450945094509450945060008513610b2057600080fd5b60008413610b2d57600080fd5b60008313610b3a57600080fd5b60008213610b4757600080fd5b6040518060400160405280600681526020017f746f6b656e4100000000000000000000000000000000000000000000000000008152508051906020012087805190602001201415610c985780600160003373ffffffffffffffffffffffffffffffffffffffff1673ffffffffffffffffffffffffffffffffffffffff168152602001908152602001600020600101541215610be157600080fd5b80600160003373ffffffffffffffffffffffffffffffffffffffff1673ffffffffffffffffffffffffffffffffffffffff1681526020019081526020016000206001016000828254610c339190612389565b9250508190555085600160003373ffffffffffffffffffffffffffffffffffffffff1673ffffffffffffffffffffffffffffffffffffffff1681526020019081526020016000206000016000828254610c8c9190612174565b92505081905550610d9a565b80600160003373ffffffffffffffffffffffffffffffffffffffff1673ffffffffffffffffffffffffffffffffffffffff168152602001908152602001600020600001541215610ce757600080fd5b80600160003373ffffffffffffffffffffffffffffffffffffffff1673ffffffffffffffffffffffffffffffffffffffff1681526020019081526020016000206000016000828254610d399190612389565b9250508190555085600160003373ffffffffffffffffffffffffffffffffffffffff1673ffffffffffffffffffffffffffffffffffffffff1681526020019081526020016000206001016000828254610d929190612174565b925050819055505b846003819055508360048190555082600581905550816006819055507f09f6d6c156080917dd4eb3faa52c09b5ef538b97a7406838fb175391b9e8138381604051610de59190611f64565b60405180910390a150505050505050565b600080610e0384846119c3565b9050601660030b8114610e4b576040517f08c379a0000000000000000000000000000000000000000000000000000000008152600401610e42906120ac565b60405180910390fd5b8091505092915050565b60008060003373ffffffffffffffffffffffffffffffffffffffff1673ffffffffffffffffffffffffffffffffffffffff16815260200190815260200160002060009054906101000a900460ff16610eac57600080fd5b600160003373ffffffffffffffffffffffffffffffffffffffff1673ffffffffffffffffffffffffffffffffffffffff16815260200190815260200160002060000154905090565b60606040518060400160405280600381526020017f4f53520000000000000000000000000000000000000000000000000000000000815250905090565b6000803373ffffffffffffffffffffffffffffffffffffffff1673ffffffffffffffffffffffffffffffffffffffff16815260200190815260200160002060009054906101000a900460ff1615610f8757600080fd5b6103e8600160003373ffffffffffffffffffffffffffffffffffffffff1673ffffffffffffffffffffffffffffffffffffffff1681526020019081526020016000206000016000828254610fdb9190612174565b925050819055506103e8600160003373ffffffffffffffffffffffffffffffffffffffff1673ffffffffffffffffffffffffffffffffffffffff16815260200190815260200160002060010160008282546110369190612174565b9250508190555060016000803373ffffffffffffffffffffffffffffffffffffffff1673ffffffffffffffffffffffffffffffffffffffff16815260200190815260200160002060006101000a81548160ff0219169083151502179055503373ffffffffffffffffffffffffffffffffffffffff167f500201dd509e994c0e890b017f78b50955f36d83d2acbb63c9e747547b799cac600160003373ffffffffffffffffffffffffffffffffffffffff1673ffffffffffffffffffffffffffffffffffffffff16815260200190815260200160002060000154600160003373ffffffffffffffffffffffffffffffffffffffff1673ffffffffffffffffffffffffffffffffffffffff16815260200190815260200160002060010154604051611160929190611f7f565b60405180910390a2565b60006040518060400160405280600181526020017f780000000000000000000000000000000000000000000000000000000000000081525080519060200120828051906020012014806111ff57506040518060400160405280600181526020017f7900000000000000000000000000000000000000000000000000000000000000815250805190602001208280519060200120145b8061124c57506040518060400160405280600181526020017f6b00000000000000000000000000000000000000000000000000000000000000815250805190602001208280519060200120145b61125557600080fd5b6040518060400160405280600181526020017f780000000000000000000000000000000000000000000000000000000000000081525080519060200120828051906020012014156112aa576008549050611305565b6040518060400160405280600181526020017f790000000000000000000000000000000000000000000000000000000000000081525080519060200120828051906020012014156112ff576009549050611305565b60075490505b919050565b6000803373ffffffffffffffffffffffffffffffffffffffff1673ffffffffffffffffffffffffffffffffffffffff16815260200190815260200160002060009054906101000a900460ff1661135f57600080fd5b611368826116ee565b6040518060400160405280600681526020017f746f6b656e41000000000000000000000000000000000000000000000000000081525080519060200120828051906020012014156114075780600160003373ffffffffffffffffffffffffffffffffffffffff1673ffffffffffffffffffffffffffffffffffffffff16815260200190815260200160002060000154121561140257600080fd5b611457565b80600160003373ffffffffffffffffffffffffffffffffffffffff1673ffffffffffffffffffffffffffffffffffffffff16815260200190815260200160002060010154121561145657600080fd5b5b600080600080600061149f876040518060400160405280600781526020017f6465706f736974000000000000000000000000000000000000000000000000008152508861046a565b94509450945094509450600085136114b657600080fd5b600084136114c357600080fd5b600083136114d057600080fd5b600082136114dd57600080fd5b6040518060400160405280600681526020017f746f6b656e41000000000000000000000000000000000000000000000000000081525080519060200120878051906020012014156115df5785600160003373ffffffffffffffffffffffffffffffffffffffff1673ffffffffffffffffffffffffffffffffffffffff168152602001908152602001600020600001600082825461157a9190612389565b9250508190555080600160003373ffffffffffffffffffffffffffffffffffffffff1673ffffffffffffffffffffffffffffffffffffffff16815260200190815260200160002060010160008282546115d39190612174565b92505081905550611692565b85600160003373ffffffffffffffffffffffffffffffffffffffff1673ffffffffffffffffffffffffffffffffffffffff16815260200190815260200160002060010160008282546116319190612389565b9250508190555080600160003373ffffffffffffffffffffffffffffffffffffffff1673ffffffffffffffffffffffffffffffffffffffff168152602001908152602001600020600001600082825461168a9190612174565b925050819055505b846003819055508360048190555082600581905550816006819055507fbc6e679f8b1549497ecf3e87d44b1b69461a370197d72d0e0b663ea343108f43816040516116dd9190611f64565b60405180910390a150505050505050565b6040518060400160405280600681526020017f746f6b656e410000000000000000000000000000000000000000000000000000815250805190602001208180519060200120148061178157506040518060400160405280600681526020017f746f6b656e420000000000000000000000000000000000000000000000000000815250805190602001208180519060200120145b61178a57600080fd5b50565b600080600061016773ffffffffffffffffffffffffffffffffffffffff1663eca3691760e01b888888886040516024016117ca9493929190611f1f565b604051602081830303815290604052907bffffffffffffffffffffffffffffffffffffffffffffffffffffffff19166020820180517bffffffffffffffffffffffffffffffffffffffffffffffffffffffff83818316178352505050506040516118349190611edf565b6000604051808303816000865af19150503d8060008114611871576040519150601f19603f3d011682016040523d82523d6000602084013e611876565b606091505b50915091508161188757601561189c565b8080602001905181019061189b9190611c36565b5b60030b92505050949350505050565b600080600061016773ffffffffffffffffffffffffffffffffffffffff1663099794e860e01b86866040516024016118e4929190611ef6565b604051602081830303815290604052907bffffffffffffffffffffffffffffffffffffffffffffffffffffffff19166020820180517bffffffffffffffffffffffffffffffffffffffffffffffffffffffff838183161783525050505060405161194e9190611edf565b6000604051808303816000865af19150503d806000811461198b576040519150601f19603f3d011682016040523d82523d6000602084013e611990565b606091505b5091509150816119a15760156119b6565b808060200190518101906119b59190611c36565b5b60030b9250505092915050565b600080600061016773ffffffffffffffffffffffffffffffffffffffff166349146bde60e01b86866040516024016119fc929190611ef6565b604051602081830303815290604052907bffffffffffffffffffffffffffffffffffffffffffffffffffffffff19166020820180517bffffffffffffffffffffffffffffffffffffffffffffffffffffffff8381831617835250505050604051611a669190611edf565b6000604051808303816000865af19150503d8060008114611aa3576040519150601f19603f3d011682016040523d82523d6000602084013e611aa8565b606091505b509150915081611ab9576015611ace565b80806020019051810190611acd9190611c36565b5b60030b9250505092915050565b6000611aee611ae984612111565b6120ec565b905082815260208101848484011115611b0657600080fd5b611b11848285612473565b509392505050565b600081359050611b28816125ff565b92915050565b600081359050611b3d81612616565b92915050565b600081519050611b528161262d565b92915050565b600081359050611b6781612644565b92915050565b600082601f830112611b7e57600080fd5b8135611b8e848260208601611adb565b91505092915050565b60008060408385031215611baa57600080fd5b6000611bb885828601611b19565b9250506020611bc985828601611b19565b9150509250929050565b60008060008060808587031215611be957600080fd5b6000611bf787828801611b19565b9450506020611c0887828801611b19565b9350506040611c1987828801611b19565b9250506060611c2a87828801611b58565b91505092959194509250565b600060208284031215611c4857600080fd5b6000611c5684828501611b43565b91505092915050565b600060208284031215611c7157600080fd5b600082013567ffffffffffffffff811115611c8b57600080fd5b611c9784828501611b6d565b91505092915050565b60008060408385031215611cb357600080fd5b600083013567ffffffffffffffff811115611ccd57600080fd5b611cd985828601611b6d565b9250506020611cea85828601611b2e565b9150509250929050565b60008060408385031215611d0757600080fd5b600083013567ffffffffffffffff811115611d2157600080fd5b611d2d85828601611b6d565b925050602083013567ffffffffffffffff811115611d4a57600080fd5b611d5685828601611b6d565b9150509250929050565b600080600060608486031215611d7557600080fd5b600084013567ffffffffffffffff811115611d8f57600080fd5b611d9b86828701611b6d565b935050602084013567ffffffffffffffff811115611db857600080fd5b611dc486828701611b6d565b9250506040611dd586828701611b2e565b9150509250925092565b611de88161241d565b82525050565b6000611df982612142565b611e038185612158565b9350611e13818560208601612482565b80840191505092915050565b611e288161242f565b82525050565b611e3781612446565b82525050565b6000611e488261214d565b611e528185612163565b9350611e62818560208601612482565b611e6b81612573565b840191505092915050565b6000611e83600f83612163565b9150611e8e82612584565b602082019050919050565b6000611ea6601083612163565b9150611eb1826125ad565b602082019050919050565b6000611ec9601183612163565b9150611ed4826125d6565b602082019050919050565b6000611eeb8284611dee565b915081905092915050565b6000604082019050611f0b6000830185611ddf565b611f186020830184611ddf565b9392505050565b6000608082019050611f346000830187611ddf565b611f416020830186611ddf565b611f4e6040830185611ddf565b611f5b6060830184611e2e565b95945050505050565b6000602082019050611f796000830184611e1f565b92915050565b6000604082019050611f946000830185611e1f565b611fa16020830184611e1f565b9392505050565b600060a082019050611fbd6000830188611e1f565b611fca6020830187611e1f565b611fd76040830186611e1f565b611fe46060830185611e1f565b611ff16080830184611e1f565b9695505050505050565b600060e082019050612010600083018a611e1f565b61201d6020830189611e1f565b61202a6040830188611e1f565b6120376060830187611e1f565b6120446080830186611e1f565b61205160a0830185611e1f565b61205e60c0830184611e1f565b98975050505050505050565b600060208201905081810360008301526120848184611e3d565b905092915050565b600060208201905081810360008301526120a581611e76565b9050919050565b600060208201905081810360008301526120c581611e99565b9050919050565b600060208201905081810360008301526120e581611ebc565b9050919050565b60006120f6612107565b905061210282826124b5565b919050565b6000604051905090565b600067ffffffffffffffff82111561212c5761212b612544565b5b61213582612573565b9050602081019050919050565b600081519050919050565b600081519050919050565b600081905092915050565b600082825260208201905092915050565b600061217f8261242f565b915061218a8361242f565b9250817f7fffffffffffffffffffffffffffffffffffffffffffffffffffffffffffffff038313600083121516156121c5576121c46124e6565b5b817f80000000000000000000000000000000000000000000000000000000000000000383126000831216156121fd576121fc6124e6565b5b828201905092915050565b60006122138261242f565b915061221e8361242f565b92508261222e5761222d612515565b5b600160000383147f800000000000000000000000000000000000000000000000000000000000000083141615612267576122666124e6565b5b828205905092915050565b600061227d8261242f565b91506122888361242f565b9250827f7fffffffffffffffffffffffffffffffffffffffffffffffffffffffffffffff04821160008413600084131616156122c7576122c66124e6565b5b817f80000000000000000000000000000000000000000000000000000000000000000583126000841260008413161615612304576123036124e6565b5b827f80000000000000000000000000000000000000000000000000000000000000000582126000841360008412161615612341576123406124e6565b5b827f7fffffffffffffffffffffffffffffffffffffffffffffffffffffffffffffff058212600084126000841216161561237e5761237d6124e6565b5b828202905092915050565b60006123948261242f565b915061239f8361242f565b9250827f8000000000000000000000000000000000000000000000000000000000000000018212600084121516156123da576123d96124e6565b5b827f7fffffffffffffffffffffffffffffffffffffffffffffffffffffffffffffff018213600084121615612412576124116124e6565b5b828203905092915050565b600061242882612453565b9050919050565b6000819050919050565b60008160030b9050919050565b60008160070b9050919050565b600073ffffffffffffffffffffffffffffffffffffffff82169050919050565b82818337600083830152505050565b60005b838110156124a0578082015181840152602081019050612485565b838111156124af576000848401525b50505050565b6124be82612573565b810181811067ffffffffffffffff821117156124dd576124dc612544565b5b80604052505050565b7f4e487b7100000000000000000000000000000000000000000000000000000000600052601160045260246000fd5b7f4e487b7100000000000000000000000000000000000000000000000000000000600052601260045260246000fd5b7f4e487b7100000000000000000000000000000000000000000000000000000000600052604160045260246000fd5b6000601f19601f8301169050919050565b7f5472616e73666572206661696c65640000000000000000000000000000000000600082015250565b7f4173736f6369617465206661696c656400000000000000000000000000000000600082015250565b7f446973736f6369617465206661696c6564000000000000000000000000000000600082015250565b6126088161241d565b811461261357600080fd5b50565b61261f8161242f565b811461262a57600080fd5b50565b61263681612439565b811461264157600080fd5b50565b61264d81612446565b811461265857600080fd5b5056fea2646970667358221220dd404b945c1eceae6e7811b46fc7d6f9214d402512ca6092054941ef59725c9764736f6c63430008040033",
          "opcodes": "PUSH1 0x80 PUSH1 0x40 MSTORE CALLVALUE DUP1 ISZERO PUSH3 0x11 JUMPI PUSH1 0x0 DUP1 REVERT JUMPDEST POP PUSH2 0x3E8 PUSH1 0x3 DUP2 SWAP1 SSTORE POP PUSH2 0x1F4 PUSH1 0x4 DUP2 SWAP1 SSTORE POP PUSH4 0x3B9ACA00 PUSH1 0x5 DUP2 SWAP1 SSTORE POP PUSH4 0x77359400 PUSH1 0x6 DUP2 SWAP1 SSTORE POP PUSH1 0x3 SLOAD PUSH1 0x5 SLOAD PUSH3 0x4C SWAP2 SWAP1 PUSH3 0xB7 JUMP JUMPDEST PUSH1 0x8 DUP2 SWAP1 SSTORE POP PUSH1 0x4 SLOAD PUSH1 0x6 SLOAD PUSH3 0x64 SWAP2 SWAP1 PUSH3 0xB7 JUMP JUMPDEST PUSH1 0x9 DUP2 SWAP1 SSTORE POP PUSH1 0x9 SLOAD PUSH1 0x8 SLOAD EQ PUSH3 0x7B JUMPI PUSH1 0x0 DUP1 REVERT JUMPDEST PUSH1 0x4 SLOAD PUSH1 0x6 SLOAD PUSH3 0x8D SWAP2 SWAP1 PUSH3 0xB7 JUMP JUMPDEST PUSH1 0x3 SLOAD PUSH1 0x5 SLOAD PUSH3 0x9F SWAP2 SWAP1 PUSH3 0xB7 JUMP JUMPDEST PUSH3 0xAB SWAP2 SWAP1 PUSH3 0xB7 JUMP JUMPDEST PUSH1 0x7 DUP2 SWAP1 SSTORE POP PUSH3 0x217 JUMP JUMPDEST PUSH1 0x0 PUSH3 0xC4 DUP3 PUSH3 0x1DE JUMP JUMPDEST SWAP2 POP PUSH3 0xD1 DUP4 PUSH3 0x1DE JUMP JUMPDEST SWAP3 POP DUP3 PUSH32 0x7FFFFFFFFFFFFFFFFFFFFFFFFFFFFFFFFFFFFFFFFFFFFFFFFFFFFFFFFFFFFFFF DIV DUP3 GT PUSH1 0x0 DUP5 SGT PUSH1 0x0 DUP5 SGT AND AND ISZERO PUSH3 0x113 JUMPI PUSH3 0x112 PUSH3 0x1E8 JUMP JUMPDEST JUMPDEST DUP2 PUSH32 0x8000000000000000000000000000000000000000000000000000000000000000 SDIV DUP4 SLT PUSH1 0x0 DUP5 SLT PUSH1 0x0 DUP5 SGT AND AND ISZERO PUSH3 0x153 JUMPI PUSH3 0x152 PUSH3 0x1E8 JUMP JUMPDEST JUMPDEST DUP3 PUSH32 0x8000000000000000000000000000000000000000000000000000000000000000 SDIV DUP3 SLT PUSH1 0x0 DUP5 SGT PUSH1 0x0 DUP5 SLT AND AND ISZERO PUSH3 0x193 JUMPI PUSH3 0x192 PUSH3 0x1E8 JUMP JUMPDEST JUMPDEST DUP3 PUSH32 0x7FFFFFFFFFFFFFFFFFFFFFFFFFFFFFFFFFFFFFFFFFFFFFFFFFFFFFFFFFFFFFFF SDIV DUP3 SLT PUSH1 0x0 DUP5 SLT PUSH1 0x0 DUP5 SLT AND AND ISZERO PUSH3 0x1D3 JUMPI PUSH3 0x1D2 PUSH3 0x1E8 JUMP JUMPDEST JUMPDEST DUP3 DUP3 MUL SWAP1 POP SWAP3 SWAP2 POP POP JUMP JUMPDEST PUSH1 0x0 DUP2 SWAP1 POP SWAP2 SWAP1 POP JUMP JUMPDEST PUSH32 0x4E487B7100000000000000000000000000000000000000000000000000000000 PUSH1 0x0 MSTORE PUSH1 0x11 PUSH1 0x4 MSTORE PUSH1 0x24 PUSH1 0x0 REVERT JUMPDEST PUSH2 0x2691 DUP1 PUSH3 0x227 PUSH1 0x0 CODECOPY PUSH1 0x0 RETURN INVALID PUSH1 0x80 PUSH1 0x40 MSTORE CALLVALUE DUP1 ISZERO PUSH2 0x10 JUMPI PUSH1 0x0 DUP1 REVERT JUMPDEST POP PUSH1 0x4 CALLDATASIZE LT PUSH2 0xCF JUMPI PUSH1 0x0 CALLDATALOAD PUSH1 0xE0 SHR DUP1 PUSH4 0x56D0B378 GT PUSH2 0x8C JUMPI DUP1 PUSH4 0xACB34CE8 GT PUSH2 0x66 JUMPI DUP1 PUSH4 0xACB34CE8 EQ PUSH2 0x244 JUMPI DUP1 PUSH4 0xB7BC0F73 EQ PUSH2 0x262 JUMPI DUP1 PUSH4 0xCB04040A EQ PUSH2 0x26C JUMPI DUP1 PUSH4 0xD898FE32 EQ PUSH2 0x29C JUMPI PUSH2 0xCF JUMP JUMPDEST DUP1 PUSH4 0x56D0B378 EQ PUSH2 0x1DA JUMPI DUP1 PUSH4 0x7F6314D0 EQ PUSH2 0x1F6 JUMPI DUP1 PUSH4 0x87B3D113 EQ PUSH2 0x226 JUMPI PUSH2 0xCF JUMP JUMPDEST DUP1 PUSH4 0x12CA6EF3 EQ PUSH2 0xD4 JUMPI DUP1 PUSH4 0x1CEB689D EQ PUSH2 0x104 JUMPI DUP1 PUSH4 0x26C9274D EQ PUSH2 0x138 JUMPI DUP1 PUSH4 0x378AA701 EQ PUSH2 0x156 JUMPI DUP1 PUSH4 0x3A04033C EQ PUSH2 0x17A JUMPI DUP1 PUSH4 0x4753B51B EQ PUSH2 0x1AA JUMPI JUMPDEST PUSH1 0x0 DUP1 REVERT JUMPDEST PUSH2 0xEE PUSH1 0x4 DUP1 CALLDATASIZE SUB DUP2 ADD SWAP1 PUSH2 0xE9 SWAP2 SWAP1 PUSH2 0x1CF4 JUMP JUMPDEST PUSH2 0x2B8 JUMP JUMPDEST PUSH1 0x40 MLOAD PUSH2 0xFB SWAP2 SWAP1 PUSH2 0x1F64 JUMP JUMPDEST PUSH1 0x40 MLOAD DUP1 SWAP2 SUB SWAP1 RETURN JUMPDEST PUSH2 0x11E PUSH1 0x4 DUP1 CALLDATASIZE SUB DUP2 ADD SWAP1 PUSH2 0x119 SWAP2 SWAP1 PUSH2 0x1D60 JUMP JUMPDEST PUSH2 0x46A JUMP JUMPDEST PUSH1 0x40 MLOAD PUSH2 0x12F SWAP6 SWAP5 SWAP4 SWAP3 SWAP2 SWAP1 PUSH2 0x1FA8 JUMP JUMPDEST PUSH1 0x40 MLOAD DUP1 SWAP2 SUB SWAP1 RETURN JUMPDEST PUSH2 0x140 PUSH2 0x76B JUMP JUMPDEST PUSH1 0x40 MLOAD PUSH2 0x14D SWAP2 SWAP1 PUSH2 0x1F64 JUMP JUMPDEST PUSH1 0x40 MLOAD DUP1 SWAP2 SUB SWAP1 RETURN JUMPDEST PUSH2 0x15E PUSH2 0x80A JUMP JUMPDEST PUSH1 0x40 MLOAD PUSH2 0x171 SWAP8 SWAP7 SWAP6 SWAP5 SWAP4 SWAP3 SWAP2 SWAP1 PUSH2 0x1FFB JUMP JUMPDEST PUSH1 0x40 MLOAD DUP1 SWAP2 SUB SWAP1 RETURN JUMPDEST PUSH2 0x194 PUSH1 0x4 DUP1 CALLDATASIZE SUB DUP2 ADD SWAP1 PUSH2 0x18F SWAP2 SWAP1 PUSH2 0x1BD3 JUMP JUMPDEST PUSH2 0x841 JUMP JUMPDEST PUSH1 0x40 MLOAD PUSH2 0x1A1 SWAP2 SWAP1 PUSH2 0x1F64 JUMP JUMPDEST PUSH1 0x40 MLOAD DUP1 SWAP2 SUB SWAP1 RETURN JUMPDEST PUSH2 0x1C4 PUSH1 0x4 DUP1 CALLDATASIZE SUB DUP2 ADD SWAP1 PUSH2 0x1BF SWAP2 SWAP1 PUSH2 0x1B97 JUMP JUMPDEST PUSH2 0x995 JUMP JUMPDEST PUSH1 0x40 MLOAD PUSH2 0x1D1 SWAP2 SWAP1 PUSH2 0x1F64 JUMP JUMPDEST PUSH1 0x40 MLOAD DUP1 SWAP2 SUB SWAP1 RETURN JUMPDEST PUSH2 0x1F4 PUSH1 0x4 DUP1 CALLDATASIZE SUB DUP2 ADD SWAP1 PUSH2 0x1EF SWAP2 SWAP1 PUSH2 0x1CA0 JUMP JUMPDEST PUSH2 0x9F4 JUMP JUMPDEST STOP JUMPDEST PUSH2 0x210 PUSH1 0x4 DUP1 CALLDATASIZE SUB DUP2 ADD SWAP1 PUSH2 0x20B SWAP2 SWAP1 PUSH2 0x1B97 JUMP JUMPDEST PUSH2 0xDF6 JUMP JUMPDEST PUSH1 0x40 MLOAD PUSH2 0x21D SWAP2 SWAP1 PUSH2 0x1F64 JUMP JUMPDEST PUSH1 0x40 MLOAD DUP1 SWAP2 SUB SWAP1 RETURN JUMPDEST PUSH2 0x22E PUSH2 0xE55 JUMP JUMPDEST PUSH1 0x40 MLOAD PUSH2 0x23B SWAP2 SWAP1 PUSH2 0x1F64 JUMP JUMPDEST PUSH1 0x40 MLOAD DUP1 SWAP2 SUB SWAP1 RETURN JUMPDEST PUSH2 0x24C PUSH2 0xEF4 JUMP JUMPDEST PUSH1 0x40 MLOAD PUSH2 0x259 SWAP2 SWAP1 PUSH2 0x206A JUMP JUMPDEST PUSH1 0x40 MLOAD DUP1 SWAP2 SUB SWAP1 RETURN JUMPDEST PUSH2 0x26A PUSH2 0xF31 JUMP JUMPDEST STOP JUMPDEST PUSH2 0x286 PUSH1 0x4 DUP1 CALLDATASIZE SUB DUP2 ADD SWAP1 PUSH2 0x281 SWAP2 SWAP1 PUSH2 0x1C5F JUMP JUMPDEST PUSH2 0x116A JUMP JUMPDEST PUSH1 0x40 MLOAD PUSH2 0x293 SWAP2 SWAP1 PUSH2 0x1F64 JUMP JUMPDEST PUSH1 0x40 MLOAD DUP1 SWAP2 SUB SWAP1 RETURN JUMPDEST PUSH2 0x2B6 PUSH1 0x4 DUP1 CALLDATASIZE SUB DUP2 ADD SWAP1 PUSH2 0x2B1 SWAP2 SWAP1 PUSH2 0x1CA0 JUMP JUMPDEST PUSH2 0x130A JUMP JUMPDEST STOP JUMPDEST PUSH1 0x0 PUSH1 0x40 MLOAD DUP1 PUSH1 0x40 ADD PUSH1 0x40 MSTORE DUP1 PUSH1 0x5 DUP2 MSTORE PUSH1 0x20 ADD PUSH32 0x7072696365000000000000000000000000000000000000000000000000000000 DUP2 MSTORE POP DUP1 MLOAD SWAP1 PUSH1 0x20 ADD KECCAK256 DUP3 DUP1 MLOAD SWAP1 PUSH1 0x20 ADD KECCAK256 EQ DUP1 PUSH2 0x34D JUMPI POP PUSH1 0x40 MLOAD DUP1 PUSH1 0x40 ADD PUSH1 0x40 MSTORE DUP1 PUSH1 0x8 DUP2 MSTORE PUSH1 0x20 ADD PUSH32 0x7175616E74697479000000000000000000000000000000000000000000000000 DUP2 MSTORE POP DUP1 MLOAD SWAP1 PUSH1 0x20 ADD KECCAK256 DUP3 DUP1 MLOAD SWAP1 PUSH1 0x20 ADD KECCAK256 EQ JUMPDEST PUSH2 0x356 JUMPI PUSH1 0x0 DUP1 REVERT JUMPDEST PUSH2 0x35F DUP4 PUSH2 0x16EE JUMP JUMPDEST PUSH1 0x40 MLOAD DUP1 PUSH1 0x40 ADD PUSH1 0x40 MSTORE DUP1 PUSH1 0x6 DUP2 MSTORE PUSH1 0x20 ADD PUSH32 0x746F6B656E410000000000000000000000000000000000000000000000000000 DUP2 MSTORE POP DUP1 MLOAD SWAP1 PUSH1 0x20 ADD KECCAK256 DUP4 DUP1 MLOAD SWAP1 PUSH1 0x20 ADD KECCAK256 EQ ISZERO PUSH2 0x409 JUMPI PUSH1 0x40 MLOAD DUP1 PUSH1 0x40 ADD PUSH1 0x40 MSTORE DUP1 PUSH1 0x5 DUP2 MSTORE PUSH1 0x20 ADD PUSH32 0x7072696365000000000000000000000000000000000000000000000000000000 DUP2 MSTORE POP DUP1 MLOAD SWAP1 PUSH1 0x20 ADD KECCAK256 DUP3 DUP1 MLOAD SWAP1 PUSH1 0x20 ADD KECCAK256 EQ ISZERO PUSH2 0x3FF JUMPI PUSH1 0x5 SLOAD SWAP1 POP PUSH2 0x464 JUMP JUMPDEST PUSH1 0x3 SLOAD SWAP1 POP PUSH2 0x464 JUMP JUMPDEST PUSH1 0x40 MLOAD DUP1 PUSH1 0x40 ADD PUSH1 0x40 MSTORE DUP1 PUSH1 0x5 DUP2 MSTORE PUSH1 0x20 ADD PUSH32 0x7072696365000000000000000000000000000000000000000000000000000000 DUP2 MSTORE POP DUP1 MLOAD SWAP1 PUSH1 0x20 ADD KECCAK256 DUP3 DUP1 MLOAD SWAP1 PUSH1 0x20 ADD KECCAK256 EQ ISZERO PUSH2 0x45E JUMPI PUSH1 0x6 SLOAD SWAP1 POP PUSH2 0x464 JUMP JUMPDEST PUSH1 0x4 SLOAD SWAP1 POP JUMPDEST SWAP3 SWAP2 POP POP JUMP JUMPDEST PUSH1 0x0 DUP1 PUSH1 0x0 DUP1 PUSH1 0x0 PUSH1 0x40 MLOAD DUP1 PUSH1 0x40 ADD PUSH1 0x40 MSTORE DUP1 PUSH1 0x7 DUP2 MSTORE PUSH1 0x20 ADD PUSH32 0x6465706F73697400000000000000000000000000000000000000000000000000 DUP2 MSTORE POP DUP1 MLOAD SWAP1 PUSH1 0x20 ADD KECCAK256 DUP8 DUP1 MLOAD SWAP1 PUSH1 0x20 ADD KECCAK256 EQ DUP1 PUSH2 0x505 JUMPI POP PUSH1 0x40 MLOAD DUP1 PUSH1 0x40 ADD PUSH1 0x40 MSTORE DUP1 PUSH1 0xA DUP2 MSTORE PUSH1 0x20 ADD PUSH32 0x7769746864726177616C00000000000000000000000000000000000000000000 DUP2 MSTORE POP DUP1 MLOAD SWAP1 PUSH1 0x20 ADD KECCAK256 DUP8 DUP1 MLOAD SWAP1 PUSH1 0x20 ADD KECCAK256 EQ JUMPDEST PUSH2 0x50E JUMPI PUSH1 0x0 DUP1 REVERT JUMPDEST PUSH2 0x517 DUP9 PUSH2 0x16EE JUMP JUMPDEST PUSH1 0x0 DUP7 SLT ISZERO PUSH2 0x525 JUMPI PUSH1 0x0 DUP1 REVERT JUMPDEST PUSH1 0x40 MLOAD DUP1 PUSH1 0x40 ADD PUSH1 0x40 MSTORE DUP1 PUSH1 0x7 DUP2 MSTORE PUSH1 0x20 ADD PUSH32 0x6465706F73697400000000000000000000000000000000000000000000000000 DUP2 MSTORE POP DUP1 MLOAD SWAP1 PUSH1 0x20 ADD KECCAK256 DUP8 DUP1 MLOAD SWAP1 PUSH1 0x20 ADD KECCAK256 EQ ISZERO PUSH2 0x65A JUMPI PUSH1 0x40 MLOAD DUP1 PUSH1 0x40 ADD PUSH1 0x40 MSTORE DUP1 PUSH1 0x6 DUP2 MSTORE PUSH1 0x20 ADD PUSH32 0x746F6B656E410000000000000000000000000000000000000000000000000000 DUP2 MSTORE POP DUP1 MLOAD SWAP1 PUSH1 0x20 ADD KECCAK256 DUP9 DUP1 MLOAD SWAP1 PUSH1 0x20 ADD KECCAK256 EQ ISZERO PUSH2 0x60A JUMPI DUP6 PUSH1 0x3 SLOAD PUSH2 0x5C9 SWAP2 SWAP1 PUSH2 0x2174 JUMP JUMPDEST SWAP5 POP PUSH1 0x6 SLOAD PUSH1 0x5 SLOAD DUP7 PUSH2 0x5DC SWAP2 SWAP1 PUSH2 0x2272 JUMP JUMPDEST PUSH2 0x5E6 SWAP2 SWAP1 PUSH2 0x2272 JUMP JUMPDEST PUSH1 0x7 SLOAD PUSH2 0x5F3 SWAP2 SWAP1 PUSH2 0x2208 JUMP JUMPDEST SWAP4 POP DUP4 PUSH1 0x4 SLOAD PUSH2 0x603 SWAP2 SWAP1 PUSH2 0x2389 JUMP JUMPDEST SWAP1 POP PUSH2 0x655 JUMP JUMPDEST DUP6 PUSH1 0x4 SLOAD PUSH2 0x618 SWAP2 SWAP1 PUSH2 0x2174 JUMP JUMPDEST SWAP4 POP PUSH1 0x5 SLOAD PUSH1 0x6 SLOAD DUP6 PUSH2 0x62B SWAP2 SWAP1 PUSH2 0x2272 JUMP JUMPDEST PUSH2 0x635 SWAP2 SWAP1 PUSH2 0x2272 JUMP JUMPDEST PUSH1 0x7 SLOAD PUSH2 0x642 SWAP2 SWAP1 PUSH2 0x2208 JUMP JUMPDEST SWAP5 POP DUP5 PUSH1 0x3 SLOAD PUSH2 0x652 SWAP2 SWAP1 PUSH2 0x2389 JUMP JUMPDEST SWAP1 POP JUMPDEST PUSH2 0x740 JUMP JUMPDEST PUSH1 0x40 MLOAD DUP1 PUSH1 0x40 ADD PUSH1 0x40 MSTORE DUP1 PUSH1 0x6 DUP2 MSTORE PUSH1 0x20 ADD PUSH32 0x746F6B656E410000000000000000000000000000000000000000000000000000 DUP2 MSTORE POP DUP1 MLOAD SWAP1 PUSH1 0x20 ADD KECCAK256 DUP9 DUP1 MLOAD SWAP1 PUSH1 0x20 ADD KECCAK256 EQ ISZERO PUSH2 0x6F4 JUMPI DUP6 PUSH1 0x3 SLOAD PUSH2 0x6B3 SWAP2 SWAP1 PUSH2 0x2389 JUMP JUMPDEST SWAP5 POP PUSH1 0x6 SLOAD PUSH1 0x5 SLOAD DUP7 PUSH2 0x6C6 SWAP2 SWAP1 PUSH2 0x2272 JUMP JUMPDEST PUSH2 0x6D0 SWAP2 SWAP1 PUSH2 0x2272 JUMP JUMPDEST PUSH1 0x7 SLOAD PUSH2 0x6DD SWAP2 SWAP1 PUSH2 0x2208 JUMP JUMPDEST SWAP4 POP PUSH1 0x4 SLOAD DUP5 PUSH2 0x6ED SWAP2 SWAP1 PUSH2 0x2389 JUMP JUMPDEST SWAP1 POP PUSH2 0x73F JUMP JUMPDEST DUP6 PUSH1 0x4 SLOAD PUSH2 0x702 SWAP2 SWAP1 PUSH2 0x2389 JUMP JUMPDEST SWAP4 POP PUSH1 0x5 SLOAD PUSH1 0x6 SLOAD DUP6 PUSH2 0x715 SWAP2 SWAP1 PUSH2 0x2272 JUMP JUMPDEST PUSH2 0x71F SWAP2 SWAP1 PUSH2 0x2272 JUMP JUMPDEST PUSH1 0x7 SLOAD PUSH2 0x72C SWAP2 SWAP1 PUSH2 0x2208 JUMP JUMPDEST SWAP5 POP PUSH1 0x3 SLOAD DUP6 PUSH2 0x73C SWAP2 SWAP1 PUSH2 0x2389 JUMP JUMPDEST SWAP1 POP JUMPDEST JUMPDEST DUP5 PUSH1 0x8 SLOAD PUSH2 0x74E SWAP2 SWAP1 PUSH2 0x2208 JUMP JUMPDEST SWAP3 POP DUP4 PUSH1 0x9 SLOAD PUSH2 0x75E SWAP2 SWAP1 PUSH2 0x2208 JUMP JUMPDEST SWAP2 POP SWAP4 SWAP8 SWAP3 SWAP7 POP SWAP4 POP SWAP4 POP JUMP JUMPDEST PUSH1 0x0 DUP1 PUSH1 0x0 CALLER PUSH20 0xFFFFFFFFFFFFFFFFFFFFFFFFFFFFFFFFFFFFFFFF AND PUSH20 0xFFFFFFFFFFFFFFFFFFFFFFFFFFFFFFFFFFFFFFFF AND DUP2 MSTORE PUSH1 0x20 ADD SWAP1 DUP2 MSTORE PUSH1 0x20 ADD PUSH1 0x0 KECCAK256 PUSH1 0x0 SWAP1 SLOAD SWAP1 PUSH2 0x100 EXP SWAP1 DIV PUSH1 0xFF AND PUSH2 0x7C2 JUMPI PUSH1 0x0 DUP1 REVERT JUMPDEST PUSH1 0x1 PUSH1 0x0 CALLER PUSH20 0xFFFFFFFFFFFFFFFFFFFFFFFFFFFFFFFFFFFFFFFF AND PUSH20 0xFFFFFFFFFFFFFFFFFFFFFFFFFFFFFFFFFFFFFFFF AND DUP2 MSTORE PUSH1 0x20 ADD SWAP1 DUP2 MSTORE PUSH1 0x20 ADD PUSH1 0x0 KECCAK256 PUSH1 0x1 ADD SLOAD SWAP1 POP SWAP1 JUMP JUMPDEST PUSH1 0x0 DUP1 PUSH1 0x0 DUP1 PUSH1 0x0 DUP1 PUSH1 0x0 PUSH1 0x3 SLOAD PUSH1 0x4 SLOAD PUSH1 0x5 SLOAD PUSH1 0x6 SLOAD PUSH1 0x7 SLOAD PUSH1 0x8 SLOAD PUSH1 0x9 SLOAD SWAP7 POP SWAP7 POP SWAP7 POP SWAP7 POP SWAP7 POP SWAP7 POP SWAP7 POP SWAP1 SWAP2 SWAP3 SWAP4 SWAP5 SWAP6 SWAP7 JUMP JUMPDEST PUSH1 0x0 DUP1 PUSH2 0x850 DUP7 DUP7 DUP7 DUP7 PUSH2 0x178D JUMP JUMPDEST SWAP1 POP PUSH1 0x16 PUSH1 0x3 SIGNEXTEND DUP2 EQ PUSH2 0x898 JUMPI PUSH1 0x40 MLOAD PUSH32 0x8C379A000000000000000000000000000000000000000000000000000000000 DUP2 MSTORE PUSH1 0x4 ADD PUSH2 0x88F SWAP1 PUSH2 0x208C JUMP JUMPDEST PUSH1 0x40 MLOAD DUP1 SWAP2 SUB SWAP1 REVERT JUMPDEST PUSH1 0x0 DUP1 DUP6 PUSH20 0xFFFFFFFFFFFFFFFFFFFFFFFFFFFFFFFFFFFFFFFF AND PUSH20 0xFFFFFFFFFFFFFFFFFFFFFFFFFFFFFFFFFFFFFFFF AND DUP2 MSTORE PUSH1 0x20 ADD SWAP1 DUP2 MSTORE PUSH1 0x20 ADD PUSH1 0x0 KECCAK256 PUSH1 0x0 SWAP1 SLOAD SWAP1 PUSH2 0x100 EXP SWAP1 DIV PUSH1 0xFF AND ISZERO PUSH2 0x989 JUMPI PUSH1 0x0 PUSH1 0x1 PUSH1 0x0 DUP7 PUSH20 0xFFFFFFFFFFFFFFFFFFFFFFFFFFFFFFFFFFFFFFFF AND PUSH20 0xFFFFFFFFFFFFFFFFFFFFFFFFFFFFFFFFFFFFFFFF AND DUP2 MSTORE PUSH1 0x20 ADD SWAP1 DUP2 MSTORE PUSH1 0x20 ADD PUSH1 0x0 KECCAK256 SWAP1 POP DUP4 PUSH1 0x7 SIGNEXTEND DUP2 PUSH1 0x2 ADD PUSH1 0x0 DUP10 PUSH20 0xFFFFFFFFFFFFFFFFFFFFFFFFFFFFFFFFFFFFFFFF AND PUSH20 0xFFFFFFFFFFFFFFFFFFFFFFFFFFFFFFFFFFFFFFFF AND DUP2 MSTORE PUSH1 0x20 ADD SWAP1 DUP2 MSTORE PUSH1 0x20 ADD PUSH1 0x0 KECCAK256 PUSH1 0x0 DUP3 DUP3 SLOAD PUSH2 0x980 SWAP2 SWAP1 PUSH2 0x2174 JUMP JUMPDEST SWAP3 POP POP DUP2 SWAP1 SSTORE POP POP JUMPDEST DUP1 SWAP2 POP POP SWAP5 SWAP4 POP POP POP POP JUMP JUMPDEST PUSH1 0x0 DUP1 PUSH2 0x9A2 DUP5 DUP5 PUSH2 0x18AB JUMP JUMPDEST SWAP1 POP PUSH1 0x16 PUSH1 0x3 SIGNEXTEND DUP2 EQ PUSH2 0x9EA JUMPI PUSH1 0x40 MLOAD PUSH32 0x8C379A000000000000000000000000000000000000000000000000000000000 DUP2 MSTORE PUSH1 0x4 ADD PUSH2 0x9E1 SWAP1 PUSH2 0x20CC JUMP JUMPDEST PUSH1 0x40 MLOAD DUP1 SWAP2 SUB SWAP1 REVERT JUMPDEST DUP1 SWAP2 POP POP SWAP3 SWAP2 POP POP JUMP JUMPDEST PUSH1 0x0 DUP1 CALLER PUSH20 0xFFFFFFFFFFFFFFFFFFFFFFFFFFFFFFFFFFFFFFFF AND PUSH20 0xFFFFFFFFFFFFFFFFFFFFFFFFFFFFFFFFFFFFFFFF AND DUP2 MSTORE PUSH1 0x20 ADD SWAP1 DUP2 MSTORE PUSH1 0x20 ADD PUSH1 0x0 KECCAK256 PUSH1 0x0 SWAP1 SLOAD SWAP1 PUSH2 0x100 EXP SWAP1 DIV PUSH1 0xFF AND PUSH2 0xA49 JUMPI PUSH1 0x0 DUP1 REVERT JUMPDEST PUSH2 0xA52 DUP3 PUSH2 0x16EE JUMP JUMPDEST PUSH1 0x40 MLOAD DUP1 PUSH1 0x40 ADD PUSH1 0x40 MSTORE DUP1 PUSH1 0x6 DUP2 MSTORE PUSH1 0x20 ADD PUSH32 0x746F6B656E410000000000000000000000000000000000000000000000000000 DUP2 MSTORE POP DUP1 MLOAD SWAP1 PUSH1 0x20 ADD KECCAK256 DUP3 DUP1 MLOAD SWAP1 PUSH1 0x20 ADD KECCAK256 EQ ISZERO PUSH2 0xAB1 JUMPI DUP1 PUSH1 0x3 SLOAD SLT ISZERO PUSH2 0xAAC JUMPI PUSH1 0x0 DUP1 REVERT JUMPDEST PUSH2 0xAC1 JUMP JUMPDEST DUP1 PUSH1 0x4 SLOAD SLT ISZERO PUSH2 0xAC0 JUMPI PUSH1 0x0 DUP1 REVERT JUMPDEST JUMPDEST PUSH1 0x0 DUP1 PUSH1 0x0 DUP1 PUSH1 0x0 PUSH2 0xB09 DUP8 PUSH1 0x40 MLOAD DUP1 PUSH1 0x40 ADD PUSH1 0x40 MSTORE DUP1 PUSH1 0xA DUP2 MSTORE PUSH1 0x20 ADD PUSH32 0x7769746864726177616C00000000000000000000000000000000000000000000 DUP2 MSTORE POP DUP9 PUSH2 0x46A JUMP JUMPDEST SWAP5 POP SWAP5 POP SWAP5 POP SWAP5 POP SWAP5 POP PUSH1 0x0 DUP6 SGT PUSH2 0xB20 JUMPI PUSH1 0x0 DUP1 REVERT JUMPDEST PUSH1 0x0 DUP5 SGT PUSH2 0xB2D JUMPI PUSH1 0x0 DUP1 REVERT JUMPDEST PUSH1 0x0 DUP4 SGT PUSH2 0xB3A JUMPI PUSH1 0x0 DUP1 REVERT JUMPDEST PUSH1 0x0 DUP3 SGT PUSH2 0xB47 JUMPI PUSH1 0x0 DUP1 REVERT JUMPDEST PUSH1 0x40 MLOAD DUP1 PUSH1 0x40 ADD PUSH1 0x40 MSTORE DUP1 PUSH1 0x6 DUP2 MSTORE PUSH1 0x20 ADD PUSH32 0x746F6B656E410000000000000000000000000000000000000000000000000000 DUP2 MSTORE POP DUP1 MLOAD SWAP1 PUSH1 0x20 ADD KECCAK256 DUP8 DUP1 MLOAD SWAP1 PUSH1 0x20 ADD KECCAK256 EQ ISZERO PUSH2 0xC98 JUMPI DUP1 PUSH1 0x1 PUSH1 0x0 CALLER PUSH20 0xFFFFFFFFFFFFFFFFFFFFFFFFFFFFFFFFFFFFFFFF AND PUSH20 0xFFFFFFFFFFFFFFFFFFFFFFFFFFFFFFFFFFFFFFFF AND DUP2 MSTORE PUSH1 0x20 ADD SWAP1 DUP2 MSTORE PUSH1 0x20 ADD PUSH1 0x0 KECCAK256 PUSH1 0x1 ADD SLOAD SLT ISZERO PUSH2 0xBE1 JUMPI PUSH1 0x0 DUP1 REVERT JUMPDEST DUP1 PUSH1 0x1 PUSH1 0x0 CALLER PUSH20 0xFFFFFFFFFFFFFFFFFFFFFFFFFFFFFFFFFFFFFFFF AND PUSH20 0xFFFFFFFFFFFFFFFFFFFFFFFFFFFFFFFFFFFFFFFF AND DUP2 MSTORE PUSH1 0x20 ADD SWAP1 DUP2 MSTORE PUSH1 0x20 ADD PUSH1 0x0 KECCAK256 PUSH1 0x1 ADD PUSH1 0x0 DUP3 DUP3 SLOAD PUSH2 0xC33 SWAP2 SWAP1 PUSH2 0x2389 JUMP JUMPDEST SWAP3 POP POP DUP2 SWAP1 SSTORE POP DUP6 PUSH1 0x1 PUSH1 0x0 CALLER PUSH20 0xFFFFFFFFFFFFFFFFFFFFFFFFFFFFFFFFFFFFFFFF AND PUSH20 0xFFFFFFFFFFFFFFFFFFFFFFFFFFFFFFFFFFFFFFFF AND DUP2 MSTORE PUSH1 0x20 ADD SWAP1 DUP2 MSTORE PUSH1 0x20 ADD PUSH1 0x0 KECCAK256 PUSH1 0x0 ADD PUSH1 0x0 DUP3 DUP3 SLOAD PUSH2 0xC8C SWAP2 SWAP1 PUSH2 0x2174 JUMP JUMPDEST SWAP3 POP POP DUP2 SWAP1 SSTORE POP PUSH2 0xD9A JUMP JUMPDEST DUP1 PUSH1 0x1 PUSH1 0x0 CALLER PUSH20 0xFFFFFFFFFFFFFFFFFFFFFFFFFFFFFFFFFFFFFFFF AND PUSH20 0xFFFFFFFFFFFFFFFFFFFFFFFFFFFFFFFFFFFFFFFF AND DUP2 MSTORE PUSH1 0x20 ADD SWAP1 DUP2 MSTORE PUSH1 0x20 ADD PUSH1 0x0 KECCAK256 PUSH1 0x0 ADD SLOAD SLT ISZERO PUSH2 0xCE7 JUMPI PUSH1 0x0 DUP1 REVERT JUMPDEST DUP1 PUSH1 0x1 PUSH1 0x0 CALLER PUSH20 0xFFFFFFFFFFFFFFFFFFFFFFFFFFFFFFFFFFFFFFFF AND PUSH20 0xFFFFFFFFFFFFFFFFFFFFFFFFFFFFFFFFFFFFFFFF AND DUP2 MSTORE PUSH1 0x20 ADD SWAP1 DUP2 MSTORE PUSH1 0x20 ADD PUSH1 0x0 KECCAK256 PUSH1 0x0 ADD PUSH1 0x0 DUP3 DUP3 SLOAD PUSH2 0xD39 SWAP2 SWAP1 PUSH2 0x2389 JUMP JUMPDEST SWAP3 POP POP DUP2 SWAP1 SSTORE POP DUP6 PUSH1 0x1 PUSH1 0x0 CALLER PUSH20 0xFFFFFFFFFFFFFFFFFFFFFFFFFFFFFFFFFFFFFFFF AND PUSH20 0xFFFFFFFFFFFFFFFFFFFFFFFFFFFFFFFFFFFFFFFF AND DUP2 MSTORE PUSH1 0x20 ADD SWAP1 DUP2 MSTORE PUSH1 0x20 ADD PUSH1 0x0 KECCAK256 PUSH1 0x1 ADD PUSH1 0x0 DUP3 DUP3 SLOAD PUSH2 0xD92 SWAP2 SWAP1 PUSH2 0x2174 JUMP JUMPDEST SWAP3 POP POP DUP2 SWAP1 SSTORE POP JUMPDEST DUP5 PUSH1 0x3 DUP2 SWAP1 SSTORE POP DUP4 PUSH1 0x4 DUP2 SWAP1 SSTORE POP DUP3 PUSH1 0x5 DUP2 SWAP1 SSTORE POP DUP2 PUSH1 0x6 DUP2 SWAP1 SSTORE POP PUSH32 0x9F6D6C156080917DD4EB3FAA52C09B5EF538B97A7406838FB175391B9E81383 DUP2 PUSH1 0x40 MLOAD PUSH2 0xDE5 SWAP2 SWAP1 PUSH2 0x1F64 JUMP JUMPDEST PUSH1 0x40 MLOAD DUP1 SWAP2 SUB SWAP1 LOG1 POP POP POP POP POP POP POP JUMP JUMPDEST PUSH1 0x0 DUP1 PUSH2 0xE03 DUP5 DUP5 PUSH2 0x19C3 JUMP JUMPDEST SWAP1 POP PUSH1 0x16 PUSH1 0x3 SIGNEXTEND DUP2 EQ PUSH2 0xE4B JUMPI PUSH1 0x40 MLOAD PUSH32 0x8C379A000000000000000000000000000000000000000000000000000000000 DUP2 MSTORE PUSH1 0x4 ADD PUSH2 0xE42 SWAP1 PUSH2 0x20AC JUMP JUMPDEST PUSH1 0x40 MLOAD DUP1 SWAP2 SUB SWAP1 REVERT JUMPDEST DUP1 SWAP2 POP POP SWAP3 SWAP2 POP POP JUMP JUMPDEST PUSH1 0x0 DUP1 PUSH1 0x0 CALLER PUSH20 0xFFFFFFFFFFFFFFFFFFFFFFFFFFFFFFFFFFFFFFFF AND PUSH20 0xFFFFFFFFFFFFFFFFFFFFFFFFFFFFFFFFFFFFFFFF AND DUP2 MSTORE PUSH1 0x20 ADD SWAP1 DUP2 MSTORE PUSH1 0x20 ADD PUSH1 0x0 KECCAK256 PUSH1 0x0 SWAP1 SLOAD SWAP1 PUSH2 0x100 EXP SWAP1 DIV PUSH1 0xFF AND PUSH2 0xEAC JUMPI PUSH1 0x0 DUP1 REVERT JUMPDEST PUSH1 0x1 PUSH1 0x0 CALLER PUSH20 0xFFFFFFFFFFFFFFFFFFFFFFFFFFFFFFFFFFFFFFFF AND PUSH20 0xFFFFFFFFFFFFFFFFFFFFFFFFFFFFFFFFFFFFFFFF AND DUP2 MSTORE PUSH1 0x20 ADD SWAP1 DUP2 MSTORE PUSH1 0x20 ADD PUSH1 0x0 KECCAK256 PUSH1 0x0 ADD SLOAD SWAP1 POP SWAP1 JUMP JUMPDEST PUSH1 0x60 PUSH1 0x40 MLOAD DUP1 PUSH1 0x40 ADD PUSH1 0x40 MSTORE DUP1 PUSH1 0x3 DUP2 MSTORE PUSH1 0x20 ADD PUSH32 0x4F53520000000000000000000000000000000000000000000000000000000000 DUP2 MSTORE POP SWAP1 POP SWAP1 JUMP JUMPDEST PUSH1 0x0 DUP1 CALLER PUSH20 0xFFFFFFFFFFFFFFFFFFFFFFFFFFFFFFFFFFFFFFFF AND PUSH20 0xFFFFFFFFFFFFFFFFFFFFFFFFFFFFFFFFFFFFFFFF AND DUP2 MSTORE PUSH1 0x20 ADD SWAP1 DUP2 MSTORE PUSH1 0x20 ADD PUSH1 0x0 KECCAK256 PUSH1 0x0 SWAP1 SLOAD SWAP1 PUSH2 0x100 EXP SWAP1 DIV PUSH1 0xFF AND ISZERO PUSH2 0xF87 JUMPI PUSH1 0x0 DUP1 REVERT JUMPDEST PUSH2 0x3E8 PUSH1 0x1 PUSH1 0x0 CALLER PUSH20 0xFFFFFFFFFFFFFFFFFFFFFFFFFFFFFFFFFFFFFFFF AND PUSH20 0xFFFFFFFFFFFFFFFFFFFFFFFFFFFFFFFFFFFFFFFF AND DUP2 MSTORE PUSH1 0x20 ADD SWAP1 DUP2 MSTORE PUSH1 0x20 ADD PUSH1 0x0 KECCAK256 PUSH1 0x0 ADD PUSH1 0x0 DUP3 DUP3 SLOAD PUSH2 0xFDB SWAP2 SWAP1 PUSH2 0x2174 JUMP JUMPDEST SWAP3 POP POP DUP2 SWAP1 SSTORE POP PUSH2 0x3E8 PUSH1 0x1 PUSH1 0x0 CALLER PUSH20 0xFFFFFFFFFFFFFFFFFFFFFFFFFFFFFFFFFFFFFFFF AND PUSH20 0xFFFFFFFFFFFFFFFFFFFFFFFFFFFFFFFFFFFFFFFF AND DUP2 MSTORE PUSH1 0x20 ADD SWAP1 DUP2 MSTORE PUSH1 0x20 ADD PUSH1 0x0 KECCAK256 PUSH1 0x1 ADD PUSH1 0x0 DUP3 DUP3 SLOAD PUSH2 0x1036 SWAP2 SWAP1 PUSH2 0x2174 JUMP JUMPDEST SWAP3 POP POP DUP2 SWAP1 SSTORE POP PUSH1 0x1 PUSH1 0x0 DUP1 CALLER PUSH20 0xFFFFFFFFFFFFFFFFFFFFFFFFFFFFFFFFFFFFFFFF AND PUSH20 0xFFFFFFFFFFFFFFFFFFFFFFFFFFFFFFFFFFFFFFFF AND DUP2 MSTORE PUSH1 0x20 ADD SWAP1 DUP2 MSTORE PUSH1 0x20 ADD PUSH1 0x0 KECCAK256 PUSH1 0x0 PUSH2 0x100 EXP DUP2 SLOAD DUP2 PUSH1 0xFF MUL NOT AND SWAP1 DUP4 ISZERO ISZERO MUL OR SWAP1 SSTORE POP CALLER PUSH20 0xFFFFFFFFFFFFFFFFFFFFFFFFFFFFFFFFFFFFFFFF AND PUSH32 0x500201DD509E994C0E890B017F78B50955F36D83D2ACBB63C9E747547B799CAC PUSH1 0x1 PUSH1 0x0 CALLER PUSH20 0xFFFFFFFFFFFFFFFFFFFFFFFFFFFFFFFFFFFFFFFF AND PUSH20 0xFFFFFFFFFFFFFFFFFFFFFFFFFFFFFFFFFFFFFFFF AND DUP2 MSTORE PUSH1 0x20 ADD SWAP1 DUP2 MSTORE PUSH1 0x20 ADD PUSH1 0x0 KECCAK256 PUSH1 0x0 ADD SLOAD PUSH1 0x1 PUSH1 0x0 CALLER PUSH20 0xFFFFFFFFFFFFFFFFFFFFFFFFFFFFFFFFFFFFFFFF AND PUSH20 0xFFFFFFFFFFFFFFFFFFFFFFFFFFFFFFFFFFFFFFFF AND DUP2 MSTORE PUSH1 0x20 ADD SWAP1 DUP2 MSTORE PUSH1 0x20 ADD PUSH1 0x0 KECCAK256 PUSH1 0x1 ADD SLOAD PUSH1 0x40 MLOAD PUSH2 0x1160 SWAP3 SWAP2 SWAP1 PUSH2 0x1F7F JUMP JUMPDEST PUSH1 0x40 MLOAD DUP1 SWAP2 SUB SWAP1 LOG2 JUMP JUMPDEST PUSH1 0x0 PUSH1 0x40 MLOAD DUP1 PUSH1 0x40 ADD PUSH1 0x40 MSTORE DUP1 PUSH1 0x1 DUP2 MSTORE PUSH1 0x20 ADD PUSH32 0x7800000000000000000000000000000000000000000000000000000000000000 DUP2 MSTORE POP DUP1 MLOAD SWAP1 PUSH1 0x20 ADD KECCAK256 DUP3 DUP1 MLOAD SWAP1 PUSH1 0x20 ADD KECCAK256 EQ DUP1 PUSH2 0x11FF JUMPI POP PUSH1 0x40 MLOAD DUP1 PUSH1 0x40 ADD PUSH1 0x40 MSTORE DUP1 PUSH1 0x1 DUP2 MSTORE PUSH1 0x20 ADD PUSH32 0x7900000000000000000000000000000000000000000000000000000000000000 DUP2 MSTORE POP DUP1 MLOAD SWAP1 PUSH1 0x20 ADD KECCAK256 DUP3 DUP1 MLOAD SWAP1 PUSH1 0x20 ADD KECCAK256 EQ JUMPDEST DUP1 PUSH2 0x124C JUMPI POP PUSH1 0x40 MLOAD DUP1 PUSH1 0x40 ADD PUSH1 0x40 MSTORE DUP1 PUSH1 0x1 DUP2 MSTORE PUSH1 0x20 ADD PUSH32 0x6B00000000000000000000000000000000000000000000000000000000000000 DUP2 MSTORE POP DUP1 MLOAD SWAP1 PUSH1 0x20 ADD KECCAK256 DUP3 DUP1 MLOAD SWAP1 PUSH1 0x20 ADD KECCAK256 EQ JUMPDEST PUSH2 0x1255 JUMPI PUSH1 0x0 DUP1 REVERT JUMPDEST PUSH1 0x40 MLOAD DUP1 PUSH1 0x40 ADD PUSH1 0x40 MSTORE DUP1 PUSH1 0x1 DUP2 MSTORE PUSH1 0x20 ADD PUSH32 0x7800000000000000000000000000000000000000000000000000000000000000 DUP2 MSTORE POP DUP1 MLOAD SWAP1 PUSH1 0x20 ADD KECCAK256 DUP3 DUP1 MLOAD SWAP1 PUSH1 0x20 ADD KECCAK256 EQ ISZERO PUSH2 0x12AA JUMPI PUSH1 0x8 SLOAD SWAP1 POP PUSH2 0x1305 JUMP JUMPDEST PUSH1 0x40 MLOAD DUP1 PUSH1 0x40 ADD PUSH1 0x40 MSTORE DUP1 PUSH1 0x1 DUP2 MSTORE PUSH1 0x20 ADD PUSH32 0x7900000000000000000000000000000000000000000000000000000000000000 DUP2 MSTORE POP DUP1 MLOAD SWAP1 PUSH1 0x20 ADD KECCAK256 DUP3 DUP1 MLOAD SWAP1 PUSH1 0x20 ADD KECCAK256 EQ ISZERO PUSH2 0x12FF JUMPI PUSH1 0x9 SLOAD SWAP1 POP PUSH2 0x1305 JUMP JUMPDEST PUSH1 0x7 SLOAD SWAP1 POP JUMPDEST SWAP2 SWAP1 POP JUMP JUMPDEST PUSH1 0x0 DUP1 CALLER PUSH20 0xFFFFFFFFFFFFFFFFFFFFFFFFFFFFFFFFFFFFFFFF AND PUSH20 0xFFFFFFFFFFFFFFFFFFFFFFFFFFFFFFFFFFFFFFFF AND DUP2 MSTORE PUSH1 0x20 ADD SWAP1 DUP2 MSTORE PUSH1 0x20 ADD PUSH1 0x0 KECCAK256 PUSH1 0x0 SWAP1 SLOAD SWAP1 PUSH2 0x100 EXP SWAP1 DIV PUSH1 0xFF AND PUSH2 0x135F JUMPI PUSH1 0x0 DUP1 REVERT JUMPDEST PUSH2 0x1368 DUP3 PUSH2 0x16EE JUMP JUMPDEST PUSH1 0x40 MLOAD DUP1 PUSH1 0x40 ADD PUSH1 0x40 MSTORE DUP1 PUSH1 0x6 DUP2 MSTORE PUSH1 0x20 ADD PUSH32 0x746F6B656E410000000000000000000000000000000000000000000000000000 DUP2 MSTORE POP DUP1 MLOAD SWAP1 PUSH1 0x20 ADD KECCAK256 DUP3 DUP1 MLOAD SWAP1 PUSH1 0x20 ADD KECCAK256 EQ ISZERO PUSH2 0x1407 JUMPI DUP1 PUSH1 0x1 PUSH1 0x0 CALLER PUSH20 0xFFFFFFFFFFFFFFFFFFFFFFFFFFFFFFFFFFFFFFFF AND PUSH20 0xFFFFFFFFFFFFFFFFFFFFFFFFFFFFFFFFFFFFFFFF AND DUP2 MSTORE PUSH1 0x20 ADD SWAP1 DUP2 MSTORE PUSH1 0x20 ADD PUSH1 0x0 KECCAK256 PUSH1 0x0 ADD SLOAD SLT ISZERO PUSH2 0x1402 JUMPI PUSH1 0x0 DUP1 REVERT JUMPDEST PUSH2 0x1457 JUMP JUMPDEST DUP1 PUSH1 0x1 PUSH1 0x0 CALLER PUSH20 0xFFFFFFFFFFFFFFFFFFFFFFFFFFFFFFFFFFFFFFFF AND PUSH20 0xFFFFFFFFFFFFFFFFFFFFFFFFFFFFFFFFFFFFFFFF AND DUP2 MSTORE PUSH1 0x20 ADD SWAP1 DUP2 MSTORE PUSH1 0x20 ADD PUSH1 0x0 KECCAK256 PUSH1 0x1 ADD SLOAD SLT ISZERO PUSH2 0x1456 JUMPI PUSH1 0x0 DUP1 REVERT JUMPDEST JUMPDEST PUSH1 0x0 DUP1 PUSH1 0x0 DUP1 PUSH1 0x0 PUSH2 0x149F DUP8 PUSH1 0x40 MLOAD DUP1 PUSH1 0x40 ADD PUSH1 0x40 MSTORE DUP1 PUSH1 0x7 DUP2 MSTORE PUSH1 0x20 ADD PUSH32 0x6465706F73697400000000000000000000000000000000000000000000000000 DUP2 MSTORE POP DUP9 PUSH2 0x46A JUMP JUMPDEST SWAP5 POP SWAP5 POP SWAP5 POP SWAP5 POP SWAP5 POP PUSH1 0x0 DUP6 SGT PUSH2 0x14B6 JUMPI PUSH1 0x0 DUP1 REVERT JUMPDEST PUSH1 0x0 DUP5 SGT PUSH2 0x14C3 JUMPI PUSH1 0x0 DUP1 REVERT JUMPDEST PUSH1 0x0 DUP4 SGT PUSH2 0x14D0 JUMPI PUSH1 0x0 DUP1 REVERT JUMPDEST PUSH1 0x0 DUP3 SGT PUSH2 0x14DD JUMPI PUSH1 0x0 DUP1 REVERT JUMPDEST PUSH1 0x40 MLOAD DUP1 PUSH1 0x40 ADD PUSH1 0x40 MSTORE DUP1 PUSH1 0x6 DUP2 MSTORE PUSH1 0x20 ADD PUSH32 0x746F6B656E410000000000000000000000000000000000000000000000000000 DUP2 MSTORE POP DUP1 MLOAD SWAP1 PUSH1 0x20 ADD KECCAK256 DUP8 DUP1 MLOAD SWAP1 PUSH1 0x20 ADD KECCAK256 EQ ISZERO PUSH2 0x15DF JUMPI DUP6 PUSH1 0x1 PUSH1 0x0 CALLER PUSH20 0xFFFFFFFFFFFFFFFFFFFFFFFFFFFFFFFFFFFFFFFF AND PUSH20 0xFFFFFFFFFFFFFFFFFFFFFFFFFFFFFFFFFFFFFFFF AND DUP2 MSTORE PUSH1 0x20 ADD SWAP1 DUP2 MSTORE PUSH1 0x20 ADD PUSH1 0x0 KECCAK256 PUSH1 0x0 ADD PUSH1 0x0 DUP3 DUP3 SLOAD PUSH2 0x157A SWAP2 SWAP1 PUSH2 0x2389 JUMP JUMPDEST SWAP3 POP POP DUP2 SWAP1 SSTORE POP DUP1 PUSH1 0x1 PUSH1 0x0 CALLER PUSH20 0xFFFFFFFFFFFFFFFFFFFFFFFFFFFFFFFFFFFFFFFF AND PUSH20 0xFFFFFFFFFFFFFFFFFFFFFFFFFFFFFFFFFFFFFFFF AND DUP2 MSTORE PUSH1 0x20 ADD SWAP1 DUP2 MSTORE PUSH1 0x20 ADD PUSH1 0x0 KECCAK256 PUSH1 0x1 ADD PUSH1 0x0 DUP3 DUP3 SLOAD PUSH2 0x15D3 SWAP2 SWAP1 PUSH2 0x2174 JUMP JUMPDEST SWAP3 POP POP DUP2 SWAP1 SSTORE POP PUSH2 0x1692 JUMP JUMPDEST DUP6 PUSH1 0x1 PUSH1 0x0 CALLER PUSH20 0xFFFFFFFFFFFFFFFFFFFFFFFFFFFFFFFFFFFFFFFF AND PUSH20 0xFFFFFFFFFFFFFFFFFFFFFFFFFFFFFFFFFFFFFFFF AND DUP2 MSTORE PUSH1 0x20 ADD SWAP1 DUP2 MSTORE PUSH1 0x20 ADD PUSH1 0x0 KECCAK256 PUSH1 0x1 ADD PUSH1 0x0 DUP3 DUP3 SLOAD PUSH2 0x1631 SWAP2 SWAP1 PUSH2 0x2389 JUMP JUMPDEST SWAP3 POP POP DUP2 SWAP1 SSTORE POP DUP1 PUSH1 0x1 PUSH1 0x0 CALLER PUSH20 0xFFFFFFFFFFFFFFFFFFFFFFFFFFFFFFFFFFFFFFFF AND PUSH20 0xFFFFFFFFFFFFFFFFFFFFFFFFFFFFFFFFFFFFFFFF AND DUP2 MSTORE PUSH1 0x20 ADD SWAP1 DUP2 MSTORE PUSH1 0x20 ADD PUSH1 0x0 KECCAK256 PUSH1 0x0 ADD PUSH1 0x0 DUP3 DUP3 SLOAD PUSH2 0x168A SWAP2 SWAP1 PUSH2 0x2174 JUMP JUMPDEST SWAP3 POP POP DUP2 SWAP1 SSTORE POP JUMPDEST DUP5 PUSH1 0x3 DUP2 SWAP1 SSTORE POP DUP4 PUSH1 0x4 DUP2 SWAP1 SSTORE POP DUP3 PUSH1 0x5 DUP2 SWAP1 SSTORE POP DUP2 PUSH1 0x6 DUP2 SWAP1 SSTORE POP PUSH32 0xBC6E679F8B1549497ECF3E87D44B1B69461A370197D72D0E0B663EA343108F43 DUP2 PUSH1 0x40 MLOAD PUSH2 0x16DD SWAP2 SWAP1 PUSH2 0x1F64 JUMP JUMPDEST PUSH1 0x40 MLOAD DUP1 SWAP2 SUB SWAP1 LOG1 POP POP POP POP POP POP POP JUMP JUMPDEST PUSH1 0x40 MLOAD DUP1 PUSH1 0x40 ADD PUSH1 0x40 MSTORE DUP1 PUSH1 0x6 DUP2 MSTORE PUSH1 0x20 ADD PUSH32 0x746F6B656E410000000000000000000000000000000000000000000000000000 DUP2 MSTORE POP DUP1 MLOAD SWAP1 PUSH1 0x20 ADD KECCAK256 DUP2 DUP1 MLOAD SWAP1 PUSH1 0x20 ADD KECCAK256 EQ DUP1 PUSH2 0x1781 JUMPI POP PUSH1 0x40 MLOAD DUP1 PUSH1 0x40 ADD PUSH1 0x40 MSTORE DUP1 PUSH1 0x6 DUP2 MSTORE PUSH1 0x20 ADD PUSH32 0x746F6B656E420000000000000000000000000000000000000000000000000000 DUP2 MSTORE POP DUP1 MLOAD SWAP1 PUSH1 0x20 ADD KECCAK256 DUP2 DUP1 MLOAD SWAP1 PUSH1 0x20 ADD KECCAK256 EQ JUMPDEST PUSH2 0x178A JUMPI PUSH1 0x0 DUP1 REVERT JUMPDEST POP JUMP JUMPDEST PUSH1 0x0 DUP1 PUSH1 0x0 PUSH2 0x167 PUSH20 0xFFFFFFFFFFFFFFFFFFFFFFFFFFFFFFFFFFFFFFFF AND PUSH4 0xECA36917 PUSH1 0xE0 SHL DUP9 DUP9 DUP9 DUP9 PUSH1 0x40 MLOAD PUSH1 0x24 ADD PUSH2 0x17CA SWAP5 SWAP4 SWAP3 SWAP2 SWAP1 PUSH2 0x1F1F JUMP JUMPDEST PUSH1 0x40 MLOAD PUSH1 0x20 DUP2 DUP4 SUB SUB DUP2 MSTORE SWAP1 PUSH1 0x40 MSTORE SWAP1 PUSH28 0xFFFFFFFFFFFFFFFFFFFFFFFFFFFFFFFFFFFFFFFFFFFFFFFFFFFFFFFF NOT AND PUSH1 0x20 DUP3 ADD DUP1 MLOAD PUSH28 0xFFFFFFFFFFFFFFFFFFFFFFFFFFFFFFFFFFFFFFFFFFFFFFFFFFFFFFFF DUP4 DUP2 DUP4 AND OR DUP4 MSTORE POP POP POP POP PUSH1 0x40 MLOAD PUSH2 0x1834 SWAP2 SWAP1 PUSH2 0x1EDF JUMP JUMPDEST PUSH1 0x0 PUSH1 0x40 MLOAD DUP1 DUP4 SUB DUP2 PUSH1 0x0 DUP7 GAS CALL SWAP2 POP POP RETURNDATASIZE DUP1 PUSH1 0x0 DUP2 EQ PUSH2 0x1871 JUMPI PUSH1 0x40 MLOAD SWAP2 POP PUSH1 0x1F NOT PUSH1 0x3F RETURNDATASIZE ADD AND DUP3 ADD PUSH1 0x40 MSTORE RETURNDATASIZE DUP3 MSTORE RETURNDATASIZE PUSH1 0x0 PUSH1 0x20 DUP5 ADD RETURNDATACOPY PUSH2 0x1876 JUMP JUMPDEST PUSH1 0x60 SWAP2 POP JUMPDEST POP SWAP2 POP SWAP2 POP DUP2 PUSH2 0x1887 JUMPI PUSH1 0x15 PUSH2 0x189C JUMP JUMPDEST DUP1 DUP1 PUSH1 0x20 ADD SWAP1 MLOAD DUP2 ADD SWAP1 PUSH2 0x189B SWAP2 SWAP1 PUSH2 0x1C36 JUMP JUMPDEST JUMPDEST PUSH1 0x3 SIGNEXTEND SWAP3 POP POP POP SWAP5 SWAP4 POP POP POP POP JUMP JUMPDEST PUSH1 0x0 DUP1 PUSH1 0x0 PUSH2 0x167 PUSH20 0xFFFFFFFFFFFFFFFFFFFFFFFFFFFFFFFFFFFFFFFF AND PUSH4 0x99794E8 PUSH1 0xE0 SHL DUP7 DUP7 PUSH1 0x40 MLOAD PUSH1 0x24 ADD PUSH2 0x18E4 SWAP3 SWAP2 SWAP1 PUSH2 0x1EF6 JUMP JUMPDEST PUSH1 0x40 MLOAD PUSH1 0x20 DUP2 DUP4 SUB SUB DUP2 MSTORE SWAP1 PUSH1 0x40 MSTORE SWAP1 PUSH28 0xFFFFFFFFFFFFFFFFFFFFFFFFFFFFFFFFFFFFFFFFFFFFFFFFFFFFFFFF NOT AND PUSH1 0x20 DUP3 ADD DUP1 MLOAD PUSH28 0xFFFFFFFFFFFFFFFFFFFFFFFFFFFFFFFFFFFFFFFFFFFFFFFFFFFFFFFF DUP4 DUP2 DUP4 AND OR DUP4 MSTORE POP POP POP POP PUSH1 0x40 MLOAD PUSH2 0x194E SWAP2 SWAP1 PUSH2 0x1EDF JUMP JUMPDEST PUSH1 0x0 PUSH1 0x40 MLOAD DUP1 DUP4 SUB DUP2 PUSH1 0x0 DUP7 GAS CALL SWAP2 POP POP RETURNDATASIZE DUP1 PUSH1 0x0 DUP2 EQ PUSH2 0x198B JUMPI PUSH1 0x40 MLOAD SWAP2 POP PUSH1 0x1F NOT PUSH1 0x3F RETURNDATASIZE ADD AND DUP3 ADD PUSH1 0x40 MSTORE RETURNDATASIZE DUP3 MSTORE RETURNDATASIZE PUSH1 0x0 PUSH1 0x20 DUP5 ADD RETURNDATACOPY PUSH2 0x1990 JUMP JUMPDEST PUSH1 0x60 SWAP2 POP JUMPDEST POP SWAP2 POP SWAP2 POP DUP2 PUSH2 0x19A1 JUMPI PUSH1 0x15 PUSH2 0x19B6 JUMP JUMPDEST DUP1 DUP1 PUSH1 0x20 ADD SWAP1 MLOAD DUP2 ADD SWAP1 PUSH2 0x19B5 SWAP2 SWAP1 PUSH2 0x1C36 JUMP JUMPDEST JUMPDEST PUSH1 0x3 SIGNEXTEND SWAP3 POP POP POP SWAP3 SWAP2 POP POP JUMP JUMPDEST PUSH1 0x0 DUP1 PUSH1 0x0 PUSH2 0x167 PUSH20 0xFFFFFFFFFFFFFFFFFFFFFFFFFFFFFFFFFFFFFFFF AND PUSH4 0x49146BDE PUSH1 0xE0 SHL DUP7 DUP7 PUSH1 0x40 MLOAD PUSH1 0x24 ADD PUSH2 0x19FC SWAP3 SWAP2 SWAP1 PUSH2 0x1EF6 JUMP JUMPDEST PUSH1 0x40 MLOAD PUSH1 0x20 DUP2 DUP4 SUB SUB DUP2 MSTORE SWAP1 PUSH1 0x40 MSTORE SWAP1 PUSH28 0xFFFFFFFFFFFFFFFFFFFFFFFFFFFFFFFFFFFFFFFFFFFFFFFFFFFFFFFF NOT AND PUSH1 0x20 DUP3 ADD DUP1 MLOAD PUSH28 0xFFFFFFFFFFFFFFFFFFFFFFFFFFFFFFFFFFFFFFFFFFFFFFFFFFFFFFFF DUP4 DUP2 DUP4 AND OR DUP4 MSTORE POP POP POP POP PUSH1 0x40 MLOAD PUSH2 0x1A66 SWAP2 SWAP1 PUSH2 0x1EDF JUMP JUMPDEST PUSH1 0x0 PUSH1 0x40 MLOAD DUP1 DUP4 SUB DUP2 PUSH1 0x0 DUP7 GAS CALL SWAP2 POP POP RETURNDATASIZE DUP1 PUSH1 0x0 DUP2 EQ PUSH2 0x1AA3 JUMPI PUSH1 0x40 MLOAD SWAP2 POP PUSH1 0x1F NOT PUSH1 0x3F RETURNDATASIZE ADD AND DUP3 ADD PUSH1 0x40 MSTORE RETURNDATASIZE DUP3 MSTORE RETURNDATASIZE PUSH1 0x0 PUSH1 0x20 DUP5 ADD RETURNDATACOPY PUSH2 0x1AA8 JUMP JUMPDEST PUSH1 0x60 SWAP2 POP JUMPDEST POP SWAP2 POP SWAP2 POP DUP2 PUSH2 0x1AB9 JUMPI PUSH1 0x15 PUSH2 0x1ACE JUMP JUMPDEST DUP1 DUP1 PUSH1 0x20 ADD SWAP1 MLOAD DUP2 ADD SWAP1 PUSH2 0x1ACD SWAP2 SWAP1 PUSH2 0x1C36 JUMP JUMPDEST JUMPDEST PUSH1 0x3 SIGNEXTEND SWAP3 POP POP POP SWAP3 SWAP2 POP POP JUMP JUMPDEST PUSH1 0x0 PUSH2 0x1AEE PUSH2 0x1AE9 DUP5 PUSH2 0x2111 JUMP JUMPDEST PUSH2 0x20EC JUMP JUMPDEST SWAP1 POP DUP3 DUP2 MSTORE PUSH1 0x20 DUP2 ADD DUP5 DUP5 DUP5 ADD GT ISZERO PUSH2 0x1B06 JUMPI PUSH1 0x0 DUP1 REVERT JUMPDEST PUSH2 0x1B11 DUP5 DUP3 DUP6 PUSH2 0x2473 JUMP JUMPDEST POP SWAP4 SWAP3 POP POP POP JUMP JUMPDEST PUSH1 0x0 DUP2 CALLDATALOAD SWAP1 POP PUSH2 0x1B28 DUP2 PUSH2 0x25FF JUMP JUMPDEST SWAP3 SWAP2 POP POP JUMP JUMPDEST PUSH1 0x0 DUP2 CALLDATALOAD SWAP1 POP PUSH2 0x1B3D DUP2 PUSH2 0x2616 JUMP JUMPDEST SWAP3 SWAP2 POP POP JUMP JUMPDEST PUSH1 0x0 DUP2 MLOAD SWAP1 POP PUSH2 0x1B52 DUP2 PUSH2 0x262D JUMP JUMPDEST SWAP3 SWAP2 POP POP JUMP JUMPDEST PUSH1 0x0 DUP2 CALLDATALOAD SWAP1 POP PUSH2 0x1B67 DUP2 PUSH2 0x2644 JUMP JUMPDEST SWAP3 SWAP2 POP POP JUMP JUMPDEST PUSH1 0x0 DUP3 PUSH1 0x1F DUP4 ADD SLT PUSH2 0x1B7E JUMPI PUSH1 0x0 DUP1 REVERT JUMPDEST DUP2 CALLDATALOAD PUSH2 0x1B8E DUP5 DUP3 PUSH1 0x20 DUP7 ADD PUSH2 0x1ADB JUMP JUMPDEST SWAP2 POP POP SWAP3 SWAP2 POP POP JUMP JUMPDEST PUSH1 0x0 DUP1 PUSH1 0x40 DUP4 DUP6 SUB SLT ISZERO PUSH2 0x1BAA JUMPI PUSH1 0x0 DUP1 REVERT JUMPDEST PUSH1 0x0 PUSH2 0x1BB8 DUP6 DUP3 DUP7 ADD PUSH2 0x1B19 JUMP JUMPDEST SWAP3 POP POP PUSH1 0x20 PUSH2 0x1BC9 DUP6 DUP3 DUP7 ADD PUSH2 0x1B19 JUMP JUMPDEST SWAP2 POP POP SWAP3 POP SWAP3 SWAP1 POP JUMP JUMPDEST PUSH1 0x0 DUP1 PUSH1 0x0 DUP1 PUSH1 0x80 DUP6 DUP8 SUB SLT ISZERO PUSH2 0x1BE9 JUMPI PUSH1 0x0 DUP1 REVERT JUMPDEST PUSH1 0x0 PUSH2 0x1BF7 DUP8 DUP3 DUP9 ADD PUSH2 0x1B19 JUMP JUMPDEST SWAP5 POP POP PUSH1 0x20 PUSH2 0x1C08 DUP8 DUP3 DUP9 ADD PUSH2 0x1B19 JUMP JUMPDEST SWAP4 POP POP PUSH1 0x40 PUSH2 0x1C19 DUP8 DUP3 DUP9 ADD PUSH2 0x1B19 JUMP JUMPDEST SWAP3 POP POP PUSH1 0x60 PUSH2 0x1C2A DUP8 DUP3 DUP9 ADD PUSH2 0x1B58 JUMP JUMPDEST SWAP2 POP POP SWAP3 SWAP6 SWAP2 SWAP5 POP SWAP3 POP JUMP JUMPDEST PUSH1 0x0 PUSH1 0x20 DUP3 DUP5 SUB SLT ISZERO PUSH2 0x1C48 JUMPI PUSH1 0x0 DUP1 REVERT JUMPDEST PUSH1 0x0 PUSH2 0x1C56 DUP5 DUP3 DUP6 ADD PUSH2 0x1B43 JUMP JUMPDEST SWAP2 POP POP SWAP3 SWAP2 POP POP JUMP JUMPDEST PUSH1 0x0 PUSH1 0x20 DUP3 DUP5 SUB SLT ISZERO PUSH2 0x1C71 JUMPI PUSH1 0x0 DUP1 REVERT JUMPDEST PUSH1 0x0 DUP3 ADD CALLDATALOAD PUSH8 0xFFFFFFFFFFFFFFFF DUP2 GT ISZERO PUSH2 0x1C8B JUMPI PUSH1 0x0 DUP1 REVERT JUMPDEST PUSH2 0x1C97 DUP5 DUP3 DUP6 ADD PUSH2 0x1B6D JUMP JUMPDEST SWAP2 POP POP SWAP3 SWAP2 POP POP JUMP JUMPDEST PUSH1 0x0 DUP1 PUSH1 0x40 DUP4 DUP6 SUB SLT ISZERO PUSH2 0x1CB3 JUMPI PUSH1 0x0 DUP1 REVERT JUMPDEST PUSH1 0x0 DUP4 ADD CALLDATALOAD PUSH8 0xFFFFFFFFFFFFFFFF DUP2 GT ISZERO PUSH2 0x1CCD JUMPI PUSH1 0x0 DUP1 REVERT JUMPDEST PUSH2 0x1CD9 DUP6 DUP3 DUP7 ADD PUSH2 0x1B6D JUMP JUMPDEST SWAP3 POP POP PUSH1 0x20 PUSH2 0x1CEA DUP6 DUP3 DUP7 ADD PUSH2 0x1B2E JUMP JUMPDEST SWAP2 POP POP SWAP3 POP SWAP3 SWAP1 POP JUMP JUMPDEST PUSH1 0x0 DUP1 PUSH1 0x40 DUP4 DUP6 SUB SLT ISZERO PUSH2 0x1D07 JUMPI PUSH1 0x0 DUP1 REVERT JUMPDEST PUSH1 0x0 DUP4 ADD CALLDATALOAD PUSH8 0xFFFFFFFFFFFFFFFF DUP2 GT ISZERO PUSH2 0x1D21 JUMPI PUSH1 0x0 DUP1 REVERT JUMPDEST PUSH2 0x1D2D DUP6 DUP3 DUP7 ADD PUSH2 0x1B6D JUMP JUMPDEST SWAP3 POP POP PUSH1 0x20 DUP4 ADD CALLDATALOAD PUSH8 0xFFFFFFFFFFFFFFFF DUP2 GT ISZERO PUSH2 0x1D4A JUMPI PUSH1 0x0 DUP1 REVERT JUMPDEST PUSH2 0x1D56 DUP6 DUP3 DUP7 ADD PUSH2 0x1B6D JUMP JUMPDEST SWAP2 POP POP SWAP3 POP SWAP3 SWAP1 POP JUMP JUMPDEST PUSH1 0x0 DUP1 PUSH1 0x0 PUSH1 0x60 DUP5 DUP7 SUB SLT ISZERO PUSH2 0x1D75 JUMPI PUSH1 0x0 DUP1 REVERT JUMPDEST PUSH1 0x0 DUP5 ADD CALLDATALOAD PUSH8 0xFFFFFFFFFFFFFFFF DUP2 GT ISZERO PUSH2 0x1D8F JUMPI PUSH1 0x0 DUP1 REVERT JUMPDEST PUSH2 0x1D9B DUP7 DUP3 DUP8 ADD PUSH2 0x1B6D JUMP JUMPDEST SWAP4 POP POP PUSH1 0x20 DUP5 ADD CALLDATALOAD PUSH8 0xFFFFFFFFFFFFFFFF DUP2 GT ISZERO PUSH2 0x1DB8 JUMPI PUSH1 0x0 DUP1 REVERT JUMPDEST PUSH2 0x1DC4 DUP7 DUP3 DUP8 ADD PUSH2 0x1B6D JUMP JUMPDEST SWAP3 POP POP PUSH1 0x40 PUSH2 0x1DD5 DUP7 DUP3 DUP8 ADD PUSH2 0x1B2E JUMP JUMPDEST SWAP2 POP POP SWAP3 POP SWAP3 POP SWAP3 JUMP JUMPDEST PUSH2 0x1DE8 DUP2 PUSH2 0x241D JUMP JUMPDEST DUP3 MSTORE POP POP JUMP JUMPDEST PUSH1 0x0 PUSH2 0x1DF9 DUP3 PUSH2 0x2142 JUMP JUMPDEST PUSH2 0x1E03 DUP2 DUP6 PUSH2 0x2158 JUMP JUMPDEST SWAP4 POP PUSH2 0x1E13 DUP2 DUP6 PUSH1 0x20 DUP7 ADD PUSH2 0x2482 JUMP JUMPDEST DUP1 DUP5 ADD SWAP2 POP POP SWAP3 SWAP2 POP POP JUMP JUMPDEST PUSH2 0x1E28 DUP2 PUSH2 0x242F JUMP JUMPDEST DUP3 MSTORE POP POP JUMP JUMPDEST PUSH2 0x1E37 DUP2 PUSH2 0x2446 JUMP JUMPDEST DUP3 MSTORE POP POP JUMP JUMPDEST PUSH1 0x0 PUSH2 0x1E48 DUP3 PUSH2 0x214D JUMP JUMPDEST PUSH2 0x1E52 DUP2 DUP6 PUSH2 0x2163 JUMP JUMPDEST SWAP4 POP PUSH2 0x1E62 DUP2 DUP6 PUSH1 0x20 DUP7 ADD PUSH2 0x2482 JUMP JUMPDEST PUSH2 0x1E6B DUP2 PUSH2 0x2573 JUMP JUMPDEST DUP5 ADD SWAP2 POP POP SWAP3 SWAP2 POP POP JUMP JUMPDEST PUSH1 0x0 PUSH2 0x1E83 PUSH1 0xF DUP4 PUSH2 0x2163 JUMP JUMPDEST SWAP2 POP PUSH2 0x1E8E DUP3 PUSH2 0x2584 JUMP JUMPDEST PUSH1 0x20 DUP3 ADD SWAP1 POP SWAP2 SWAP1 POP JUMP JUMPDEST PUSH1 0x0 PUSH2 0x1EA6 PUSH1 0x10 DUP4 PUSH2 0x2163 JUMP JUMPDEST SWAP2 POP PUSH2 0x1EB1 DUP3 PUSH2 0x25AD JUMP JUMPDEST PUSH1 0x20 DUP3 ADD SWAP1 POP SWAP2 SWAP1 POP JUMP JUMPDEST PUSH1 0x0 PUSH2 0x1EC9 PUSH1 0x11 DUP4 PUSH2 0x2163 JUMP JUMPDEST SWAP2 POP PUSH2 0x1ED4 DUP3 PUSH2 0x25D6 JUMP JUMPDEST PUSH1 0x20 DUP3 ADD SWAP1 POP SWAP2 SWAP1 POP JUMP JUMPDEST PUSH1 0x0 PUSH2 0x1EEB DUP3 DUP5 PUSH2 0x1DEE JUMP JUMPDEST SWAP2 POP DUP2 SWAP1 POP SWAP3 SWAP2 POP POP JUMP JUMPDEST PUSH1 0x0 PUSH1 0x40 DUP3 ADD SWAP1 POP PUSH2 0x1F0B PUSH1 0x0 DUP4 ADD DUP6 PUSH2 0x1DDF JUMP JUMPDEST PUSH2 0x1F18 PUSH1 0x20 DUP4 ADD DUP5 PUSH2 0x1DDF JUMP JUMPDEST SWAP4 SWAP3 POP POP POP JUMP JUMPDEST PUSH1 0x0 PUSH1 0x80 DUP3 ADD SWAP1 POP PUSH2 0x1F34 PUSH1 0x0 DUP4 ADD DUP8 PUSH2 0x1DDF JUMP JUMPDEST PUSH2 0x1F41 PUSH1 0x20 DUP4 ADD DUP7 PUSH2 0x1DDF JUMP JUMPDEST PUSH2 0x1F4E PUSH1 0x40 DUP4 ADD DUP6 PUSH2 0x1DDF JUMP JUMPDEST PUSH2 0x1F5B PUSH1 0x60 DUP4 ADD DUP5 PUSH2 0x1E2E JUMP JUMPDEST SWAP6 SWAP5 POP POP POP POP POP JUMP JUMPDEST PUSH1 0x0 PUSH1 0x20 DUP3 ADD SWAP1 POP PUSH2 0x1F79 PUSH1 0x0 DUP4 ADD DUP5 PUSH2 0x1E1F JUMP JUMPDEST SWAP3 SWAP2 POP POP JUMP JUMPDEST PUSH1 0x0 PUSH1 0x40 DUP3 ADD SWAP1 POP PUSH2 0x1F94 PUSH1 0x0 DUP4 ADD DUP6 PUSH2 0x1E1F JUMP JUMPDEST PUSH2 0x1FA1 PUSH1 0x20 DUP4 ADD DUP5 PUSH2 0x1E1F JUMP JUMPDEST SWAP4 SWAP3 POP POP POP JUMP JUMPDEST PUSH1 0x0 PUSH1 0xA0 DUP3 ADD SWAP1 POP PUSH2 0x1FBD PUSH1 0x0 DUP4 ADD DUP9 PUSH2 0x1E1F JUMP JUMPDEST PUSH2 0x1FCA PUSH1 0x20 DUP4 ADD DUP8 PUSH2 0x1E1F JUMP JUMPDEST PUSH2 0x1FD7 PUSH1 0x40 DUP4 ADD DUP7 PUSH2 0x1E1F JUMP JUMPDEST PUSH2 0x1FE4 PUSH1 0x60 DUP4 ADD DUP6 PUSH2 0x1E1F JUMP JUMPDEST PUSH2 0x1FF1 PUSH1 0x80 DUP4 ADD DUP5 PUSH2 0x1E1F JUMP JUMPDEST SWAP7 SWAP6 POP POP POP POP POP POP JUMP JUMPDEST PUSH1 0x0 PUSH1 0xE0 DUP3 ADD SWAP1 POP PUSH2 0x2010 PUSH1 0x0 DUP4 ADD DUP11 PUSH2 0x1E1F JUMP JUMPDEST PUSH2 0x201D PUSH1 0x20 DUP4 ADD DUP10 PUSH2 0x1E1F JUMP JUMPDEST PUSH2 0x202A PUSH1 0x40 DUP4 ADD DUP9 PUSH2 0x1E1F JUMP JUMPDEST PUSH2 0x2037 PUSH1 0x60 DUP4 ADD DUP8 PUSH2 0x1E1F JUMP JUMPDEST PUSH2 0x2044 PUSH1 0x80 DUP4 ADD DUP7 PUSH2 0x1E1F JUMP JUMPDEST PUSH2 0x2051 PUSH1 0xA0 DUP4 ADD DUP6 PUSH2 0x1E1F JUMP JUMPDEST PUSH2 0x205E PUSH1 0xC0 DUP4 ADD DUP5 PUSH2 0x1E1F JUMP JUMPDEST SWAP9 SWAP8 POP POP POP POP POP POP POP POP JUMP JUMPDEST PUSH1 0x0 PUSH1 0x20 DUP3 ADD SWAP1 POP DUP2 DUP2 SUB PUSH1 0x0 DUP4 ADD MSTORE PUSH2 0x2084 DUP2 DUP5 PUSH2 0x1E3D JUMP JUMPDEST SWAP1 POP SWAP3 SWAP2 POP POP JUMP JUMPDEST PUSH1 0x0 PUSH1 0x20 DUP3 ADD SWAP1 POP DUP2 DUP2 SUB PUSH1 0x0 DUP4 ADD MSTORE PUSH2 0x20A5 DUP2 PUSH2 0x1E76 JUMP JUMPDEST SWAP1 POP SWAP2 SWAP1 POP JUMP JUMPDEST PUSH1 0x0 PUSH1 0x20 DUP3 ADD SWAP1 POP DUP2 DUP2 SUB PUSH1 0x0 DUP4 ADD MSTORE PUSH2 0x20C5 DUP2 PUSH2 0x1E99 JUMP JUMPDEST SWAP1 POP SWAP2 SWAP1 POP JUMP JUMPDEST PUSH1 0x0 PUSH1 0x20 DUP3 ADD SWAP1 POP DUP2 DUP2 SUB PUSH1 0x0 DUP4 ADD MSTORE PUSH2 0x20E5 DUP2 PUSH2 0x1EBC JUMP JUMPDEST SWAP1 POP SWAP2 SWAP1 POP JUMP JUMPDEST PUSH1 0x0 PUSH2 0x20F6 PUSH2 0x2107 JUMP JUMPDEST SWAP1 POP PUSH2 0x2102 DUP3 DUP3 PUSH2 0x24B5 JUMP JUMPDEST SWAP2 SWAP1 POP JUMP JUMPDEST PUSH1 0x0 PUSH1 0x40 MLOAD SWAP1 POP SWAP1 JUMP JUMPDEST PUSH1 0x0 PUSH8 0xFFFFFFFFFFFFFFFF DUP3 GT ISZERO PUSH2 0x212C JUMPI PUSH2 0x212B PUSH2 0x2544 JUMP JUMPDEST JUMPDEST PUSH2 0x2135 DUP3 PUSH2 0x2573 JUMP JUMPDEST SWAP1 POP PUSH1 0x20 DUP2 ADD SWAP1 POP SWAP2 SWAP1 POP JUMP JUMPDEST PUSH1 0x0 DUP2 MLOAD SWAP1 POP SWAP2 SWAP1 POP JUMP JUMPDEST PUSH1 0x0 DUP2 MLOAD SWAP1 POP SWAP2 SWAP1 POP JUMP JUMPDEST PUSH1 0x0 DUP2 SWAP1 POP SWAP3 SWAP2 POP POP JUMP JUMPDEST PUSH1 0x0 DUP3 DUP3 MSTORE PUSH1 0x20 DUP3 ADD SWAP1 POP SWAP3 SWAP2 POP POP JUMP JUMPDEST PUSH1 0x0 PUSH2 0x217F DUP3 PUSH2 0x242F JUMP JUMPDEST SWAP2 POP PUSH2 0x218A DUP4 PUSH2 0x242F JUMP JUMPDEST SWAP3 POP DUP2 PUSH32 0x7FFFFFFFFFFFFFFFFFFFFFFFFFFFFFFFFFFFFFFFFFFFFFFFFFFFFFFFFFFFFFFF SUB DUP4 SGT PUSH1 0x0 DUP4 SLT ISZERO AND ISZERO PUSH2 0x21C5 JUMPI PUSH2 0x21C4 PUSH2 0x24E6 JUMP JUMPDEST JUMPDEST DUP2 PUSH32 0x8000000000000000000000000000000000000000000000000000000000000000 SUB DUP4 SLT PUSH1 0x0 DUP4 SLT AND ISZERO PUSH2 0x21FD JUMPI PUSH2 0x21FC PUSH2 0x24E6 JUMP JUMPDEST JUMPDEST DUP3 DUP3 ADD SWAP1 POP SWAP3 SWAP2 POP POP JUMP JUMPDEST PUSH1 0x0 PUSH2 0x2213 DUP3 PUSH2 0x242F JUMP JUMPDEST SWAP2 POP PUSH2 0x221E DUP4 PUSH2 0x242F JUMP JUMPDEST SWAP3 POP DUP3 PUSH2 0x222E JUMPI PUSH2 0x222D PUSH2 0x2515 JUMP JUMPDEST JUMPDEST PUSH1 0x1 PUSH1 0x0 SUB DUP4 EQ PUSH32 0x8000000000000000000000000000000000000000000000000000000000000000 DUP4 EQ AND ISZERO PUSH2 0x2267 JUMPI PUSH2 0x2266 PUSH2 0x24E6 JUMP JUMPDEST JUMPDEST DUP3 DUP3 SDIV SWAP1 POP SWAP3 SWAP2 POP POP JUMP JUMPDEST PUSH1 0x0 PUSH2 0x227D DUP3 PUSH2 0x242F JUMP JUMPDEST SWAP2 POP PUSH2 0x2288 DUP4 PUSH2 0x242F JUMP JUMPDEST SWAP3 POP DUP3 PUSH32 0x7FFFFFFFFFFFFFFFFFFFFFFFFFFFFFFFFFFFFFFFFFFFFFFFFFFFFFFFFFFFFFFF DIV DUP3 GT PUSH1 0x0 DUP5 SGT PUSH1 0x0 DUP5 SGT AND AND ISZERO PUSH2 0x22C7 JUMPI PUSH2 0x22C6 PUSH2 0x24E6 JUMP JUMPDEST JUMPDEST DUP2 PUSH32 0x8000000000000000000000000000000000000000000000000000000000000000 SDIV DUP4 SLT PUSH1 0x0 DUP5 SLT PUSH1 0x0 DUP5 SGT AND AND ISZERO PUSH2 0x2304 JUMPI PUSH2 0x2303 PUSH2 0x24E6 JUMP JUMPDEST JUMPDEST DUP3 PUSH32 0x8000000000000000000000000000000000000000000000000000000000000000 SDIV DUP3 SLT PUSH1 0x0 DUP5 SGT PUSH1 0x0 DUP5 SLT AND AND ISZERO PUSH2 0x2341 JUMPI PUSH2 0x2340 PUSH2 0x24E6 JUMP JUMPDEST JUMPDEST DUP3 PUSH32 0x7FFFFFFFFFFFFFFFFFFFFFFFFFFFFFFFFFFFFFFFFFFFFFFFFFFFFFFFFFFFFFFF SDIV DUP3 SLT PUSH1 0x0 DUP5 SLT PUSH1 0x0 DUP5 SLT AND AND ISZERO PUSH2 0x237E JUMPI PUSH2 0x237D PUSH2 0x24E6 JUMP JUMPDEST JUMPDEST DUP3 DUP3 MUL SWAP1 POP SWAP3 SWAP2 POP POP JUMP JUMPDEST PUSH1 0x0 PUSH2 0x2394 DUP3 PUSH2 0x242F JUMP JUMPDEST SWAP2 POP PUSH2 0x239F DUP4 PUSH2 0x242F JUMP JUMPDEST SWAP3 POP DUP3 PUSH32 0x8000000000000000000000000000000000000000000000000000000000000000 ADD DUP3 SLT PUSH1 0x0 DUP5 SLT ISZERO AND ISZERO PUSH2 0x23DA JUMPI PUSH2 0x23D9 PUSH2 0x24E6 JUMP JUMPDEST JUMPDEST DUP3 PUSH32 0x7FFFFFFFFFFFFFFFFFFFFFFFFFFFFFFFFFFFFFFFFFFFFFFFFFFFFFFFFFFFFFFF ADD DUP3 SGT PUSH1 0x0 DUP5 SLT AND ISZERO PUSH2 0x2412 JUMPI PUSH2 0x2411 PUSH2 0x24E6 JUMP JUMPDEST JUMPDEST DUP3 DUP3 SUB SWAP1 POP SWAP3 SWAP2 POP POP JUMP JUMPDEST PUSH1 0x0 PUSH2 0x2428 DUP3 PUSH2 0x2453 JUMP JUMPDEST SWAP1 POP SWAP2 SWAP1 POP JUMP JUMPDEST PUSH1 0x0 DUP2 SWAP1 POP SWAP2 SWAP1 POP JUMP JUMPDEST PUSH1 0x0 DUP2 PUSH1 0x3 SIGNEXTEND SWAP1 POP SWAP2 SWAP1 POP JUMP JUMPDEST PUSH1 0x0 DUP2 PUSH1 0x7 SIGNEXTEND SWAP1 POP SWAP2 SWAP1 POP JUMP JUMPDEST PUSH1 0x0 PUSH20 0xFFFFFFFFFFFFFFFFFFFFFFFFFFFFFFFFFFFFFFFF DUP3 AND SWAP1 POP SWAP2 SWAP1 POP JUMP JUMPDEST DUP3 DUP2 DUP4 CALLDATACOPY PUSH1 0x0 DUP4 DUP4 ADD MSTORE POP POP POP JUMP JUMPDEST PUSH1 0x0 JUMPDEST DUP4 DUP2 LT ISZERO PUSH2 0x24A0 JUMPI DUP1 DUP3 ADD MLOAD DUP2 DUP5 ADD MSTORE PUSH1 0x20 DUP2 ADD SWAP1 POP PUSH2 0x2485 JUMP JUMPDEST DUP4 DUP2 GT ISZERO PUSH2 0x24AF JUMPI PUSH1 0x0 DUP5 DUP5 ADD MSTORE JUMPDEST POP POP POP POP JUMP JUMPDEST PUSH2 0x24BE DUP3 PUSH2 0x2573 JUMP JUMPDEST DUP2 ADD DUP2 DUP2 LT PUSH8 0xFFFFFFFFFFFFFFFF DUP3 GT OR ISZERO PUSH2 0x24DD JUMPI PUSH2 0x24DC PUSH2 0x2544 JUMP JUMPDEST JUMPDEST DUP1 PUSH1 0x40 MSTORE POP POP POP JUMP JUMPDEST PUSH32 0x4E487B7100000000000000000000000000000000000000000000000000000000 PUSH1 0x0 MSTORE PUSH1 0x11 PUSH1 0x4 MSTORE PUSH1 0x24 PUSH1 0x0 REVERT JUMPDEST PUSH32 0x4E487B7100000000000000000000000000000000000000000000000000000000 PUSH1 0x0 MSTORE PUSH1 0x12 PUSH1 0x4 MSTORE PUSH1 0x24 PUSH1 0x0 REVERT JUMPDEST PUSH32 0x4E487B7100000000000000000000000000000000000000000000000000000000 PUSH1 0x0 MSTORE PUSH1 0x41 PUSH1 0x4 MSTORE PUSH1 0x24 PUSH1 0x0 REVERT JUMPDEST PUSH1 0x0 PUSH1 0x1F NOT PUSH1 0x1F DUP4 ADD AND SWAP1 POP SWAP2 SWAP1 POP JUMP JUMPDEST PUSH32 0x5472616E73666572206661696C65640000000000000000000000000000000000 PUSH1 0x0 DUP3 ADD MSTORE POP JUMP JUMPDEST PUSH32 0x4173736F6369617465206661696C656400000000000000000000000000000000 PUSH1 0x0 DUP3 ADD MSTORE POP JUMP JUMPDEST PUSH32 0x446973736F6369617465206661696C6564000000000000000000000000000000 PUSH1 0x0 DUP3 ADD MSTORE POP JUMP JUMPDEST PUSH2 0x2608 DUP2 PUSH2 0x241D JUMP JUMPDEST DUP2 EQ PUSH2 0x2613 JUMPI PUSH1 0x0 DUP1 REVERT JUMPDEST POP JUMP JUMPDEST PUSH2 0x261F DUP2 PUSH2 0x242F JUMP JUMPDEST DUP2 EQ PUSH2 0x262A JUMPI PUSH1 0x0 DUP1 REVERT JUMPDEST POP JUMP JUMPDEST PUSH2 0x2636 DUP2 PUSH2 0x2439 JUMP JUMPDEST DUP2 EQ PUSH2 0x2641 JUMPI PUSH1 0x0 DUP1 REVERT JUMPDEST POP JUMP JUMPDEST PUSH2 0x264D DUP2 PUSH2 0x2446 JUMP JUMPDEST DUP2 EQ PUSH2 0x2658 JUMPI PUSH1 0x0 DUP1 REVERT JUMPDEST POP JUMP INVALID LOG2 PUSH5 0x6970667358 0x22 SLT KECCAK256 0xDD BLOCKHASH 0x4B SWAP5 0x5C 0x1E 0xCE 0xAE PUSH15 0x7811B46FC7D6F9214D402512CA6092 SDIV 0x49 COINBASE 0xEF MSIZE PUSH19 0x5C9764736F6C63430008040033000000000000 "
        },
        "methodIdentifiers": {
          "deposit(string,int256)": "d898fe32",
          "getCurrentState()": "378aa701",
          "getFormulaVariableValue(string)": "cb04040a",
          "getPostSwapDetails(string,string,int256)": "1ceb689d",
          "getTokenDetail(string,string)": "12ca6ef3",
          "getWalletBalanceA()": "87b3d113",
          "getWalletBalanceB()": "26c9274d",
          "greetings()": "acb34ce8",
          "signup()": "b7bc0f73",
          "tokenAssociate(address,address)": "7f6314d0",
          "tokenDissociate(address,address)": "4753b51b",
          "tokenTransfer(address,address,address,int64)": "3a04033c",
          "withdrawal(string,int256)": "56d0b378"
        }
      }
    }
  }
}