{
	"data": {
		"bytecode": {
			"linkReferences": {},
			"object": "60806040523480156200001157600080fd5b506103e86005819055506101f4600681905550633b9aca0060078190555063773594006008819055506005546007546200004c9190620000b7565b600a81905550600654600854620000649190620000b7565b600b81905550600b54600a54146200007b57600080fd5b6006546008546200008d9190620000b7565b6005546007546200009f9190620000b7565b620000ab9190620000b7565b60098190555062000217565b6000620000c482620001de565b9150620000d183620001de565b9250827f7fffffffffffffffffffffffffffffffffffffffffffffffffffffffffffffff0482116000841360008413161615620001135762000112620001e8565b5b817f80000000000000000000000000000000000000000000000000000000000000000583126000841260008413161615620001535762000152620001e8565b5b827f80000000000000000000000000000000000000000000000000000000000000000582126000841360008412161615620001935762000192620001e8565b5b827f7fffffffffffffffffffffffffffffffffffffffffffffffffffffffffffffff0582126000841260008412161615620001d357620001d2620001e8565b5b828202905092915050565b6000819050919050565b7f4e487b7100000000000000000000000000000000000000000000000000000000600052601160045260246000fd5b6126e580620002276000396000f3fe608060405234801561001057600080fd5b50600436106100b45760003560e01c806356d0b3781161007157806356d0b378146101bf5780637f6314d0146101db57806387b3d1131461020b578063b7bc0f7314610229578063cb04040a14610233578063d898fe3214610263576100b4565b806312ca6ef3146100b95780631ceb689d146100e957806326c9274d1461011d578063378aa7011461013b5780633a04033c1461015f5780634753b51b1461018f575b600080fd5b6100d360048036038101906100ce9190611d21565b61027f565b6040516100e09190611f70565b60405180910390f35b61010360048036038101906100fe9190611d99565b610431565b604051610114959493929190611fb4565b60405180910390f35b610125610732565b6040516101329190611f70565b60405180910390f35b6101436107d2565b6040516101569796959493929190612007565b60405180910390f35b61017960048036038101906101749190611be8565b610809565b6040516101869190611f70565b60405180910390f35b6101a960048036038101906101a49190611ba8565b61086c565b6040516101b69190611f70565b60405180910390f35b6101d960048036038101906101d49190611cc5565b6108cb565b005b6101f560048036038101906101f09190611ba8565b610cce565b6040516102029190611f70565b60405180910390f35b610213610d2d565b6040516102209190611f70565b60405180910390f35b610231610dcd565b005b61024d60048036038101906102489190611c7c565b611008565b60405161025a9190611f70565b60405180910390f35b61027d60048036038101906102789190611cc5565b6111a8565b005b60006040518060400160405280600581526020017f7072696365000000000000000000000000000000000000000000000000000000815250805190602001208280519060200120148061031457506040518060400160405280600881526020017f7175616e74697479000000000000000000000000000000000000000000000000815250805190602001208280519060200120145b61031d57600080fd5b6103268361158d565b6040518060400160405280600681526020017f746f6b656e41000000000000000000000000000000000000000000000000000081525080519060200120838051906020012014156103d0576040518060400160405280600581526020017f707269636500000000000000000000000000000000000000000000000000000081525080519060200120828051906020012014156103c657600754905061042b565b600554905061042b565b6040518060400160405280600581526020017f7072696365000000000000000000000000000000000000000000000000000000815250805190602001208280519060200120141561042557600854905061042b565b60065490505b92915050565b60008060008060006040518060400160405280600781526020017f6465706f7369740000000000000000000000000000000000000000000000000081525080519060200120878051906020012014806104cc57506040518060400160405280600a81526020017f7769746864726177616c00000000000000000000000000000000000000000000815250805190602001208780519060200120145b6104d557600080fd5b6104de8861158d565b60008612156104ec57600080fd5b6040518060400160405280600781526020017f6465706f736974000000000000000000000000000000000000000000000000008152508051906020012087805190602001201415610621576040518060400160405280600681526020017f746f6b656e41000000000000000000000000000000000000000000000000000081525080519060200120888051906020012014156105d157856005546105909190612153565b9450600854600754866105a39190612251565b6105ad9190612251565b6009546105ba91906121e7565b9350836006546105ca9190612368565b905061061c565b856006546105df9190612153565b9350600754600854856105f29190612251565b6105fc9190612251565b60095461060991906121e7565b9450846005546106199190612368565b90505b610707565b6040518060400160405280600681526020017f746f6b656e41000000000000000000000000000000000000000000000000000081525080519060200120888051906020012014156106bb578560055461067a9190612368565b94506008546007548661068d9190612251565b6106979190612251565b6009546106a491906121e7565b9350600654846106b49190612368565b9050610706565b856006546106c99190612368565b9350600754600854856106dc9190612251565b6106e69190612251565b6009546106f391906121e7565b9450600554856107039190612368565b90505b5b84600a5461071591906121e7565b925083600b5461072591906121e7565b9150939792965093509350565b6000600260003373ffffffffffffffffffffffffffffffffffffffff1673ffffffffffffffffffffffffffffffffffffffff16815260200190815260200160002060009054906101000a900460ff1661078a57600080fd5b600360003373ffffffffffffffffffffffffffffffffffffffff1673ffffffffffffffffffffffffffffffffffffffff16815260200190815260200160002060010154905090565b6000806000806000806000600554600654600754600854600954600a54600b54965096509650965096509650965090919293949596565b6000806108188686868661162c565b9050601660030b8114610860576040517f08c379a000000000000000000000000000000000000000000000000000000000815260040161085790612076565b60405180910390fd5b80915050949350505050565b600080610879848461174a565b9050601660030b81146108c1576040517f08c379a00000000000000000000000000000000000000000000000000000000081526004016108b8906120b6565b60405180910390fd5b8091505092915050565b600260003373ffffffffffffffffffffffffffffffffffffffff1673ffffffffffffffffffffffffffffffffffffffff16815260200190815260200160002060009054906101000a900460ff1661092157600080fd5b61092a8261158d565b6040518060400160405280600681526020017f746f6b656e41000000000000000000000000000000000000000000000000000081525080519060200120828051906020012014156109895780600554121561098457600080fd5b610999565b80600654121561099857600080fd5b5b60008060008060006109e1876040518060400160405280600a81526020017f7769746864726177616c0000000000000000000000000000000000000000000081525088610431565b94509450945094509450600085136109f857600080fd5b60008413610a0557600080fd5b60008313610a1257600080fd5b60008213610a1f57600080fd5b6040518060400160405280600681526020017f746f6b656e4100000000000000000000000000000000000000000000000000008152508051906020012087805190602001201415610b705780600360003373ffffffffffffffffffffffffffffffffffffffff1673ffffffffffffffffffffffffffffffffffffffff168152602001908152602001600020600101541215610ab957600080fd5b80600360003373ffffffffffffffffffffffffffffffffffffffff1673ffffffffffffffffffffffffffffffffffffffff1681526020019081526020016000206001016000828254610b0b9190612368565b9250508190555085600360003373ffffffffffffffffffffffffffffffffffffffff1673ffffffffffffffffffffffffffffffffffffffff1681526020019081526020016000206000016000828254610b649190612153565b92505081905550610c72565b80600360003373ffffffffffffffffffffffffffffffffffffffff1673ffffffffffffffffffffffffffffffffffffffff168152602001908152602001600020600001541215610bbf57600080fd5b80600360003373ffffffffffffffffffffffffffffffffffffffff1673ffffffffffffffffffffffffffffffffffffffff1681526020019081526020016000206000016000828254610c119190612368565b9250508190555085600360003373ffffffffffffffffffffffffffffffffffffffff1673ffffffffffffffffffffffffffffffffffffffff1681526020019081526020016000206001016000828254610c6a9190612153565b925050819055505b846005819055508360068190555082600781905550816008819055507f09f6d6c156080917dd4eb3faa52c09b5ef538b97a7406838fb175391b9e8138381604051610cbd9190611f70565b60405180910390a150505050505050565b600080610cdb8484611862565b9050601660030b8114610d23576040517f08c379a0000000000000000000000000000000000000000000000000000000008152600401610d1a90612096565b60405180910390fd5b8091505092915050565b6000600260003373ffffffffffffffffffffffffffffffffffffffff1673ffffffffffffffffffffffffffffffffffffffff16815260200190815260200160002060009054906101000a900460ff16610d8557600080fd5b600360003373ffffffffffffffffffffffffffffffffffffffff1673ffffffffffffffffffffffffffffffffffffffff16815260200190815260200160002060000154905090565b600260003373ffffffffffffffffffffffffffffffffffffffff1673ffffffffffffffffffffffffffffffffffffffff16815260200190815260200160002060009054906101000a900460ff1615610e2457600080fd5b6103e8600360003373ffffffffffffffffffffffffffffffffffffffff1673ffffffffffffffffffffffffffffffffffffffff1681526020019081526020016000206000016000828254610e789190612153565b925050819055506103e8600360003373ffffffffffffffffffffffffffffffffffffffff1673ffffffffffffffffffffffffffffffffffffffff1681526020019081526020016000206001016000828254610ed39190612153565b925050819055506001600260003373ffffffffffffffffffffffffffffffffffffffff1673ffffffffffffffffffffffffffffffffffffffff16815260200190815260200160002060006101000a81548160ff0219169083151502179055503373ffffffffffffffffffffffffffffffffffffffff167f500201dd509e994c0e890b017f78b50955f36d83d2acbb63c9e747547b799cac600360003373ffffffffffffffffffffffffffffffffffffffff1673ffffffffffffffffffffffffffffffffffffffff16815260200190815260200160002060000154600360003373ffffffffffffffffffffffffffffffffffffffff1673ffffffffffffffffffffffffffffffffffffffff16815260200190815260200160002060010154604051610ffe929190611f8b565b60405180910390a2565b60006040518060400160405280600181526020017f7800000000000000000000000000000000000000000000000000000000000000815250805190602001208280519060200120148061109d57506040518060400160405280600181526020017f7900000000000000000000000000000000000000000000000000000000000000815250805190602001208280519060200120145b806110ea57506040518060400160405280600181526020017f6b00000000000000000000000000000000000000000000000000000000000000815250805190602001208280519060200120145b6110f357600080fd5b6040518060400160405280600181526020017f7800000000000000000000000000000000000000000000000000000000000000815250805190602001208280519060200120141561114857600a5490506111a3565b6040518060400160405280600181526020017f7900000000000000000000000000000000000000000000000000000000000000815250805190602001208280519060200120141561119d57600b5490506111a3565b60095490505b919050565b600260003373ffffffffffffffffffffffffffffffffffffffff1673ffffffffffffffffffffffffffffffffffffffff16815260200190815260200160002060009054906101000a900460ff166111fe57600080fd5b6112078261158d565b6040518060400160405280600681526020017f746f6b656e41000000000000000000000000000000000000000000000000000081525080519060200120828051906020012014156112a65780600360003373ffffffffffffffffffffffffffffffffffffffff1673ffffffffffffffffffffffffffffffffffffffff1681526020019081526020016000206000015412156112a157600080fd5b6112f6565b80600360003373ffffffffffffffffffffffffffffffffffffffff1673ffffffffffffffffffffffffffffffffffffffff1681526020019081526020016000206001015412156112f557600080fd5b5b600080600080600061133e876040518060400160405280600781526020017f6465706f7369740000000000000000000000000000000000000000000000000081525088610431565b945094509450945094506000851361135557600080fd5b6000841361136257600080fd5b6000831361136f57600080fd5b6000821361137c57600080fd5b6040518060400160405280600681526020017f746f6b656e410000000000000000000000000000000000000000000000000000815250805190602001208780519060200120141561147e5785600360003373ffffffffffffffffffffffffffffffffffffffff1673ffffffffffffffffffffffffffffffffffffffff16815260200190815260200160002060000160008282546114199190612368565b9250508190555080600360003373ffffffffffffffffffffffffffffffffffffffff1673ffffffffffffffffffffffffffffffffffffffff16815260200190815260200160002060010160008282546114729190612153565b92505081905550611531565b85600360003373ffffffffffffffffffffffffffffffffffffffff1673ffffffffffffffffffffffffffffffffffffffff16815260200190815260200160002060010160008282546114d09190612368565b9250508190555080600360003373ffffffffffffffffffffffffffffffffffffffff1673ffffffffffffffffffffffffffffffffffffffff16815260200190815260200160002060000160008282546115299190612153565b925050819055505b846005819055508360068190555082600781905550816008819055507fbc6e679f8b1549497ecf3e87d44b1b69461a370197d72d0e0b663ea343108f438160405161157c9190611f70565b60405180910390a150505050505050565b6040518060400160405280600681526020017f746f6b656e410000000000000000000000000000000000000000000000000000815250805190602001208180519060200120148061162057506040518060400160405280600681526020017f746f6b656e420000000000000000000000000000000000000000000000000000815250805190602001208180519060200120145b61162957600080fd5b50565b600080600061016773ffffffffffffffffffffffffffffffffffffffff1663eca3691760e01b888888886040516024016116699493929190611f2b565b604051602081830303815290604052907bffffffffffffffffffffffffffffffffffffffffffffffffffffffff19166020820180517bffffffffffffffffffffffffffffffffffffffffffffffffffffffff83818316178352505050506040516116d39190611eeb565b6000604051808303816000865af19150503d8060008114611710576040519150601f19603f3d011682016040523d82523d6000602084013e611715565b606091505b50915091508161172657601561173b565b8080602001905181019061173a9190611c4f565b5b60030b92505050949350505050565b600080600061016773ffffffffffffffffffffffffffffffffffffffff1663099794e860e01b8686604051602401611783929190611f02565b604051602081830303815290604052907bffffffffffffffffffffffffffffffffffffffffffffffffffffffff19166020820180517bffffffffffffffffffffffffffffffffffffffffffffffffffffffff83818316178352505050506040516117ed9190611eeb565b6000604051808303816000865af19150503d806000811461182a576040519150601f19603f3d011682016040523d82523d6000602084013e61182f565b606091505b509150915081611840576015611855565b808060200190518101906118549190611c4f565b5b60030b9250505092915050565b600061016773ffffffffffffffffffffffffffffffffffffffff166349146bde60e01b8484604051602401611898929190611f02565b604051602081830303815290604052907bffffffffffffffffffffffffffffffffffffffffffffffffffffffff19166020820180517bffffffffffffffffffffffffffffffffffffffffffffffffffffffff83818316178352505050506040516119029190611eeb565b6000604051808303816000865af19150503d806000811461193f576040519150601f19603f3d011682016040523d82523d6000602084013e611944565b606091505b5060008060016000849190509080519060200190611963929190611a41565b508391906101000a81548160ff021916908315150217905550505060008054906101000a900460ff16611997576015611a36565b600180546119a490612494565b80601f01602080910402602001604051908101604052809291908181526020018280546119d090612494565b8015611a1d5780601f106119f257610100808354040283529160200191611a1d565b820191906000526020600020905b815481529060010190602001808311611a0057829003601f168201915b5050505050806020019051810190611a359190611c4f565b5b60030b905092915050565b828054611a4d90612494565b90600052602060002090601f016020900481019282611a6f5760008555611ab6565b82601f10611a8857805160ff1916838001178555611ab6565b82800160010185558215611ab6579182015b82811115611ab5578251825591602001919060010190611a9a565b5b509050611ac39190611ac7565b5090565b5b80821115611ae0576000816000905550600101611ac8565b5090565b6000611af7611af2846120fb565b6120d6565b905082815260208101848484011115611b1357611b126125b8565b5b611b1e848285612452565b509392505050565b600081359050611b3581612653565b92915050565b600081359050611b4a8161266a565b92915050565b600081519050611b5f81612681565b92915050565b600081359050611b7481612698565b92915050565b600082601f830112611b8f57611b8e6125b3565b5b8135611b9f848260208601611ae4565b91505092915050565b60008060408385031215611bbf57611bbe6125c2565b5b6000611bcd85828601611b26565b9250506020611bde85828601611b26565b9150509250929050565b60008060008060808587031215611c0257611c016125c2565b5b6000611c1087828801611b26565b9450506020611c2187828801611b26565b9350506040611c3287828801611b26565b9250506060611c4387828801611b65565b91505092959194509250565b600060208284031215611c6557611c646125c2565b5b6000611c7384828501611b50565b91505092915050565b600060208284031215611c9257611c916125c2565b5b600082013567ffffffffffffffff811115611cb057611caf6125bd565b5b611cbc84828501611b7a565b91505092915050565b60008060408385031215611cdc57611cdb6125c2565b5b600083013567ffffffffffffffff811115611cfa57611cf96125bd565b5b611d0685828601611b7a565b9250506020611d1785828601611b3b565b9150509250929050565b60008060408385031215611d3857611d376125c2565b5b600083013567ffffffffffffffff811115611d5657611d556125bd565b5b611d6285828601611b7a565b925050602083013567ffffffffffffffff811115611d8357611d826125bd565b5b611d8f85828601611b7a565b9150509250929050565b600080600060608486031215611db257611db16125c2565b5b600084013567ffffffffffffffff811115611dd057611dcf6125bd565b5b611ddc86828701611b7a565b935050602084013567ffffffffffffffff811115611dfd57611dfc6125bd565b5b611e0986828701611b7a565b9250506040611e1a86828701611b3b565b9150509250925092565b611e2d816123fc565b82525050565b6000611e3e8261212c565b611e488185612137565b9350611e58818560208601612461565b80840191505092915050565b611e6d8161240e565b82525050565b611e7c81612425565b82525050565b6000611e8f600f83612142565b9150611e9a826125d8565b602082019050919050565b6000611eb2601083612142565b9150611ebd82612601565b602082019050919050565b6000611ed5601183612142565b9150611ee08261262a565b602082019050919050565b6000611ef78284611e33565b915081905092915050565b6000604082019050611f176000830185611e24565b611f246020830184611e24565b9392505050565b6000608082019050611f406000830187611e24565b611f4d6020830186611e24565b611f5a6040830185611e24565b611f676060830184611e73565b95945050505050565b6000602082019050611f856000830184611e64565b92915050565b6000604082019050611fa06000830185611e64565b611fad6020830184611e64565b9392505050565b600060a082019050611fc96000830188611e64565b611fd66020830187611e64565b611fe36040830186611e64565b611ff06060830185611e64565b611ffd6080830184611e64565b9695505050505050565b600060e08201905061201c600083018a611e64565b6120296020830189611e64565b6120366040830188611e64565b6120436060830187611e64565b6120506080830186611e64565b61205d60a0830185611e64565b61206a60c0830184611e64565b98975050505050505050565b6000602082019050818103600083015261208f81611e82565b9050919050565b600060208201905081810360008301526120af81611ea5565b9050919050565b600060208201905081810360008301526120cf81611ec8565b9050919050565b60006120e06120f1565b90506120ec82826124c6565b919050565b6000604051905090565b600067ffffffffffffffff82111561211657612115612584565b5b61211f826125c7565b9050602081019050919050565b600081519050919050565b600081905092915050565b600082825260208201905092915050565b600061215e8261240e565b91506121698361240e565b9250817f7fffffffffffffffffffffffffffffffffffffffffffffffffffffffffffffff038313600083121516156121a4576121a36124f7565b5b817f80000000000000000000000000000000000000000000000000000000000000000383126000831216156121dc576121db6124f7565b5b828201905092915050565b60006121f28261240e565b91506121fd8361240e565b92508261220d5761220c612526565b5b600160000383147f800000000000000000000000000000000000000000000000000000000000000083141615612246576122456124f7565b5b828205905092915050565b600061225c8261240e565b91506122678361240e565b9250827f7fffffffffffffffffffffffffffffffffffffffffffffffffffffffffffffff04821160008413600084131616156122a6576122a56124f7565b5b817f800000000000000000000000000000000000000000000000000000000000000005831260008412600084131616156122e3576122e26124f7565b5b827f800000000000000000000000000000000000000000000000000000000000000005821260008413600084121616156123205761231f6124f7565b5b827f7fffffffffffffffffffffffffffffffffffffffffffffffffffffffffffffff058212600084126000841216161561235d5761235c6124f7565b5b828202905092915050565b60006123738261240e565b915061237e8361240e565b9250827f8000000000000000000000000000000000000000000000000000000000000000018212600084121516156123b9576123b86124f7565b5b827f7fffffffffffffffffffffffffffffffffffffffffffffffffffffffffffffff0182136000841216156123f1576123f06124f7565b5b828203905092915050565b600061240782612432565b9050919050565b6000819050919050565b60008160030b9050919050565b60008160070b9050919050565b600073ffffffffffffffffffffffffffffffffffffffff82169050919050565b82818337600083830152505050565b60005b8381101561247f578082015181840152602081019050612464565b8381111561248e576000848401525b50505050565b600060028204905060018216806124ac57607f821691505b602082108114156124c0576124bf612555565b5b50919050565b6124cf826125c7565b810181811067ffffffffffffffff821117156124ee576124ed612584565b5b80604052505050565b7f4e487b7100000000000000000000000000000000000000000000000000000000600052601160045260246000fd5b7f4e487b7100000000000000000000000000000000000000000000000000000000600052601260045260246000fd5b7f4e487b7100000000000000000000000000000000000000000000000000000000600052602260045260246000fd5b7f4e487b7100000000000000000000000000000000000000000000000000000000600052604160045260246000fd5b600080fd5b600080fd5b600080fd5b600080fd5b6000601f19601f8301169050919050565b7f5472616e73666572206661696c65640000000000000000000000000000000000600082015250565b7f4173736f6369617465206661696c656400000000000000000000000000000000600082015250565b7f446973736f6369617465206661696c6564000000000000000000000000000000600082015250565b61265c816123fc565b811461266757600080fd5b50565b6126738161240e565b811461267e57600080fd5b50565b61268a81612418565b811461269557600080fd5b50565b6126a181612425565b81146126ac57600080fd5b5056fea26469706673582212201317a66b24bd0e4b4b4578260951675cf12e531c138836c74d49be06a0b099f064736f6c63430008070033",
			"opcodes": "PUSH1 0x80 PUSH1 0x40 MSTORE CALLVALUE DUP1 ISZERO PUSH3 0x11 JUMPI PUSH1 0x0 DUP1 REVERT JUMPDEST POP PUSH2 0x3E8 PUSH1 0x5 DUP2 SWAP1 SSTORE POP PUSH2 0x1F4 PUSH1 0x6 DUP2 SWAP1 SSTORE POP PUSH4 0x3B9ACA00 PUSH1 0x7 DUP2 SWAP1 SSTORE POP PUSH4 0x77359400 PUSH1 0x8 DUP2 SWAP1 SSTORE POP PUSH1 0x5 SLOAD PUSH1 0x7 SLOAD PUSH3 0x4C SWAP2 SWAP1 PUSH3 0xB7 JUMP JUMPDEST PUSH1 0xA DUP2 SWAP1 SSTORE POP PUSH1 0x6 SLOAD PUSH1 0x8 SLOAD PUSH3 0x64 SWAP2 SWAP1 PUSH3 0xB7 JUMP JUMPDEST PUSH1 0xB DUP2 SWAP1 SSTORE POP PUSH1 0xB SLOAD PUSH1 0xA SLOAD EQ PUSH3 0x7B JUMPI PUSH1 0x0 DUP1 REVERT JUMPDEST PUSH1 0x6 SLOAD PUSH1 0x8 SLOAD PUSH3 0x8D SWAP2 SWAP1 PUSH3 0xB7 JUMP JUMPDEST PUSH1 0x5 SLOAD PUSH1 0x7 SLOAD PUSH3 0x9F SWAP2 SWAP1 PUSH3 0xB7 JUMP JUMPDEST PUSH3 0xAB SWAP2 SWAP1 PUSH3 0xB7 JUMP JUMPDEST PUSH1 0x9 DUP2 SWAP1 SSTORE POP PUSH3 0x217 JUMP JUMPDEST PUSH1 0x0 PUSH3 0xC4 DUP3 PUSH3 0x1DE JUMP JUMPDEST SWAP2 POP PUSH3 0xD1 DUP4 PUSH3 0x1DE JUMP JUMPDEST SWAP3 POP DUP3 PUSH32 0x7FFFFFFFFFFFFFFFFFFFFFFFFFFFFFFFFFFFFFFFFFFFFFFFFFFFFFFFFFFFFFFF DIV DUP3 GT PUSH1 0x0 DUP5 SGT PUSH1 0x0 DUP5 SGT AND AND ISZERO PUSH3 0x113 JUMPI PUSH3 0x112 PUSH3 0x1E8 JUMP JUMPDEST JUMPDEST DUP2 PUSH32 0x8000000000000000000000000000000000000000000000000000000000000000 SDIV DUP4 SLT PUSH1 0x0 DUP5 SLT PUSH1 0x0 DUP5 SGT AND AND ISZERO PUSH3 0x153 JUMPI PUSH3 0x152 PUSH3 0x1E8 JUMP JUMPDEST JUMPDEST DUP3 PUSH32 0x8000000000000000000000000000000000000000000000000000000000000000 SDIV DUP3 SLT PUSH1 0x0 DUP5 SGT PUSH1 0x0 DUP5 SLT AND AND ISZERO PUSH3 0x193 JUMPI PUSH3 0x192 PUSH3 0x1E8 JUMP JUMPDEST JUMPDEST DUP3 PUSH32 0x7FFFFFFFFFFFFFFFFFFFFFFFFFFFFFFFFFFFFFFFFFFFFFFFFFFFFFFFFFFFFFFF SDIV DUP3 SLT PUSH1 0x0 DUP5 SLT PUSH1 0x0 DUP5 SLT AND AND ISZERO PUSH3 0x1D3 JUMPI PUSH3 0x1D2 PUSH3 0x1E8 JUMP JUMPDEST JUMPDEST DUP3 DUP3 MUL SWAP1 POP SWAP3 SWAP2 POP POP JUMP JUMPDEST PUSH1 0x0 DUP2 SWAP1 POP SWAP2 SWAP1 POP JUMP JUMPDEST PUSH32 0x4E487B7100000000000000000000000000000000000000000000000000000000 PUSH1 0x0 MSTORE PUSH1 0x11 PUSH1 0x4 MSTORE PUSH1 0x24 PUSH1 0x0 REVERT JUMPDEST PUSH2 0x26E5 DUP1 PUSH3 0x227 PUSH1 0x0 CODECOPY PUSH1 0x0 RETURN INVALID PUSH1 0x80 PUSH1 0x40 MSTORE CALLVALUE DUP1 ISZERO PUSH2 0x10 JUMPI PUSH1 0x0 DUP1 REVERT JUMPDEST POP PUSH1 0x4 CALLDATASIZE LT PUSH2 0xB4 JUMPI PUSH1 0x0 CALLDATALOAD PUSH1 0xE0 SHR DUP1 PUSH4 0x56D0B378 GT PUSH2 0x71 JUMPI DUP1 PUSH4 0x56D0B378 EQ PUSH2 0x1BF JUMPI DUP1 PUSH4 0x7F6314D0 EQ PUSH2 0x1DB JUMPI DUP1 PUSH4 0x87B3D113 EQ PUSH2 0x20B JUMPI DUP1 PUSH4 0xB7BC0F73 EQ PUSH2 0x229 JUMPI DUP1 PUSH4 0xCB04040A EQ PUSH2 0x233 JUMPI DUP1 PUSH4 0xD898FE32 EQ PUSH2 0x263 JUMPI PUSH2 0xB4 JUMP JUMPDEST DUP1 PUSH4 0x12CA6EF3 EQ PUSH2 0xB9 JUMPI DUP1 PUSH4 0x1CEB689D EQ PUSH2 0xE9 JUMPI DUP1 PUSH4 0x26C9274D EQ PUSH2 0x11D JUMPI DUP1 PUSH4 0x378AA701 EQ PUSH2 0x13B JUMPI DUP1 PUSH4 0x3A04033C EQ PUSH2 0x15F JUMPI DUP1 PUSH4 0x4753B51B EQ PUSH2 0x18F JUMPI JUMPDEST PUSH1 0x0 DUP1 REVERT JUMPDEST PUSH2 0xD3 PUSH1 0x4 DUP1 CALLDATASIZE SUB DUP2 ADD SWAP1 PUSH2 0xCE SWAP2 SWAP1 PUSH2 0x1D21 JUMP JUMPDEST PUSH2 0x27F JUMP JUMPDEST PUSH1 0x40 MLOAD PUSH2 0xE0 SWAP2 SWAP1 PUSH2 0x1F70 JUMP JUMPDEST PUSH1 0x40 MLOAD DUP1 SWAP2 SUB SWAP1 RETURN JUMPDEST PUSH2 0x103 PUSH1 0x4 DUP1 CALLDATASIZE SUB DUP2 ADD SWAP1 PUSH2 0xFE SWAP2 SWAP1 PUSH2 0x1D99 JUMP JUMPDEST PUSH2 0x431 JUMP JUMPDEST PUSH1 0x40 MLOAD PUSH2 0x114 SWAP6 SWAP5 SWAP4 SWAP3 SWAP2 SWAP1 PUSH2 0x1FB4 JUMP JUMPDEST PUSH1 0x40 MLOAD DUP1 SWAP2 SUB SWAP1 RETURN JUMPDEST PUSH2 0x125 PUSH2 0x732 JUMP JUMPDEST PUSH1 0x40 MLOAD PUSH2 0x132 SWAP2 SWAP1 PUSH2 0x1F70 JUMP JUMPDEST PUSH1 0x40 MLOAD DUP1 SWAP2 SUB SWAP1 RETURN JUMPDEST PUSH2 0x143 PUSH2 0x7D2 JUMP JUMPDEST PUSH1 0x40 MLOAD PUSH2 0x156 SWAP8 SWAP7 SWAP6 SWAP5 SWAP4 SWAP3 SWAP2 SWAP1 PUSH2 0x2007 JUMP JUMPDEST PUSH1 0x40 MLOAD DUP1 SWAP2 SUB SWAP1 RETURN JUMPDEST PUSH2 0x179 PUSH1 0x4 DUP1 CALLDATASIZE SUB DUP2 ADD SWAP1 PUSH2 0x174 SWAP2 SWAP1 PUSH2 0x1BE8 JUMP JUMPDEST PUSH2 0x809 JUMP JUMPDEST PUSH1 0x40 MLOAD PUSH2 0x186 SWAP2 SWAP1 PUSH2 0x1F70 JUMP JUMPDEST PUSH1 0x40 MLOAD DUP1 SWAP2 SUB SWAP1 RETURN JUMPDEST PUSH2 0x1A9 PUSH1 0x4 DUP1 CALLDATASIZE SUB DUP2 ADD SWAP1 PUSH2 0x1A4 SWAP2 SWAP1 PUSH2 0x1BA8 JUMP JUMPDEST PUSH2 0x86C JUMP JUMPDEST PUSH1 0x40 MLOAD PUSH2 0x1B6 SWAP2 SWAP1 PUSH2 0x1F70 JUMP JUMPDEST PUSH1 0x40 MLOAD DUP1 SWAP2 SUB SWAP1 RETURN JUMPDEST PUSH2 0x1D9 PUSH1 0x4 DUP1 CALLDATASIZE SUB DUP2 ADD SWAP1 PUSH2 0x1D4 SWAP2 SWAP1 PUSH2 0x1CC5 JUMP JUMPDEST PUSH2 0x8CB JUMP JUMPDEST STOP JUMPDEST PUSH2 0x1F5 PUSH1 0x4 DUP1 CALLDATASIZE SUB DUP2 ADD SWAP1 PUSH2 0x1F0 SWAP2 SWAP1 PUSH2 0x1BA8 JUMP JUMPDEST PUSH2 0xCCE JUMP JUMPDEST PUSH1 0x40 MLOAD PUSH2 0x202 SWAP2 SWAP1 PUSH2 0x1F70 JUMP JUMPDEST PUSH1 0x40 MLOAD DUP1 SWAP2 SUB SWAP1 RETURN JUMPDEST PUSH2 0x213 PUSH2 0xD2D JUMP JUMPDEST PUSH1 0x40 MLOAD PUSH2 0x220 SWAP2 SWAP1 PUSH2 0x1F70 JUMP JUMPDEST PUSH1 0x40 MLOAD DUP1 SWAP2 SUB SWAP1 RETURN JUMPDEST PUSH2 0x231 PUSH2 0xDCD JUMP JUMPDEST STOP JUMPDEST PUSH2 0x24D PUSH1 0x4 DUP1 CALLDATASIZE SUB DUP2 ADD SWAP1 PUSH2 0x248 SWAP2 SWAP1 PUSH2 0x1C7C JUMP JUMPDEST PUSH2 0x1008 JUMP JUMPDEST PUSH1 0x40 MLOAD PUSH2 0x25A SWAP2 SWAP1 PUSH2 0x1F70 JUMP JUMPDEST PUSH1 0x40 MLOAD DUP1 SWAP2 SUB SWAP1 RETURN JUMPDEST PUSH2 0x27D PUSH1 0x4 DUP1 CALLDATASIZE SUB DUP2 ADD SWAP1 PUSH2 0x278 SWAP2 SWAP1 PUSH2 0x1CC5 JUMP JUMPDEST PUSH2 0x11A8 JUMP JUMPDEST STOP JUMPDEST PUSH1 0x0 PUSH1 0x40 MLOAD DUP1 PUSH1 0x40 ADD PUSH1 0x40 MSTORE DUP1 PUSH1 0x5 DUP2 MSTORE PUSH1 0x20 ADD PUSH32 0x7072696365000000000000000000000000000000000000000000000000000000 DUP2 MSTORE POP DUP1 MLOAD SWAP1 PUSH1 0x20 ADD KECCAK256 DUP3 DUP1 MLOAD SWAP1 PUSH1 0x20 ADD KECCAK256 EQ DUP1 PUSH2 0x314 JUMPI POP PUSH1 0x40 MLOAD DUP1 PUSH1 0x40 ADD PUSH1 0x40 MSTORE DUP1 PUSH1 0x8 DUP2 MSTORE PUSH1 0x20 ADD PUSH32 0x7175616E74697479000000000000000000000000000000000000000000000000 DUP2 MSTORE POP DUP1 MLOAD SWAP1 PUSH1 0x20 ADD KECCAK256 DUP3 DUP1 MLOAD SWAP1 PUSH1 0x20 ADD KECCAK256 EQ JUMPDEST PUSH2 0x31D JUMPI PUSH1 0x0 DUP1 REVERT JUMPDEST PUSH2 0x326 DUP4 PUSH2 0x158D JUMP JUMPDEST PUSH1 0x40 MLOAD DUP1 PUSH1 0x40 ADD PUSH1 0x40 MSTORE DUP1 PUSH1 0x6 DUP2 MSTORE PUSH1 0x20 ADD PUSH32 0x746F6B656E410000000000000000000000000000000000000000000000000000 DUP2 MSTORE POP DUP1 MLOAD SWAP1 PUSH1 0x20 ADD KECCAK256 DUP4 DUP1 MLOAD SWAP1 PUSH1 0x20 ADD KECCAK256 EQ ISZERO PUSH2 0x3D0 JUMPI PUSH1 0x40 MLOAD DUP1 PUSH1 0x40 ADD PUSH1 0x40 MSTORE DUP1 PUSH1 0x5 DUP2 MSTORE PUSH1 0x20 ADD PUSH32 0x7072696365000000000000000000000000000000000000000000000000000000 DUP2 MSTORE POP DUP1 MLOAD SWAP1 PUSH1 0x20 ADD KECCAK256 DUP3 DUP1 MLOAD SWAP1 PUSH1 0x20 ADD KECCAK256 EQ ISZERO PUSH2 0x3C6 JUMPI PUSH1 0x7 SLOAD SWAP1 POP PUSH2 0x42B JUMP JUMPDEST PUSH1 0x5 SLOAD SWAP1 POP PUSH2 0x42B JUMP JUMPDEST PUSH1 0x40 MLOAD DUP1 PUSH1 0x40 ADD PUSH1 0x40 MSTORE DUP1 PUSH1 0x5 DUP2 MSTORE PUSH1 0x20 ADD PUSH32 0x7072696365000000000000000000000000000000000000000000000000000000 DUP2 MSTORE POP DUP1 MLOAD SWAP1 PUSH1 0x20 ADD KECCAK256 DUP3 DUP1 MLOAD SWAP1 PUSH1 0x20 ADD KECCAK256 EQ ISZERO PUSH2 0x425 JUMPI PUSH1 0x8 SLOAD SWAP1 POP PUSH2 0x42B JUMP JUMPDEST PUSH1 0x6 SLOAD SWAP1 POP JUMPDEST SWAP3 SWAP2 POP POP JUMP JUMPDEST PUSH1 0x0 DUP1 PUSH1 0x0 DUP1 PUSH1 0x0 PUSH1 0x40 MLOAD DUP1 PUSH1 0x40 ADD PUSH1 0x40 MSTORE DUP1 PUSH1 0x7 DUP2 MSTORE PUSH1 0x20 ADD PUSH32 0x6465706F73697400000000000000000000000000000000000000000000000000 DUP2 MSTORE POP DUP1 MLOAD SWAP1 PUSH1 0x20 ADD KECCAK256 DUP8 DUP1 MLOAD SWAP1 PUSH1 0x20 ADD KECCAK256 EQ DUP1 PUSH2 0x4CC JUMPI POP PUSH1 0x40 MLOAD DUP1 PUSH1 0x40 ADD PUSH1 0x40 MSTORE DUP1 PUSH1 0xA DUP2 MSTORE PUSH1 0x20 ADD PUSH32 0x7769746864726177616C00000000000000000000000000000000000000000000 DUP2 MSTORE POP DUP1 MLOAD SWAP1 PUSH1 0x20 ADD KECCAK256 DUP8 DUP1 MLOAD SWAP1 PUSH1 0x20 ADD KECCAK256 EQ JUMPDEST PUSH2 0x4D5 JUMPI PUSH1 0x0 DUP1 REVERT JUMPDEST PUSH2 0x4DE DUP9 PUSH2 0x158D JUMP JUMPDEST PUSH1 0x0 DUP7 SLT ISZERO PUSH2 0x4EC JUMPI PUSH1 0x0 DUP1 REVERT JUMPDEST PUSH1 0x40 MLOAD DUP1 PUSH1 0x40 ADD PUSH1 0x40 MSTORE DUP1 PUSH1 0x7 DUP2 MSTORE PUSH1 0x20 ADD PUSH32 0x6465706F73697400000000000000000000000000000000000000000000000000 DUP2 MSTORE POP DUP1 MLOAD SWAP1 PUSH1 0x20 ADD KECCAK256 DUP8 DUP1 MLOAD SWAP1 PUSH1 0x20 ADD KECCAK256 EQ ISZERO PUSH2 0x621 JUMPI PUSH1 0x40 MLOAD DUP1 PUSH1 0x40 ADD PUSH1 0x40 MSTORE DUP1 PUSH1 0x6 DUP2 MSTORE PUSH1 0x20 ADD PUSH32 0x746F6B656E410000000000000000000000000000000000000000000000000000 DUP2 MSTORE POP DUP1 MLOAD SWAP1 PUSH1 0x20 ADD KECCAK256 DUP9 DUP1 MLOAD SWAP1 PUSH1 0x20 ADD KECCAK256 EQ ISZERO PUSH2 0x5D1 JUMPI DUP6 PUSH1 0x5 SLOAD PUSH2 0x590 SWAP2 SWAP1 PUSH2 0x2153 JUMP JUMPDEST SWAP5 POP PUSH1 0x8 SLOAD PUSH1 0x7 SLOAD DUP7 PUSH2 0x5A3 SWAP2 SWAP1 PUSH2 0x2251 JUMP JUMPDEST PUSH2 0x5AD SWAP2 SWAP1 PUSH2 0x2251 JUMP JUMPDEST PUSH1 0x9 SLOAD PUSH2 0x5BA SWAP2 SWAP1 PUSH2 0x21E7 JUMP JUMPDEST SWAP4 POP DUP4 PUSH1 0x6 SLOAD PUSH2 0x5CA SWAP2 SWAP1 PUSH2 0x2368 JUMP JUMPDEST SWAP1 POP PUSH2 0x61C JUMP JUMPDEST DUP6 PUSH1 0x6 SLOAD PUSH2 0x5DF SWAP2 SWAP1 PUSH2 0x2153 JUMP JUMPDEST SWAP4 POP PUSH1 0x7 SLOAD PUSH1 0x8 SLOAD DUP6 PUSH2 0x5F2 SWAP2 SWAP1 PUSH2 0x2251 JUMP JUMPDEST PUSH2 0x5FC SWAP2 SWAP1 PUSH2 0x2251 JUMP JUMPDEST PUSH1 0x9 SLOAD PUSH2 0x609 SWAP2 SWAP1 PUSH2 0x21E7 JUMP JUMPDEST SWAP5 POP DUP5 PUSH1 0x5 SLOAD PUSH2 0x619 SWAP2 SWAP1 PUSH2 0x2368 JUMP JUMPDEST SWAP1 POP JUMPDEST PUSH2 0x707 JUMP JUMPDEST PUSH1 0x40 MLOAD DUP1 PUSH1 0x40 ADD PUSH1 0x40 MSTORE DUP1 PUSH1 0x6 DUP2 MSTORE PUSH1 0x20 ADD PUSH32 0x746F6B656E410000000000000000000000000000000000000000000000000000 DUP2 MSTORE POP DUP1 MLOAD SWAP1 PUSH1 0x20 ADD KECCAK256 DUP9 DUP1 MLOAD SWAP1 PUSH1 0x20 ADD KECCAK256 EQ ISZERO PUSH2 0x6BB JUMPI DUP6 PUSH1 0x5 SLOAD PUSH2 0x67A SWAP2 SWAP1 PUSH2 0x2368 JUMP JUMPDEST SWAP5 POP PUSH1 0x8 SLOAD PUSH1 0x7 SLOAD DUP7 PUSH2 0x68D SWAP2 SWAP1 PUSH2 0x2251 JUMP JUMPDEST PUSH2 0x697 SWAP2 SWAP1 PUSH2 0x2251 JUMP JUMPDEST PUSH1 0x9 SLOAD PUSH2 0x6A4 SWAP2 SWAP1 PUSH2 0x21E7 JUMP JUMPDEST SWAP4 POP PUSH1 0x6 SLOAD DUP5 PUSH2 0x6B4 SWAP2 SWAP1 PUSH2 0x2368 JUMP JUMPDEST SWAP1 POP PUSH2 0x706 JUMP JUMPDEST DUP6 PUSH1 0x6 SLOAD PUSH2 0x6C9 SWAP2 SWAP1 PUSH2 0x2368 JUMP JUMPDEST SWAP4 POP PUSH1 0x7 SLOAD PUSH1 0x8 SLOAD DUP6 PUSH2 0x6DC SWAP2 SWAP1 PUSH2 0x2251 JUMP JUMPDEST PUSH2 0x6E6 SWAP2 SWAP1 PUSH2 0x2251 JUMP JUMPDEST PUSH1 0x9 SLOAD PUSH2 0x6F3 SWAP2 SWAP1 PUSH2 0x21E7 JUMP JUMPDEST SWAP5 POP PUSH1 0x5 SLOAD DUP6 PUSH2 0x703 SWAP2 SWAP1 PUSH2 0x2368 JUMP JUMPDEST SWAP1 POP JUMPDEST JUMPDEST DUP5 PUSH1 0xA SLOAD PUSH2 0x715 SWAP2 SWAP1 PUSH2 0x21E7 JUMP JUMPDEST SWAP3 POP DUP4 PUSH1 0xB SLOAD PUSH2 0x725 SWAP2 SWAP1 PUSH2 0x21E7 JUMP JUMPDEST SWAP2 POP SWAP4 SWAP8 SWAP3 SWAP7 POP SWAP4 POP SWAP4 POP JUMP JUMPDEST PUSH1 0x0 PUSH1 0x2 PUSH1 0x0 CALLER PUSH20 0xFFFFFFFFFFFFFFFFFFFFFFFFFFFFFFFFFFFFFFFF AND PUSH20 0xFFFFFFFFFFFFFFFFFFFFFFFFFFFFFFFFFFFFFFFF AND DUP2 MSTORE PUSH1 0x20 ADD SWAP1 DUP2 MSTORE PUSH1 0x20 ADD PUSH1 0x0 KECCAK256 PUSH1 0x0 SWAP1 SLOAD SWAP1 PUSH2 0x100 EXP SWAP1 DIV PUSH1 0xFF AND PUSH2 0x78A JUMPI PUSH1 0x0 DUP1 REVERT JUMPDEST PUSH1 0x3 PUSH1 0x0 CALLER PUSH20 0xFFFFFFFFFFFFFFFFFFFFFFFFFFFFFFFFFFFFFFFF AND PUSH20 0xFFFFFFFFFFFFFFFFFFFFFFFFFFFFFFFFFFFFFFFF AND DUP2 MSTORE PUSH1 0x20 ADD SWAP1 DUP2 MSTORE PUSH1 0x20 ADD PUSH1 0x0 KECCAK256 PUSH1 0x1 ADD SLOAD SWAP1 POP SWAP1 JUMP JUMPDEST PUSH1 0x0 DUP1 PUSH1 0x0 DUP1 PUSH1 0x0 DUP1 PUSH1 0x0 PUSH1 0x5 SLOAD PUSH1 0x6 SLOAD PUSH1 0x7 SLOAD PUSH1 0x8 SLOAD PUSH1 0x9 SLOAD PUSH1 0xA SLOAD PUSH1 0xB SLOAD SWAP7 POP SWAP7 POP SWAP7 POP SWAP7 POP SWAP7 POP SWAP7 POP SWAP7 POP SWAP1 SWAP2 SWAP3 SWAP4 SWAP5 SWAP6 SWAP7 JUMP JUMPDEST PUSH1 0x0 DUP1 PUSH2 0x818 DUP7 DUP7 DUP7 DUP7 PUSH2 0x162C JUMP JUMPDEST SWAP1 POP PUSH1 0x16 PUSH1 0x3 SIGNEXTEND DUP2 EQ PUSH2 0x860 JUMPI PUSH1 0x40 MLOAD PUSH32 0x8C379A000000000000000000000000000000000000000000000000000000000 DUP2 MSTORE PUSH1 0x4 ADD PUSH2 0x857 SWAP1 PUSH2 0x2076 JUMP JUMPDEST PUSH1 0x40 MLOAD DUP1 SWAP2 SUB SWAP1 REVERT JUMPDEST DUP1 SWAP2 POP POP SWAP5 SWAP4 POP POP POP POP JUMP JUMPDEST PUSH1 0x0 DUP1 PUSH2 0x879 DUP5 DUP5 PUSH2 0x174A JUMP JUMPDEST SWAP1 POP PUSH1 0x16 PUSH1 0x3 SIGNEXTEND DUP2 EQ PUSH2 0x8C1 JUMPI PUSH1 0x40 MLOAD PUSH32 0x8C379A000000000000000000000000000000000000000000000000000000000 DUP2 MSTORE PUSH1 0x4 ADD PUSH2 0x8B8 SWAP1 PUSH2 0x20B6 JUMP JUMPDEST PUSH1 0x40 MLOAD DUP1 SWAP2 SUB SWAP1 REVERT JUMPDEST DUP1 SWAP2 POP POP SWAP3 SWAP2 POP POP JUMP JUMPDEST PUSH1 0x2 PUSH1 0x0 CALLER PUSH20 0xFFFFFFFFFFFFFFFFFFFFFFFFFFFFFFFFFFFFFFFF AND PUSH20 0xFFFFFFFFFFFFFFFFFFFFFFFFFFFFFFFFFFFFFFFF AND DUP2 MSTORE PUSH1 0x20 ADD SWAP1 DUP2 MSTORE PUSH1 0x20 ADD PUSH1 0x0 KECCAK256 PUSH1 0x0 SWAP1 SLOAD SWAP1 PUSH2 0x100 EXP SWAP1 DIV PUSH1 0xFF AND PUSH2 0x921 JUMPI PUSH1 0x0 DUP1 REVERT JUMPDEST PUSH2 0x92A DUP3 PUSH2 0x158D JUMP JUMPDEST PUSH1 0x40 MLOAD DUP1 PUSH1 0x40 ADD PUSH1 0x40 MSTORE DUP1 PUSH1 0x6 DUP2 MSTORE PUSH1 0x20 ADD PUSH32 0x746F6B656E410000000000000000000000000000000000000000000000000000 DUP2 MSTORE POP DUP1 MLOAD SWAP1 PUSH1 0x20 ADD KECCAK256 DUP3 DUP1 MLOAD SWAP1 PUSH1 0x20 ADD KECCAK256 EQ ISZERO PUSH2 0x989 JUMPI DUP1 PUSH1 0x5 SLOAD SLT ISZERO PUSH2 0x984 JUMPI PUSH1 0x0 DUP1 REVERT JUMPDEST PUSH2 0x999 JUMP JUMPDEST DUP1 PUSH1 0x6 SLOAD SLT ISZERO PUSH2 0x998 JUMPI PUSH1 0x0 DUP1 REVERT JUMPDEST JUMPDEST PUSH1 0x0 DUP1 PUSH1 0x0 DUP1 PUSH1 0x0 PUSH2 0x9E1 DUP8 PUSH1 0x40 MLOAD DUP1 PUSH1 0x40 ADD PUSH1 0x40 MSTORE DUP1 PUSH1 0xA DUP2 MSTORE PUSH1 0x20 ADD PUSH32 0x7769746864726177616C00000000000000000000000000000000000000000000 DUP2 MSTORE POP DUP9 PUSH2 0x431 JUMP JUMPDEST SWAP5 POP SWAP5 POP SWAP5 POP SWAP5 POP SWAP5 POP PUSH1 0x0 DUP6 SGT PUSH2 0x9F8 JUMPI PUSH1 0x0 DUP1 REVERT JUMPDEST PUSH1 0x0 DUP5 SGT PUSH2 0xA05 JUMPI PUSH1 0x0 DUP1 REVERT JUMPDEST PUSH1 0x0 DUP4 SGT PUSH2 0xA12 JUMPI PUSH1 0x0 DUP1 REVERT JUMPDEST PUSH1 0x0 DUP3 SGT PUSH2 0xA1F JUMPI PUSH1 0x0 DUP1 REVERT JUMPDEST PUSH1 0x40 MLOAD DUP1 PUSH1 0x40 ADD PUSH1 0x40 MSTORE DUP1 PUSH1 0x6 DUP2 MSTORE PUSH1 0x20 ADD PUSH32 0x746F6B656E410000000000000000000000000000000000000000000000000000 DUP2 MSTORE POP DUP1 MLOAD SWAP1 PUSH1 0x20 ADD KECCAK256 DUP8 DUP1 MLOAD SWAP1 PUSH1 0x20 ADD KECCAK256 EQ ISZERO PUSH2 0xB70 JUMPI DUP1 PUSH1 0x3 PUSH1 0x0 CALLER PUSH20 0xFFFFFFFFFFFFFFFFFFFFFFFFFFFFFFFFFFFFFFFF AND PUSH20 0xFFFFFFFFFFFFFFFFFFFFFFFFFFFFFFFFFFFFFFFF AND DUP2 MSTORE PUSH1 0x20 ADD SWAP1 DUP2 MSTORE PUSH1 0x20 ADD PUSH1 0x0 KECCAK256 PUSH1 0x1 ADD SLOAD SLT ISZERO PUSH2 0xAB9 JUMPI PUSH1 0x0 DUP1 REVERT JUMPDEST DUP1 PUSH1 0x3 PUSH1 0x0 CALLER PUSH20 0xFFFFFFFFFFFFFFFFFFFFFFFFFFFFFFFFFFFFFFFF AND PUSH20 0xFFFFFFFFFFFFFFFFFFFFFFFFFFFFFFFFFFFFFFFF AND DUP2 MSTORE PUSH1 0x20 ADD SWAP1 DUP2 MSTORE PUSH1 0x20 ADD PUSH1 0x0 KECCAK256 PUSH1 0x1 ADD PUSH1 0x0 DUP3 DUP3 SLOAD PUSH2 0xB0B SWAP2 SWAP1 PUSH2 0x2368 JUMP JUMPDEST SWAP3 POP POP DUP2 SWAP1 SSTORE POP DUP6 PUSH1 0x3 PUSH1 0x0 CALLER PUSH20 0xFFFFFFFFFFFFFFFFFFFFFFFFFFFFFFFFFFFFFFFF AND PUSH20 0xFFFFFFFFFFFFFFFFFFFFFFFFFFFFFFFFFFFFFFFF AND DUP2 MSTORE PUSH1 0x20 ADD SWAP1 DUP2 MSTORE PUSH1 0x20 ADD PUSH1 0x0 KECCAK256 PUSH1 0x0 ADD PUSH1 0x0 DUP3 DUP3 SLOAD PUSH2 0xB64 SWAP2 SWAP1 PUSH2 0x2153 JUMP JUMPDEST SWAP3 POP POP DUP2 SWAP1 SSTORE POP PUSH2 0xC72 JUMP JUMPDEST DUP1 PUSH1 0x3 PUSH1 0x0 CALLER PUSH20 0xFFFFFFFFFFFFFFFFFFFFFFFFFFFFFFFFFFFFFFFF AND PUSH20 0xFFFFFFFFFFFFFFFFFFFFFFFFFFFFFFFFFFFFFFFF AND DUP2 MSTORE PUSH1 0x20 ADD SWAP1 DUP2 MSTORE PUSH1 0x20 ADD PUSH1 0x0 KECCAK256 PUSH1 0x0 ADD SLOAD SLT ISZERO PUSH2 0xBBF JUMPI PUSH1 0x0 DUP1 REVERT JUMPDEST DUP1 PUSH1 0x3 PUSH1 0x0 CALLER PUSH20 0xFFFFFFFFFFFFFFFFFFFFFFFFFFFFFFFFFFFFFFFF AND PUSH20 0xFFFFFFFFFFFFFFFFFFFFFFFFFFFFFFFFFFFFFFFF AND DUP2 MSTORE PUSH1 0x20 ADD SWAP1 DUP2 MSTORE PUSH1 0x20 ADD PUSH1 0x0 KECCAK256 PUSH1 0x0 ADD PUSH1 0x0 DUP3 DUP3 SLOAD PUSH2 0xC11 SWAP2 SWAP1 PUSH2 0x2368 JUMP JUMPDEST SWAP3 POP POP DUP2 SWAP1 SSTORE POP DUP6 PUSH1 0x3 PUSH1 0x0 CALLER PUSH20 0xFFFFFFFFFFFFFFFFFFFFFFFFFFFFFFFFFFFFFFFF AND PUSH20 0xFFFFFFFFFFFFFFFFFFFFFFFFFFFFFFFFFFFFFFFF AND DUP2 MSTORE PUSH1 0x20 ADD SWAP1 DUP2 MSTORE PUSH1 0x20 ADD PUSH1 0x0 KECCAK256 PUSH1 0x1 ADD PUSH1 0x0 DUP3 DUP3 SLOAD PUSH2 0xC6A SWAP2 SWAP1 PUSH2 0x2153 JUMP JUMPDEST SWAP3 POP POP DUP2 SWAP1 SSTORE POP JUMPDEST DUP5 PUSH1 0x5 DUP2 SWAP1 SSTORE POP DUP4 PUSH1 0x6 DUP2 SWAP1 SSTORE POP DUP3 PUSH1 0x7 DUP2 SWAP1 SSTORE POP DUP2 PUSH1 0x8 DUP2 SWAP1 SSTORE POP PUSH32 0x9F6D6C156080917DD4EB3FAA52C09B5EF538B97A7406838FB175391B9E81383 DUP2 PUSH1 0x40 MLOAD PUSH2 0xCBD SWAP2 SWAP1 PUSH2 0x1F70 JUMP JUMPDEST PUSH1 0x40 MLOAD DUP1 SWAP2 SUB SWAP1 LOG1 POP POP POP POP POP POP POP JUMP JUMPDEST PUSH1 0x0 DUP1 PUSH2 0xCDB DUP5 DUP5 PUSH2 0x1862 JUMP JUMPDEST SWAP1 POP PUSH1 0x16 PUSH1 0x3 SIGNEXTEND DUP2 EQ PUSH2 0xD23 JUMPI PUSH1 0x40 MLOAD PUSH32 0x8C379A000000000000000000000000000000000000000000000000000000000 DUP2 MSTORE PUSH1 0x4 ADD PUSH2 0xD1A SWAP1 PUSH2 0x2096 JUMP JUMPDEST PUSH1 0x40 MLOAD DUP1 SWAP2 SUB SWAP1 REVERT JUMPDEST DUP1 SWAP2 POP POP SWAP3 SWAP2 POP POP JUMP JUMPDEST PUSH1 0x0 PUSH1 0x2 PUSH1 0x0 CALLER PUSH20 0xFFFFFFFFFFFFFFFFFFFFFFFFFFFFFFFFFFFFFFFF AND PUSH20 0xFFFFFFFFFFFFFFFFFFFFFFFFFFFFFFFFFFFFFFFF AND DUP2 MSTORE PUSH1 0x20 ADD SWAP1 DUP2 MSTORE PUSH1 0x20 ADD PUSH1 0x0 KECCAK256 PUSH1 0x0 SWAP1 SLOAD SWAP1 PUSH2 0x100 EXP SWAP1 DIV PUSH1 0xFF AND PUSH2 0xD85 JUMPI PUSH1 0x0 DUP1 REVERT JUMPDEST PUSH1 0x3 PUSH1 0x0 CALLER PUSH20 0xFFFFFFFFFFFFFFFFFFFFFFFFFFFFFFFFFFFFFFFF AND PUSH20 0xFFFFFFFFFFFFFFFFFFFFFFFFFFFFFFFFFFFFFFFF AND DUP2 MSTORE PUSH1 0x20 ADD SWAP1 DUP2 MSTORE PUSH1 0x20 ADD PUSH1 0x0 KECCAK256 PUSH1 0x0 ADD SLOAD SWAP1 POP SWAP1 JUMP JUMPDEST PUSH1 0x2 PUSH1 0x0 CALLER PUSH20 0xFFFFFFFFFFFFFFFFFFFFFFFFFFFFFFFFFFFFFFFF AND PUSH20 0xFFFFFFFFFFFFFFFFFFFFFFFFFFFFFFFFFFFFFFFF AND DUP2 MSTORE PUSH1 0x20 ADD SWAP1 DUP2 MSTORE PUSH1 0x20 ADD PUSH1 0x0 KECCAK256 PUSH1 0x0 SWAP1 SLOAD SWAP1 PUSH2 0x100 EXP SWAP1 DIV PUSH1 0xFF AND ISZERO PUSH2 0xE24 JUMPI PUSH1 0x0 DUP1 REVERT JUMPDEST PUSH2 0x3E8 PUSH1 0x3 PUSH1 0x0 CALLER PUSH20 0xFFFFFFFFFFFFFFFFFFFFFFFFFFFFFFFFFFFFFFFF AND PUSH20 0xFFFFFFFFFFFFFFFFFFFFFFFFFFFFFFFFFFFFFFFF AND DUP2 MSTORE PUSH1 0x20 ADD SWAP1 DUP2 MSTORE PUSH1 0x20 ADD PUSH1 0x0 KECCAK256 PUSH1 0x0 ADD PUSH1 0x0 DUP3 DUP3 SLOAD PUSH2 0xE78 SWAP2 SWAP1 PUSH2 0x2153 JUMP JUMPDEST SWAP3 POP POP DUP2 SWAP1 SSTORE POP PUSH2 0x3E8 PUSH1 0x3 PUSH1 0x0 CALLER PUSH20 0xFFFFFFFFFFFFFFFFFFFFFFFFFFFFFFFFFFFFFFFF AND PUSH20 0xFFFFFFFFFFFFFFFFFFFFFFFFFFFFFFFFFFFFFFFF AND DUP2 MSTORE PUSH1 0x20 ADD SWAP1 DUP2 MSTORE PUSH1 0x20 ADD PUSH1 0x0 KECCAK256 PUSH1 0x1 ADD PUSH1 0x0 DUP3 DUP3 SLOAD PUSH2 0xED3 SWAP2 SWAP1 PUSH2 0x2153 JUMP JUMPDEST SWAP3 POP POP DUP2 SWAP1 SSTORE POP PUSH1 0x1 PUSH1 0x2 PUSH1 0x0 CALLER PUSH20 0xFFFFFFFFFFFFFFFFFFFFFFFFFFFFFFFFFFFFFFFF AND PUSH20 0xFFFFFFFFFFFFFFFFFFFFFFFFFFFFFFFFFFFFFFFF AND DUP2 MSTORE PUSH1 0x20 ADD SWAP1 DUP2 MSTORE PUSH1 0x20 ADD PUSH1 0x0 KECCAK256 PUSH1 0x0 PUSH2 0x100 EXP DUP2 SLOAD DUP2 PUSH1 0xFF MUL NOT AND SWAP1 DUP4 ISZERO ISZERO MUL OR SWAP1 SSTORE POP CALLER PUSH20 0xFFFFFFFFFFFFFFFFFFFFFFFFFFFFFFFFFFFFFFFF AND PUSH32 0x500201DD509E994C0E890B017F78B50955F36D83D2ACBB63C9E747547B799CAC PUSH1 0x3 PUSH1 0x0 CALLER PUSH20 0xFFFFFFFFFFFFFFFFFFFFFFFFFFFFFFFFFFFFFFFF AND PUSH20 0xFFFFFFFFFFFFFFFFFFFFFFFFFFFFFFFFFFFFFFFF AND DUP2 MSTORE PUSH1 0x20 ADD SWAP1 DUP2 MSTORE PUSH1 0x20 ADD PUSH1 0x0 KECCAK256 PUSH1 0x0 ADD SLOAD PUSH1 0x3 PUSH1 0x0 CALLER PUSH20 0xFFFFFFFFFFFFFFFFFFFFFFFFFFFFFFFFFFFFFFFF AND PUSH20 0xFFFFFFFFFFFFFFFFFFFFFFFFFFFFFFFFFFFFFFFF AND DUP2 MSTORE PUSH1 0x20 ADD SWAP1 DUP2 MSTORE PUSH1 0x20 ADD PUSH1 0x0 KECCAK256 PUSH1 0x1 ADD SLOAD PUSH1 0x40 MLOAD PUSH2 0xFFE SWAP3 SWAP2 SWAP1 PUSH2 0x1F8B JUMP JUMPDEST PUSH1 0x40 MLOAD DUP1 SWAP2 SUB SWAP1 LOG2 JUMP JUMPDEST PUSH1 0x0 PUSH1 0x40 MLOAD DUP1 PUSH1 0x40 ADD PUSH1 0x40 MSTORE DUP1 PUSH1 0x1 DUP2 MSTORE PUSH1 0x20 ADD PUSH32 0x7800000000000000000000000000000000000000000000000000000000000000 DUP2 MSTORE POP DUP1 MLOAD SWAP1 PUSH1 0x20 ADD KECCAK256 DUP3 DUP1 MLOAD SWAP1 PUSH1 0x20 ADD KECCAK256 EQ DUP1 PUSH2 0x109D JUMPI POP PUSH1 0x40 MLOAD DUP1 PUSH1 0x40 ADD PUSH1 0x40 MSTORE DUP1 PUSH1 0x1 DUP2 MSTORE PUSH1 0x20 ADD PUSH32 0x7900000000000000000000000000000000000000000000000000000000000000 DUP2 MSTORE POP DUP1 MLOAD SWAP1 PUSH1 0x20 ADD KECCAK256 DUP3 DUP1 MLOAD SWAP1 PUSH1 0x20 ADD KECCAK256 EQ JUMPDEST DUP1 PUSH2 0x10EA JUMPI POP PUSH1 0x40 MLOAD DUP1 PUSH1 0x40 ADD PUSH1 0x40 MSTORE DUP1 PUSH1 0x1 DUP2 MSTORE PUSH1 0x20 ADD PUSH32 0x6B00000000000000000000000000000000000000000000000000000000000000 DUP2 MSTORE POP DUP1 MLOAD SWAP1 PUSH1 0x20 ADD KECCAK256 DUP3 DUP1 MLOAD SWAP1 PUSH1 0x20 ADD KECCAK256 EQ JUMPDEST PUSH2 0x10F3 JUMPI PUSH1 0x0 DUP1 REVERT JUMPDEST PUSH1 0x40 MLOAD DUP1 PUSH1 0x40 ADD PUSH1 0x40 MSTORE DUP1 PUSH1 0x1 DUP2 MSTORE PUSH1 0x20 ADD PUSH32 0x7800000000000000000000000000000000000000000000000000000000000000 DUP2 MSTORE POP DUP1 MLOAD SWAP1 PUSH1 0x20 ADD KECCAK256 DUP3 DUP1 MLOAD SWAP1 PUSH1 0x20 ADD KECCAK256 EQ ISZERO PUSH2 0x1148 JUMPI PUSH1 0xA SLOAD SWAP1 POP PUSH2 0x11A3 JUMP JUMPDEST PUSH1 0x40 MLOAD DUP1 PUSH1 0x40 ADD PUSH1 0x40 MSTORE DUP1 PUSH1 0x1 DUP2 MSTORE PUSH1 0x20 ADD PUSH32 0x7900000000000000000000000000000000000000000000000000000000000000 DUP2 MSTORE POP DUP1 MLOAD SWAP1 PUSH1 0x20 ADD KECCAK256 DUP3 DUP1 MLOAD SWAP1 PUSH1 0x20 ADD KECCAK256 EQ ISZERO PUSH2 0x119D JUMPI PUSH1 0xB SLOAD SWAP1 POP PUSH2 0x11A3 JUMP JUMPDEST PUSH1 0x9 SLOAD SWAP1 POP JUMPDEST SWAP2 SWAP1 POP JUMP JUMPDEST PUSH1 0x2 PUSH1 0x0 CALLER PUSH20 0xFFFFFFFFFFFFFFFFFFFFFFFFFFFFFFFFFFFFFFFF AND PUSH20 0xFFFFFFFFFFFFFFFFFFFFFFFFFFFFFFFFFFFFFFFF AND DUP2 MSTORE PUSH1 0x20 ADD SWAP1 DUP2 MSTORE PUSH1 0x20 ADD PUSH1 0x0 KECCAK256 PUSH1 0x0 SWAP1 SLOAD SWAP1 PUSH2 0x100 EXP SWAP1 DIV PUSH1 0xFF AND PUSH2 0x11FE JUMPI PUSH1 0x0 DUP1 REVERT JUMPDEST PUSH2 0x1207 DUP3 PUSH2 0x158D JUMP JUMPDEST PUSH1 0x40 MLOAD DUP1 PUSH1 0x40 ADD PUSH1 0x40 MSTORE DUP1 PUSH1 0x6 DUP2 MSTORE PUSH1 0x20 ADD PUSH32 0x746F6B656E410000000000000000000000000000000000000000000000000000 DUP2 MSTORE POP DUP1 MLOAD SWAP1 PUSH1 0x20 ADD KECCAK256 DUP3 DUP1 MLOAD SWAP1 PUSH1 0x20 ADD KECCAK256 EQ ISZERO PUSH2 0x12A6 JUMPI DUP1 PUSH1 0x3 PUSH1 0x0 CALLER PUSH20 0xFFFFFFFFFFFFFFFFFFFFFFFFFFFFFFFFFFFFFFFF AND PUSH20 0xFFFFFFFFFFFFFFFFFFFFFFFFFFFFFFFFFFFFFFFF AND DUP2 MSTORE PUSH1 0x20 ADD SWAP1 DUP2 MSTORE PUSH1 0x20 ADD PUSH1 0x0 KECCAK256 PUSH1 0x0 ADD SLOAD SLT ISZERO PUSH2 0x12A1 JUMPI PUSH1 0x0 DUP1 REVERT JUMPDEST PUSH2 0x12F6 JUMP JUMPDEST DUP1 PUSH1 0x3 PUSH1 0x0 CALLER PUSH20 0xFFFFFFFFFFFFFFFFFFFFFFFFFFFFFFFFFFFFFFFF AND PUSH20 0xFFFFFFFFFFFFFFFFFFFFFFFFFFFFFFFFFFFFFFFF AND DUP2 MSTORE PUSH1 0x20 ADD SWAP1 DUP2 MSTORE PUSH1 0x20 ADD PUSH1 0x0 KECCAK256 PUSH1 0x1 ADD SLOAD SLT ISZERO PUSH2 0x12F5 JUMPI PUSH1 0x0 DUP1 REVERT JUMPDEST JUMPDEST PUSH1 0x0 DUP1 PUSH1 0x0 DUP1 PUSH1 0x0 PUSH2 0x133E DUP8 PUSH1 0x40 MLOAD DUP1 PUSH1 0x40 ADD PUSH1 0x40 MSTORE DUP1 PUSH1 0x7 DUP2 MSTORE PUSH1 0x20 ADD PUSH32 0x6465706F73697400000000000000000000000000000000000000000000000000 DUP2 MSTORE POP DUP9 PUSH2 0x431 JUMP JUMPDEST SWAP5 POP SWAP5 POP SWAP5 POP SWAP5 POP SWAP5 POP PUSH1 0x0 DUP6 SGT PUSH2 0x1355 JUMPI PUSH1 0x0 DUP1 REVERT JUMPDEST PUSH1 0x0 DUP5 SGT PUSH2 0x1362 JUMPI PUSH1 0x0 DUP1 REVERT JUMPDEST PUSH1 0x0 DUP4 SGT PUSH2 0x136F JUMPI PUSH1 0x0 DUP1 REVERT JUMPDEST PUSH1 0x0 DUP3 SGT PUSH2 0x137C JUMPI PUSH1 0x0 DUP1 REVERT JUMPDEST PUSH1 0x40 MLOAD DUP1 PUSH1 0x40 ADD PUSH1 0x40 MSTORE DUP1 PUSH1 0x6 DUP2 MSTORE PUSH1 0x20 ADD PUSH32 0x746F6B656E410000000000000000000000000000000000000000000000000000 DUP2 MSTORE POP DUP1 MLOAD SWAP1 PUSH1 0x20 ADD KECCAK256 DUP8 DUP1 MLOAD SWAP1 PUSH1 0x20 ADD KECCAK256 EQ ISZERO PUSH2 0x147E JUMPI DUP6 PUSH1 0x3 PUSH1 0x0 CALLER PUSH20 0xFFFFFFFFFFFFFFFFFFFFFFFFFFFFFFFFFFFFFFFF AND PUSH20 0xFFFFFFFFFFFFFFFFFFFFFFFFFFFFFFFFFFFFFFFF AND DUP2 MSTORE PUSH1 0x20 ADD SWAP1 DUP2 MSTORE PUSH1 0x20 ADD PUSH1 0x0 KECCAK256 PUSH1 0x0 ADD PUSH1 0x0 DUP3 DUP3 SLOAD PUSH2 0x1419 SWAP2 SWAP1 PUSH2 0x2368 JUMP JUMPDEST SWAP3 POP POP DUP2 SWAP1 SSTORE POP DUP1 PUSH1 0x3 PUSH1 0x0 CALLER PUSH20 0xFFFFFFFFFFFFFFFFFFFFFFFFFFFFFFFFFFFFFFFF AND PUSH20 0xFFFFFFFFFFFFFFFFFFFFFFFFFFFFFFFFFFFFFFFF AND DUP2 MSTORE PUSH1 0x20 ADD SWAP1 DUP2 MSTORE PUSH1 0x20 ADD PUSH1 0x0 KECCAK256 PUSH1 0x1 ADD PUSH1 0x0 DUP3 DUP3 SLOAD PUSH2 0x1472 SWAP2 SWAP1 PUSH2 0x2153 JUMP JUMPDEST SWAP3 POP POP DUP2 SWAP1 SSTORE POP PUSH2 0x1531 JUMP JUMPDEST DUP6 PUSH1 0x3 PUSH1 0x0 CALLER PUSH20 0xFFFFFFFFFFFFFFFFFFFFFFFFFFFFFFFFFFFFFFFF AND PUSH20 0xFFFFFFFFFFFFFFFFFFFFFFFFFFFFFFFFFFFFFFFF AND DUP2 MSTORE PUSH1 0x20 ADD SWAP1 DUP2 MSTORE PUSH1 0x20 ADD PUSH1 0x0 KECCAK256 PUSH1 0x1 ADD PUSH1 0x0 DUP3 DUP3 SLOAD PUSH2 0x14D0 SWAP2 SWAP1 PUSH2 0x2368 JUMP JUMPDEST SWAP3 POP POP DUP2 SWAP1 SSTORE POP DUP1 PUSH1 0x3 PUSH1 0x0 CALLER PUSH20 0xFFFFFFFFFFFFFFFFFFFFFFFFFFFFFFFFFFFFFFFF AND PUSH20 0xFFFFFFFFFFFFFFFFFFFFFFFFFFFFFFFFFFFFFFFF AND DUP2 MSTORE PUSH1 0x20 ADD SWAP1 DUP2 MSTORE PUSH1 0x20 ADD PUSH1 0x0 KECCAK256 PUSH1 0x0 ADD PUSH1 0x0 DUP3 DUP3 SLOAD PUSH2 0x1529 SWAP2 SWAP1 PUSH2 0x2153 JUMP JUMPDEST SWAP3 POP POP DUP2 SWAP1 SSTORE POP JUMPDEST DUP5 PUSH1 0x5 DUP2 SWAP1 SSTORE POP DUP4 PUSH1 0x6 DUP2 SWAP1 SSTORE POP DUP3 PUSH1 0x7 DUP2 SWAP1 SSTORE POP DUP2 PUSH1 0x8 DUP2 SWAP1 SSTORE POP PUSH32 0xBC6E679F8B1549497ECF3E87D44B1B69461A370197D72D0E0B663EA343108F43 DUP2 PUSH1 0x40 MLOAD PUSH2 0x157C SWAP2 SWAP1 PUSH2 0x1F70 JUMP JUMPDEST PUSH1 0x40 MLOAD DUP1 SWAP2 SUB SWAP1 LOG1 POP POP POP POP POP POP POP JUMP JUMPDEST PUSH1 0x40 MLOAD DUP1 PUSH1 0x40 ADD PUSH1 0x40 MSTORE DUP1 PUSH1 0x6 DUP2 MSTORE PUSH1 0x20 ADD PUSH32 0x746F6B656E410000000000000000000000000000000000000000000000000000 DUP2 MSTORE POP DUP1 MLOAD SWAP1 PUSH1 0x20 ADD KECCAK256 DUP2 DUP1 MLOAD SWAP1 PUSH1 0x20 ADD KECCAK256 EQ DUP1 PUSH2 0x1620 JUMPI POP PUSH1 0x40 MLOAD DUP1 PUSH1 0x40 ADD PUSH1 0x40 MSTORE DUP1 PUSH1 0x6 DUP2 MSTORE PUSH1 0x20 ADD PUSH32 0x746F6B656E420000000000000000000000000000000000000000000000000000 DUP2 MSTORE POP DUP1 MLOAD SWAP1 PUSH1 0x20 ADD KECCAK256 DUP2 DUP1 MLOAD SWAP1 PUSH1 0x20 ADD KECCAK256 EQ JUMPDEST PUSH2 0x1629 JUMPI PUSH1 0x0 DUP1 REVERT JUMPDEST POP JUMP JUMPDEST PUSH1 0x0 DUP1 PUSH1 0x0 PUSH2 0x167 PUSH20 0xFFFFFFFFFFFFFFFFFFFFFFFFFFFFFFFFFFFFFFFF AND PUSH4 0xECA36917 PUSH1 0xE0 SHL DUP9 DUP9 DUP9 DUP9 PUSH1 0x40 MLOAD PUSH1 0x24 ADD PUSH2 0x1669 SWAP5 SWAP4 SWAP3 SWAP2 SWAP1 PUSH2 0x1F2B JUMP JUMPDEST PUSH1 0x40 MLOAD PUSH1 0x20 DUP2 DUP4 SUB SUB DUP2 MSTORE SWAP1 PUSH1 0x40 MSTORE SWAP1 PUSH28 0xFFFFFFFFFFFFFFFFFFFFFFFFFFFFFFFFFFFFFFFFFFFFFFFFFFFFFFFF NOT AND PUSH1 0x20 DUP3 ADD DUP1 MLOAD PUSH28 0xFFFFFFFFFFFFFFFFFFFFFFFFFFFFFFFFFFFFFFFFFFFFFFFFFFFFFFFF DUP4 DUP2 DUP4 AND OR DUP4 MSTORE POP POP POP POP PUSH1 0x40 MLOAD PUSH2 0x16D3 SWAP2 SWAP1 PUSH2 0x1EEB JUMP JUMPDEST PUSH1 0x0 PUSH1 0x40 MLOAD DUP1 DUP4 SUB DUP2 PUSH1 0x0 DUP7 GAS CALL SWAP2 POP POP RETURNDATASIZE DUP1 PUSH1 0x0 DUP2 EQ PUSH2 0x1710 JUMPI PUSH1 0x40 MLOAD SWAP2 POP PUSH1 0x1F NOT PUSH1 0x3F RETURNDATASIZE ADD AND DUP3 ADD PUSH1 0x40 MSTORE RETURNDATASIZE DUP3 MSTORE RETURNDATASIZE PUSH1 0x0 PUSH1 0x20 DUP5 ADD RETURNDATACOPY PUSH2 0x1715 JUMP JUMPDEST PUSH1 0x60 SWAP2 POP JUMPDEST POP SWAP2 POP SWAP2 POP DUP2 PUSH2 0x1726 JUMPI PUSH1 0x15 PUSH2 0x173B JUMP JUMPDEST DUP1 DUP1 PUSH1 0x20 ADD SWAP1 MLOAD DUP2 ADD SWAP1 PUSH2 0x173A SWAP2 SWAP1 PUSH2 0x1C4F JUMP JUMPDEST JUMPDEST PUSH1 0x3 SIGNEXTEND SWAP3 POP POP POP SWAP5 SWAP4 POP POP POP POP JUMP JUMPDEST PUSH1 0x0 DUP1 PUSH1 0x0 PUSH2 0x167 PUSH20 0xFFFFFFFFFFFFFFFFFFFFFFFFFFFFFFFFFFFFFFFF AND PUSH4 0x99794E8 PUSH1 0xE0 SHL DUP7 DUP7 PUSH1 0x40 MLOAD PUSH1 0x24 ADD PUSH2 0x1783 SWAP3 SWAP2 SWAP1 PUSH2 0x1F02 JUMP JUMPDEST PUSH1 0x40 MLOAD PUSH1 0x20 DUP2 DUP4 SUB SUB DUP2 MSTORE SWAP1 PUSH1 0x40 MSTORE SWAP1 PUSH28 0xFFFFFFFFFFFFFFFFFFFFFFFFFFFFFFFFFFFFFFFFFFFFFFFFFFFFFFFF NOT AND PUSH1 0x20 DUP3 ADD DUP1 MLOAD PUSH28 0xFFFFFFFFFFFFFFFFFFFFFFFFFFFFFFFFFFFFFFFFFFFFFFFFFFFFFFFF DUP4 DUP2 DUP4 AND OR DUP4 MSTORE POP POP POP POP PUSH1 0x40 MLOAD PUSH2 0x17ED SWAP2 SWAP1 PUSH2 0x1EEB JUMP JUMPDEST PUSH1 0x0 PUSH1 0x40 MLOAD DUP1 DUP4 SUB DUP2 PUSH1 0x0 DUP7 GAS CALL SWAP2 POP POP RETURNDATASIZE DUP1 PUSH1 0x0 DUP2 EQ PUSH2 0x182A JUMPI PUSH1 0x40 MLOAD SWAP2 POP PUSH1 0x1F NOT PUSH1 0x3F RETURNDATASIZE ADD AND DUP3 ADD PUSH1 0x40 MSTORE RETURNDATASIZE DUP3 MSTORE RETURNDATASIZE PUSH1 0x0 PUSH1 0x20 DUP5 ADD RETURNDATACOPY PUSH2 0x182F JUMP JUMPDEST PUSH1 0x60 SWAP2 POP JUMPDEST POP SWAP2 POP SWAP2 POP DUP2 PUSH2 0x1840 JUMPI PUSH1 0x15 PUSH2 0x1855 JUMP JUMPDEST DUP1 DUP1 PUSH1 0x20 ADD SWAP1 MLOAD DUP2 ADD SWAP1 PUSH2 0x1854 SWAP2 SWAP1 PUSH2 0x1C4F JUMP JUMPDEST JUMPDEST PUSH1 0x3 SIGNEXTEND SWAP3 POP POP POP SWAP3 SWAP2 POP POP JUMP JUMPDEST PUSH1 0x0 PUSH2 0x167 PUSH20 0xFFFFFFFFFFFFFFFFFFFFFFFFFFFFFFFFFFFFFFFF AND PUSH4 0x49146BDE PUSH1 0xE0 SHL DUP5 DUP5 PUSH1 0x40 MLOAD PUSH1 0x24 ADD PUSH2 0x1898 SWAP3 SWAP2 SWAP1 PUSH2 0x1F02 JUMP JUMPDEST PUSH1 0x40 MLOAD PUSH1 0x20 DUP2 DUP4 SUB SUB DUP2 MSTORE SWAP1 PUSH1 0x40 MSTORE SWAP1 PUSH28 0xFFFFFFFFFFFFFFFFFFFFFFFFFFFFFFFFFFFFFFFFFFFFFFFFFFFFFFFF NOT AND PUSH1 0x20 DUP3 ADD DUP1 MLOAD PUSH28 0xFFFFFFFFFFFFFFFFFFFFFFFFFFFFFFFFFFFFFFFFFFFFFFFFFFFFFFFF DUP4 DUP2 DUP4 AND OR DUP4 MSTORE POP POP POP POP PUSH1 0x40 MLOAD PUSH2 0x1902 SWAP2 SWAP1 PUSH2 0x1EEB JUMP JUMPDEST PUSH1 0x0 PUSH1 0x40 MLOAD DUP1 DUP4 SUB DUP2 PUSH1 0x0 DUP7 GAS CALL SWAP2 POP POP RETURNDATASIZE DUP1 PUSH1 0x0 DUP2 EQ PUSH2 0x193F JUMPI PUSH1 0x40 MLOAD SWAP2 POP PUSH1 0x1F NOT PUSH1 0x3F RETURNDATASIZE ADD AND DUP3 ADD PUSH1 0x40 MSTORE RETURNDATASIZE DUP3 MSTORE RETURNDATASIZE PUSH1 0x0 PUSH1 0x20 DUP5 ADD RETURNDATACOPY PUSH2 0x1944 JUMP JUMPDEST PUSH1 0x60 SWAP2 POP JUMPDEST POP PUSH1 0x0 DUP1 PUSH1 0x1 PUSH1 0x0 DUP5 SWAP2 SWAP1 POP SWAP1 DUP1 MLOAD SWAP1 PUSH1 0x20 ADD SWAP1 PUSH2 0x1963 SWAP3 SWAP2 SWAP1 PUSH2 0x1A41 JUMP JUMPDEST POP DUP4 SWAP2 SWAP1 PUSH2 0x100 EXP DUP2 SLOAD DUP2 PUSH1 0xFF MUL NOT AND SWAP1 DUP4 ISZERO ISZERO MUL OR SWAP1 SSTORE POP POP POP PUSH1 0x0 DUP1 SLOAD SWAP1 PUSH2 0x100 EXP SWAP1 DIV PUSH1 0xFF AND PUSH2 0x1997 JUMPI PUSH1 0x15 PUSH2 0x1A36 JUMP JUMPDEST PUSH1 0x1 DUP1 SLOAD PUSH2 0x19A4 SWAP1 PUSH2 0x2494 JUMP JUMPDEST DUP1 PUSH1 0x1F ADD PUSH1 0x20 DUP1 SWAP2 DIV MUL PUSH1 0x20 ADD PUSH1 0x40 MLOAD SWAP1 DUP2 ADD PUSH1 0x40 MSTORE DUP1 SWAP3 SWAP2 SWAP1 DUP2 DUP2 MSTORE PUSH1 0x20 ADD DUP3 DUP1 SLOAD PUSH2 0x19D0 SWAP1 PUSH2 0x2494 JUMP JUMPDEST DUP1 ISZERO PUSH2 0x1A1D JUMPI DUP1 PUSH1 0x1F LT PUSH2 0x19F2 JUMPI PUSH2 0x100 DUP1 DUP4 SLOAD DIV MUL DUP4 MSTORE SWAP2 PUSH1 0x20 ADD SWAP2 PUSH2 0x1A1D JUMP JUMPDEST DUP3 ADD SWAP2 SWAP1 PUSH1 0x0 MSTORE PUSH1 0x20 PUSH1 0x0 KECCAK256 SWAP1 JUMPDEST DUP2 SLOAD DUP2 MSTORE SWAP1 PUSH1 0x1 ADD SWAP1 PUSH1 0x20 ADD DUP1 DUP4 GT PUSH2 0x1A00 JUMPI DUP3 SWAP1 SUB PUSH1 0x1F AND DUP3 ADD SWAP2 JUMPDEST POP POP POP POP POP DUP1 PUSH1 0x20 ADD SWAP1 MLOAD DUP2 ADD SWAP1 PUSH2 0x1A35 SWAP2 SWAP1 PUSH2 0x1C4F JUMP JUMPDEST JUMPDEST PUSH1 0x3 SIGNEXTEND SWAP1 POP SWAP3 SWAP2 POP POP JUMP JUMPDEST DUP3 DUP1 SLOAD PUSH2 0x1A4D SWAP1 PUSH2 0x2494 JUMP JUMPDEST SWAP1 PUSH1 0x0 MSTORE PUSH1 0x20 PUSH1 0x0 KECCAK256 SWAP1 PUSH1 0x1F ADD PUSH1 0x20 SWAP1 DIV DUP2 ADD SWAP3 DUP3 PUSH2 0x1A6F JUMPI PUSH1 0x0 DUP6 SSTORE PUSH2 0x1AB6 JUMP JUMPDEST DUP3 PUSH1 0x1F LT PUSH2 0x1A88 JUMPI DUP1 MLOAD PUSH1 0xFF NOT AND DUP4 DUP1 ADD OR DUP6 SSTORE PUSH2 0x1AB6 JUMP JUMPDEST DUP3 DUP1 ADD PUSH1 0x1 ADD DUP6 SSTORE DUP3 ISZERO PUSH2 0x1AB6 JUMPI SWAP2 DUP3 ADD JUMPDEST DUP3 DUP2 GT ISZERO PUSH2 0x1AB5 JUMPI DUP3 MLOAD DUP3 SSTORE SWAP2 PUSH1 0x20 ADD SWAP2 SWAP1 PUSH1 0x1 ADD SWAP1 PUSH2 0x1A9A JUMP JUMPDEST JUMPDEST POP SWAP1 POP PUSH2 0x1AC3 SWAP2 SWAP1 PUSH2 0x1AC7 JUMP JUMPDEST POP SWAP1 JUMP JUMPDEST JUMPDEST DUP1 DUP3 GT ISZERO PUSH2 0x1AE0 JUMPI PUSH1 0x0 DUP2 PUSH1 0x0 SWAP1 SSTORE POP PUSH1 0x1 ADD PUSH2 0x1AC8 JUMP JUMPDEST POP SWAP1 JUMP JUMPDEST PUSH1 0x0 PUSH2 0x1AF7 PUSH2 0x1AF2 DUP5 PUSH2 0x20FB JUMP JUMPDEST PUSH2 0x20D6 JUMP JUMPDEST SWAP1 POP DUP3 DUP2 MSTORE PUSH1 0x20 DUP2 ADD DUP5 DUP5 DUP5 ADD GT ISZERO PUSH2 0x1B13 JUMPI PUSH2 0x1B12 PUSH2 0x25B8 JUMP JUMPDEST JUMPDEST PUSH2 0x1B1E DUP5 DUP3 DUP6 PUSH2 0x2452 JUMP JUMPDEST POP SWAP4 SWAP3 POP POP POP JUMP JUMPDEST PUSH1 0x0 DUP2 CALLDATALOAD SWAP1 POP PUSH2 0x1B35 DUP2 PUSH2 0x2653 JUMP JUMPDEST SWAP3 SWAP2 POP POP JUMP JUMPDEST PUSH1 0x0 DUP2 CALLDATALOAD SWAP1 POP PUSH2 0x1B4A DUP2 PUSH2 0x266A JUMP JUMPDEST SWAP3 SWAP2 POP POP JUMP JUMPDEST PUSH1 0x0 DUP2 MLOAD SWAP1 POP PUSH2 0x1B5F DUP2 PUSH2 0x2681 JUMP JUMPDEST SWAP3 SWAP2 POP POP JUMP JUMPDEST PUSH1 0x0 DUP2 CALLDATALOAD SWAP1 POP PUSH2 0x1B74 DUP2 PUSH2 0x2698 JUMP JUMPDEST SWAP3 SWAP2 POP POP JUMP JUMPDEST PUSH1 0x0 DUP3 PUSH1 0x1F DUP4 ADD SLT PUSH2 0x1B8F JUMPI PUSH2 0x1B8E PUSH2 0x25B3 JUMP JUMPDEST JUMPDEST DUP2 CALLDATALOAD PUSH2 0x1B9F DUP5 DUP3 PUSH1 0x20 DUP7 ADD PUSH2 0x1AE4 JUMP JUMPDEST SWAP2 POP POP SWAP3 SWAP2 POP POP JUMP JUMPDEST PUSH1 0x0 DUP1 PUSH1 0x40 DUP4 DUP6 SUB SLT ISZERO PUSH2 0x1BBF JUMPI PUSH2 0x1BBE PUSH2 0x25C2 JUMP JUMPDEST JUMPDEST PUSH1 0x0 PUSH2 0x1BCD DUP6 DUP3 DUP7 ADD PUSH2 0x1B26 JUMP JUMPDEST SWAP3 POP POP PUSH1 0x20 PUSH2 0x1BDE DUP6 DUP3 DUP7 ADD PUSH2 0x1B26 JUMP JUMPDEST SWAP2 POP POP SWAP3 POP SWAP3 SWAP1 POP JUMP JUMPDEST PUSH1 0x0 DUP1 PUSH1 0x0 DUP1 PUSH1 0x80 DUP6 DUP8 SUB SLT ISZERO PUSH2 0x1C02 JUMPI PUSH2 0x1C01 PUSH2 0x25C2 JUMP JUMPDEST JUMPDEST PUSH1 0x0 PUSH2 0x1C10 DUP8 DUP3 DUP9 ADD PUSH2 0x1B26 JUMP JUMPDEST SWAP5 POP POP PUSH1 0x20 PUSH2 0x1C21 DUP8 DUP3 DUP9 ADD PUSH2 0x1B26 JUMP JUMPDEST SWAP4 POP POP PUSH1 0x40 PUSH2 0x1C32 DUP8 DUP3 DUP9 ADD PUSH2 0x1B26 JUMP JUMPDEST SWAP3 POP POP PUSH1 0x60 PUSH2 0x1C43 DUP8 DUP3 DUP9 ADD PUSH2 0x1B65 JUMP JUMPDEST SWAP2 POP POP SWAP3 SWAP6 SWAP2 SWAP5 POP SWAP3 POP JUMP JUMPDEST PUSH1 0x0 PUSH1 0x20 DUP3 DUP5 SUB SLT ISZERO PUSH2 0x1C65 JUMPI PUSH2 0x1C64 PUSH2 0x25C2 JUMP JUMPDEST JUMPDEST PUSH1 0x0 PUSH2 0x1C73 DUP5 DUP3 DUP6 ADD PUSH2 0x1B50 JUMP JUMPDEST SWAP2 POP POP SWAP3 SWAP2 POP POP JUMP JUMPDEST PUSH1 0x0 PUSH1 0x20 DUP3 DUP5 SUB SLT ISZERO PUSH2 0x1C92 JUMPI PUSH2 0x1C91 PUSH2 0x25C2 JUMP JUMPDEST JUMPDEST PUSH1 0x0 DUP3 ADD CALLDATALOAD PUSH8 0xFFFFFFFFFFFFFFFF DUP2 GT ISZERO PUSH2 0x1CB0 JUMPI PUSH2 0x1CAF PUSH2 0x25BD JUMP JUMPDEST JUMPDEST PUSH2 0x1CBC DUP5 DUP3 DUP6 ADD PUSH2 0x1B7A JUMP JUMPDEST SWAP2 POP POP SWAP3 SWAP2 POP POP JUMP JUMPDEST PUSH1 0x0 DUP1 PUSH1 0x40 DUP4 DUP6 SUB SLT ISZERO PUSH2 0x1CDC JUMPI PUSH2 0x1CDB PUSH2 0x25C2 JUMP JUMPDEST JUMPDEST PUSH1 0x0 DUP4 ADD CALLDATALOAD PUSH8 0xFFFFFFFFFFFFFFFF DUP2 GT ISZERO PUSH2 0x1CFA JUMPI PUSH2 0x1CF9 PUSH2 0x25BD JUMP JUMPDEST JUMPDEST PUSH2 0x1D06 DUP6 DUP3 DUP7 ADD PUSH2 0x1B7A JUMP JUMPDEST SWAP3 POP POP PUSH1 0x20 PUSH2 0x1D17 DUP6 DUP3 DUP7 ADD PUSH2 0x1B3B JUMP JUMPDEST SWAP2 POP POP SWAP3 POP SWAP3 SWAP1 POP JUMP JUMPDEST PUSH1 0x0 DUP1 PUSH1 0x40 DUP4 DUP6 SUB SLT ISZERO PUSH2 0x1D38 JUMPI PUSH2 0x1D37 PUSH2 0x25C2 JUMP JUMPDEST JUMPDEST PUSH1 0x0 DUP4 ADD CALLDATALOAD PUSH8 0xFFFFFFFFFFFFFFFF DUP2 GT ISZERO PUSH2 0x1D56 JUMPI PUSH2 0x1D55 PUSH2 0x25BD JUMP JUMPDEST JUMPDEST PUSH2 0x1D62 DUP6 DUP3 DUP7 ADD PUSH2 0x1B7A JUMP JUMPDEST SWAP3 POP POP PUSH1 0x20 DUP4 ADD CALLDATALOAD PUSH8 0xFFFFFFFFFFFFFFFF DUP2 GT ISZERO PUSH2 0x1D83 JUMPI PUSH2 0x1D82 PUSH2 0x25BD JUMP JUMPDEST JUMPDEST PUSH2 0x1D8F DUP6 DUP3 DUP7 ADD PUSH2 0x1B7A JUMP JUMPDEST SWAP2 POP POP SWAP3 POP SWAP3 SWAP1 POP JUMP JUMPDEST PUSH1 0x0 DUP1 PUSH1 0x0 PUSH1 0x60 DUP5 DUP7 SUB SLT ISZERO PUSH2 0x1DB2 JUMPI PUSH2 0x1DB1 PUSH2 0x25C2 JUMP JUMPDEST JUMPDEST PUSH1 0x0 DUP5 ADD CALLDATALOAD PUSH8 0xFFFFFFFFFFFFFFFF DUP2 GT ISZERO PUSH2 0x1DD0 JUMPI PUSH2 0x1DCF PUSH2 0x25BD JUMP JUMPDEST JUMPDEST PUSH2 0x1DDC DUP7 DUP3 DUP8 ADD PUSH2 0x1B7A JUMP JUMPDEST SWAP4 POP POP PUSH1 0x20 DUP5 ADD CALLDATALOAD PUSH8 0xFFFFFFFFFFFFFFFF DUP2 GT ISZERO PUSH2 0x1DFD JUMPI PUSH2 0x1DFC PUSH2 0x25BD JUMP JUMPDEST JUMPDEST PUSH2 0x1E09 DUP7 DUP3 DUP8 ADD PUSH2 0x1B7A JUMP JUMPDEST SWAP3 POP POP PUSH1 0x40 PUSH2 0x1E1A DUP7 DUP3 DUP8 ADD PUSH2 0x1B3B JUMP JUMPDEST SWAP2 POP POP SWAP3 POP SWAP3 POP SWAP3 JUMP JUMPDEST PUSH2 0x1E2D DUP2 PUSH2 0x23FC JUMP JUMPDEST DUP3 MSTORE POP POP JUMP JUMPDEST PUSH1 0x0 PUSH2 0x1E3E DUP3 PUSH2 0x212C JUMP JUMPDEST PUSH2 0x1E48 DUP2 DUP6 PUSH2 0x2137 JUMP JUMPDEST SWAP4 POP PUSH2 0x1E58 DUP2 DUP6 PUSH1 0x20 DUP7 ADD PUSH2 0x2461 JUMP JUMPDEST DUP1 DUP5 ADD SWAP2 POP POP SWAP3 SWAP2 POP POP JUMP JUMPDEST PUSH2 0x1E6D DUP2 PUSH2 0x240E JUMP JUMPDEST DUP3 MSTORE POP POP JUMP JUMPDEST PUSH2 0x1E7C DUP2 PUSH2 0x2425 JUMP JUMPDEST DUP3 MSTORE POP POP JUMP JUMPDEST PUSH1 0x0 PUSH2 0x1E8F PUSH1 0xF DUP4 PUSH2 0x2142 JUMP JUMPDEST SWAP2 POP PUSH2 0x1E9A DUP3 PUSH2 0x25D8 JUMP JUMPDEST PUSH1 0x20 DUP3 ADD SWAP1 POP SWAP2 SWAP1 POP JUMP JUMPDEST PUSH1 0x0 PUSH2 0x1EB2 PUSH1 0x10 DUP4 PUSH2 0x2142 JUMP JUMPDEST SWAP2 POP PUSH2 0x1EBD DUP3 PUSH2 0x2601 JUMP JUMPDEST PUSH1 0x20 DUP3 ADD SWAP1 POP SWAP2 SWAP1 POP JUMP JUMPDEST PUSH1 0x0 PUSH2 0x1ED5 PUSH1 0x11 DUP4 PUSH2 0x2142 JUMP JUMPDEST SWAP2 POP PUSH2 0x1EE0 DUP3 PUSH2 0x262A JUMP JUMPDEST PUSH1 0x20 DUP3 ADD SWAP1 POP SWAP2 SWAP1 POP JUMP JUMPDEST PUSH1 0x0 PUSH2 0x1EF7 DUP3 DUP5 PUSH2 0x1E33 JUMP JUMPDEST SWAP2 POP DUP2 SWAP1 POP SWAP3 SWAP2 POP POP JUMP JUMPDEST PUSH1 0x0 PUSH1 0x40 DUP3 ADD SWAP1 POP PUSH2 0x1F17 PUSH1 0x0 DUP4 ADD DUP6 PUSH2 0x1E24 JUMP JUMPDEST PUSH2 0x1F24 PUSH1 0x20 DUP4 ADD DUP5 PUSH2 0x1E24 JUMP JUMPDEST SWAP4 SWAP3 POP POP POP JUMP JUMPDEST PUSH1 0x0 PUSH1 0x80 DUP3 ADD SWAP1 POP PUSH2 0x1F40 PUSH1 0x0 DUP4 ADD DUP8 PUSH2 0x1E24 JUMP JUMPDEST PUSH2 0x1F4D PUSH1 0x20 DUP4 ADD DUP7 PUSH2 0x1E24 JUMP JUMPDEST PUSH2 0x1F5A PUSH1 0x40 DUP4 ADD DUP6 PUSH2 0x1E24 JUMP JUMPDEST PUSH2 0x1F67 PUSH1 0x60 DUP4 ADD DUP5 PUSH2 0x1E73 JUMP JUMPDEST SWAP6 SWAP5 POP POP POP POP POP JUMP JUMPDEST PUSH1 0x0 PUSH1 0x20 DUP3 ADD SWAP1 POP PUSH2 0x1F85 PUSH1 0x0 DUP4 ADD DUP5 PUSH2 0x1E64 JUMP JUMPDEST SWAP3 SWAP2 POP POP JUMP JUMPDEST PUSH1 0x0 PUSH1 0x40 DUP3 ADD SWAP1 POP PUSH2 0x1FA0 PUSH1 0x0 DUP4 ADD DUP6 PUSH2 0x1E64 JUMP JUMPDEST PUSH2 0x1FAD PUSH1 0x20 DUP4 ADD DUP5 PUSH2 0x1E64 JUMP JUMPDEST SWAP4 SWAP3 POP POP POP JUMP JUMPDEST PUSH1 0x0 PUSH1 0xA0 DUP3 ADD SWAP1 POP PUSH2 0x1FC9 PUSH1 0x0 DUP4 ADD DUP9 PUSH2 0x1E64 JUMP JUMPDEST PUSH2 0x1FD6 PUSH1 0x20 DUP4 ADD DUP8 PUSH2 0x1E64 JUMP JUMPDEST PUSH2 0x1FE3 PUSH1 0x40 DUP4 ADD DUP7 PUSH2 0x1E64 JUMP JUMPDEST PUSH2 0x1FF0 PUSH1 0x60 DUP4 ADD DUP6 PUSH2 0x1E64 JUMP JUMPDEST PUSH2 0x1FFD PUSH1 0x80 DUP4 ADD DUP5 PUSH2 0x1E64 JUMP JUMPDEST SWAP7 SWAP6 POP POP POP POP POP POP JUMP JUMPDEST PUSH1 0x0 PUSH1 0xE0 DUP3 ADD SWAP1 POP PUSH2 0x201C PUSH1 0x0 DUP4 ADD DUP11 PUSH2 0x1E64 JUMP JUMPDEST PUSH2 0x2029 PUSH1 0x20 DUP4 ADD DUP10 PUSH2 0x1E64 JUMP JUMPDEST PUSH2 0x2036 PUSH1 0x40 DUP4 ADD DUP9 PUSH2 0x1E64 JUMP JUMPDEST PUSH2 0x2043 PUSH1 0x60 DUP4 ADD DUP8 PUSH2 0x1E64 JUMP JUMPDEST PUSH2 0x2050 PUSH1 0x80 DUP4 ADD DUP7 PUSH2 0x1E64 JUMP JUMPDEST PUSH2 0x205D PUSH1 0xA0 DUP4 ADD DUP6 PUSH2 0x1E64 JUMP JUMPDEST PUSH2 0x206A PUSH1 0xC0 DUP4 ADD DUP5 PUSH2 0x1E64 JUMP JUMPDEST SWAP9 SWAP8 POP POP POP POP POP POP POP POP JUMP JUMPDEST PUSH1 0x0 PUSH1 0x20 DUP3 ADD SWAP1 POP DUP2 DUP2 SUB PUSH1 0x0 DUP4 ADD MSTORE PUSH2 0x208F DUP2 PUSH2 0x1E82 JUMP JUMPDEST SWAP1 POP SWAP2 SWAP1 POP JUMP JUMPDEST PUSH1 0x0 PUSH1 0x20 DUP3 ADD SWAP1 POP DUP2 DUP2 SUB PUSH1 0x0 DUP4 ADD MSTORE PUSH2 0x20AF DUP2 PUSH2 0x1EA5 JUMP JUMPDEST SWAP1 POP SWAP2 SWAP1 POP JUMP JUMPDEST PUSH1 0x0 PUSH1 0x20 DUP3 ADD SWAP1 POP DUP2 DUP2 SUB PUSH1 0x0 DUP4 ADD MSTORE PUSH2 0x20CF DUP2 PUSH2 0x1EC8 JUMP JUMPDEST SWAP1 POP SWAP2 SWAP1 POP JUMP JUMPDEST PUSH1 0x0 PUSH2 0x20E0 PUSH2 0x20F1 JUMP JUMPDEST SWAP1 POP PUSH2 0x20EC DUP3 DUP3 PUSH2 0x24C6 JUMP JUMPDEST SWAP2 SWAP1 POP JUMP JUMPDEST PUSH1 0x0 PUSH1 0x40 MLOAD SWAP1 POP SWAP1 JUMP JUMPDEST PUSH1 0x0 PUSH8 0xFFFFFFFFFFFFFFFF DUP3 GT ISZERO PUSH2 0x2116 JUMPI PUSH2 0x2115 PUSH2 0x2584 JUMP JUMPDEST JUMPDEST PUSH2 0x211F DUP3 PUSH2 0x25C7 JUMP JUMPDEST SWAP1 POP PUSH1 0x20 DUP2 ADD SWAP1 POP SWAP2 SWAP1 POP JUMP JUMPDEST PUSH1 0x0 DUP2 MLOAD SWAP1 POP SWAP2 SWAP1 POP JUMP JUMPDEST PUSH1 0x0 DUP2 SWAP1 POP SWAP3 SWAP2 POP POP JUMP JUMPDEST PUSH1 0x0 DUP3 DUP3 MSTORE PUSH1 0x20 DUP3 ADD SWAP1 POP SWAP3 SWAP2 POP POP JUMP JUMPDEST PUSH1 0x0 PUSH2 0x215E DUP3 PUSH2 0x240E JUMP JUMPDEST SWAP2 POP PUSH2 0x2169 DUP4 PUSH2 0x240E JUMP JUMPDEST SWAP3 POP DUP2 PUSH32 0x7FFFFFFFFFFFFFFFFFFFFFFFFFFFFFFFFFFFFFFFFFFFFFFFFFFFFFFFFFFFFFFF SUB DUP4 SGT PUSH1 0x0 DUP4 SLT ISZERO AND ISZERO PUSH2 0x21A4 JUMPI PUSH2 0x21A3 PUSH2 0x24F7 JUMP JUMPDEST JUMPDEST DUP2 PUSH32 0x8000000000000000000000000000000000000000000000000000000000000000 SUB DUP4 SLT PUSH1 0x0 DUP4 SLT AND ISZERO PUSH2 0x21DC JUMPI PUSH2 0x21DB PUSH2 0x24F7 JUMP JUMPDEST JUMPDEST DUP3 DUP3 ADD SWAP1 POP SWAP3 SWAP2 POP POP JUMP JUMPDEST PUSH1 0x0 PUSH2 0x21F2 DUP3 PUSH2 0x240E JUMP JUMPDEST SWAP2 POP PUSH2 0x21FD DUP4 PUSH2 0x240E JUMP JUMPDEST SWAP3 POP DUP3 PUSH2 0x220D JUMPI PUSH2 0x220C PUSH2 0x2526 JUMP JUMPDEST JUMPDEST PUSH1 0x1 PUSH1 0x0 SUB DUP4 EQ PUSH32 0x8000000000000000000000000000000000000000000000000000000000000000 DUP4 EQ AND ISZERO PUSH2 0x2246 JUMPI PUSH2 0x2245 PUSH2 0x24F7 JUMP JUMPDEST JUMPDEST DUP3 DUP3 SDIV SWAP1 POP SWAP3 SWAP2 POP POP JUMP JUMPDEST PUSH1 0x0 PUSH2 0x225C DUP3 PUSH2 0x240E JUMP JUMPDEST SWAP2 POP PUSH2 0x2267 DUP4 PUSH2 0x240E JUMP JUMPDEST SWAP3 POP DUP3 PUSH32 0x7FFFFFFFFFFFFFFFFFFFFFFFFFFFFFFFFFFFFFFFFFFFFFFFFFFFFFFFFFFFFFFF DIV DUP3 GT PUSH1 0x0 DUP5 SGT PUSH1 0x0 DUP5 SGT AND AND ISZERO PUSH2 0x22A6 JUMPI PUSH2 0x22A5 PUSH2 0x24F7 JUMP JUMPDEST JUMPDEST DUP2 PUSH32 0x8000000000000000000000000000000000000000000000000000000000000000 SDIV DUP4 SLT PUSH1 0x0 DUP5 SLT PUSH1 0x0 DUP5 SGT AND AND ISZERO PUSH2 0x22E3 JUMPI PUSH2 0x22E2 PUSH2 0x24F7 JUMP JUMPDEST JUMPDEST DUP3 PUSH32 0x8000000000000000000000000000000000000000000000000000000000000000 SDIV DUP3 SLT PUSH1 0x0 DUP5 SGT PUSH1 0x0 DUP5 SLT AND AND ISZERO PUSH2 0x2320 JUMPI PUSH2 0x231F PUSH2 0x24F7 JUMP JUMPDEST JUMPDEST DUP3 PUSH32 0x7FFFFFFFFFFFFFFFFFFFFFFFFFFFFFFFFFFFFFFFFFFFFFFFFFFFFFFFFFFFFFFF SDIV DUP3 SLT PUSH1 0x0 DUP5 SLT PUSH1 0x0 DUP5 SLT AND AND ISZERO PUSH2 0x235D JUMPI PUSH2 0x235C PUSH2 0x24F7 JUMP JUMPDEST JUMPDEST DUP3 DUP3 MUL SWAP1 POP SWAP3 SWAP2 POP POP JUMP JUMPDEST PUSH1 0x0 PUSH2 0x2373 DUP3 PUSH2 0x240E JUMP JUMPDEST SWAP2 POP PUSH2 0x237E DUP4 PUSH2 0x240E JUMP JUMPDEST SWAP3 POP DUP3 PUSH32 0x8000000000000000000000000000000000000000000000000000000000000000 ADD DUP3 SLT PUSH1 0x0 DUP5 SLT ISZERO AND ISZERO PUSH2 0x23B9 JUMPI PUSH2 0x23B8 PUSH2 0x24F7 JUMP JUMPDEST JUMPDEST DUP3 PUSH32 0x7FFFFFFFFFFFFFFFFFFFFFFFFFFFFFFFFFFFFFFFFFFFFFFFFFFFFFFFFFFFFFFF ADD DUP3 SGT PUSH1 0x0 DUP5 SLT AND ISZERO PUSH2 0x23F1 JUMPI PUSH2 0x23F0 PUSH2 0x24F7 JUMP JUMPDEST JUMPDEST DUP3 DUP3 SUB SWAP1 POP SWAP3 SWAP2 POP POP JUMP JUMPDEST PUSH1 0x0 PUSH2 0x2407 DUP3 PUSH2 0x2432 JUMP JUMPDEST SWAP1 POP SWAP2 SWAP1 POP JUMP JUMPDEST PUSH1 0x0 DUP2 SWAP1 POP SWAP2 SWAP1 POP JUMP JUMPDEST PUSH1 0x0 DUP2 PUSH1 0x3 SIGNEXTEND SWAP1 POP SWAP2 SWAP1 POP JUMP JUMPDEST PUSH1 0x0 DUP2 PUSH1 0x7 SIGNEXTEND SWAP1 POP SWAP2 SWAP1 POP JUMP JUMPDEST PUSH1 0x0 PUSH20 0xFFFFFFFFFFFFFFFFFFFFFFFFFFFFFFFFFFFFFFFF DUP3 AND SWAP1 POP SWAP2 SWAP1 POP JUMP JUMPDEST DUP3 DUP2 DUP4 CALLDATACOPY PUSH1 0x0 DUP4 DUP4 ADD MSTORE POP POP POP JUMP JUMPDEST PUSH1 0x0 JUMPDEST DUP4 DUP2 LT ISZERO PUSH2 0x247F JUMPI DUP1 DUP3 ADD MLOAD DUP2 DUP5 ADD MSTORE PUSH1 0x20 DUP2 ADD SWAP1 POP PUSH2 0x2464 JUMP JUMPDEST DUP4 DUP2 GT ISZERO PUSH2 0x248E JUMPI PUSH1 0x0 DUP5 DUP5 ADD MSTORE JUMPDEST POP POP POP POP JUMP JUMPDEST PUSH1 0x0 PUSH1 0x2 DUP3 DIV SWAP1 POP PUSH1 0x1 DUP3 AND DUP1 PUSH2 0x24AC JUMPI PUSH1 0x7F DUP3 AND SWAP2 POP JUMPDEST PUSH1 0x20 DUP3 LT DUP2 EQ ISZERO PUSH2 0x24C0 JUMPI PUSH2 0x24BF PUSH2 0x2555 JUMP JUMPDEST JUMPDEST POP SWAP2 SWAP1 POP JUMP JUMPDEST PUSH2 0x24CF DUP3 PUSH2 0x25C7 JUMP JUMPDEST DUP2 ADD DUP2 DUP2 LT PUSH8 0xFFFFFFFFFFFFFFFF DUP3 GT OR ISZERO PUSH2 0x24EE JUMPI PUSH2 0x24ED PUSH2 0x2584 JUMP JUMPDEST JUMPDEST DUP1 PUSH1 0x40 MSTORE POP POP POP JUMP JUMPDEST PUSH32 0x4E487B7100000000000000000000000000000000000000000000000000000000 PUSH1 0x0 MSTORE PUSH1 0x11 PUSH1 0x4 MSTORE PUSH1 0x24 PUSH1 0x0 REVERT JUMPDEST PUSH32 0x4E487B7100000000000000000000000000000000000000000000000000000000 PUSH1 0x0 MSTORE PUSH1 0x12 PUSH1 0x4 MSTORE PUSH1 0x24 PUSH1 0x0 REVERT JUMPDEST PUSH32 0x4E487B7100000000000000000000000000000000000000000000000000000000 PUSH1 0x0 MSTORE PUSH1 0x22 PUSH1 0x4 MSTORE PUSH1 0x24 PUSH1 0x0 REVERT JUMPDEST PUSH32 0x4E487B7100000000000000000000000000000000000000000000000000000000 PUSH1 0x0 MSTORE PUSH1 0x41 PUSH1 0x4 MSTORE PUSH1 0x24 PUSH1 0x0 REVERT JUMPDEST PUSH1 0x0 DUP1 REVERT JUMPDEST PUSH1 0x0 DUP1 REVERT JUMPDEST PUSH1 0x0 DUP1 REVERT JUMPDEST PUSH1 0x0 DUP1 REVERT JUMPDEST PUSH1 0x0 PUSH1 0x1F NOT PUSH1 0x1F DUP4 ADD AND SWAP1 POP SWAP2 SWAP1 POP JUMP JUMPDEST PUSH32 0x5472616E73666572206661696C65640000000000000000000000000000000000 PUSH1 0x0 DUP3 ADD MSTORE POP JUMP JUMPDEST PUSH32 0x4173736F6369617465206661696C656400000000000000000000000000000000 PUSH1 0x0 DUP3 ADD MSTORE POP JUMP JUMPDEST PUSH32 0x446973736F6369617465206661696C6564000000000000000000000000000000 PUSH1 0x0 DUP3 ADD MSTORE POP JUMP JUMPDEST PUSH2 0x265C DUP2 PUSH2 0x23FC JUMP JUMPDEST DUP2 EQ PUSH2 0x2667 JUMPI PUSH1 0x0 DUP1 REVERT JUMPDEST POP JUMP JUMPDEST PUSH2 0x2673 DUP2 PUSH2 0x240E JUMP JUMPDEST DUP2 EQ PUSH2 0x267E JUMPI PUSH1 0x0 DUP1 REVERT JUMPDEST POP JUMP JUMPDEST PUSH2 0x268A DUP2 PUSH2 0x2418 JUMP JUMPDEST DUP2 EQ PUSH2 0x2695 JUMPI PUSH1 0x0 DUP1 REVERT JUMPDEST POP JUMP JUMPDEST PUSH2 0x26A1 DUP2 PUSH2 0x2425 JUMP JUMPDEST DUP2 EQ PUSH2 0x26AC JUMPI PUSH1 0x0 DUP1 REVERT JUMPDEST POP JUMP INVALID LOG2 PUSH5 0x6970667358 0x22 SLT KECCAK256 SGT OR 0xA6 PUSH12 0x24BD0E4B4B4578260951675C CALL 0x2E MSTORE8 SHR SGT DUP9 CALLDATASIZE 0xC7 0x4D 0x49 0xBE MOD LOG0 0xB0 SWAP10 CREATE PUSH5 0x736F6C6343 STOP ADDMOD SMOD STOP CALLER "
		},
		"gasEstimates": {
			"creation": {
				"codeDepositCost": "1991400",
				"executionCost": "infinite",
				"totalCost": "infinite"
			},
			"external": {
				"deposit(string,int256)": "infinite",
				"getCurrentState()": "infinite",
				"getFormulaVariableValue(string)": "infinite",
				"getPostSwapDetails(string,string,int256)": "infinite",
				"getTokenDetail(string,string)": "infinite",
				"getWalletBalanceA()": "4818",
				"getWalletBalanceB()": "4819",
				"signup()": "infinite",
				"tokenAssociate(address,address)": "infinite",
				"tokenDissociate(address,address)": "infinite",
				"tokenTransfer(address,address,address,int64)": "infinite",
				"withdrawal(string,int256)": "infinite"
			},
			"internal": {
				"tokenNameCheck(string memory)": "infinite"
			}
		},
		"methodIdentifiers": {
			"deposit(string,int256)": "d898fe32",
			"getCurrentState()": "378aa701",
			"getFormulaVariableValue(string)": "cb04040a",
			"getPostSwapDetails(string,string,int256)": "1ceb689d",
			"getTokenDetail(string,string)": "12ca6ef3",
			"getWalletBalanceA()": "87b3d113",
			"getWalletBalanceB()": "26c9274d",
			"signup()": "b7bc0f73",
			"tokenAssociate(address,address)": "7f6314d0",
			"tokenDissociate(address,address)": "4753b51b",
			"tokenTransfer(address,address,address,int64)": "3a04033c",
			"withdrawal(string,int256)": "56d0b378"
		}
	},
	"abi": [
		{
			"inputs": [],
			"stateMutability": "nonpayable",
			"type": "constructor"
		},
		{
			"anonymous": false,
			"inputs": [
				{
					"indexed": false,
					"internalType": "int256",
					"name": "withdrawAmount",
					"type": "int256"
				}
			],
			"name": "Deposit",
			"type": "event"
		},
		{
			"anonymous": false,
			"inputs": [
				{
					"indexed": false,
					"internalType": "int256",
					"name": "responseCodeA",
					"type": "int256"
				},
				{
					"indexed": false,
					"internalType": "int256",
					"name": "responseCodeB",
					"type": "int256"
				}
			],
			"name": "InitializationAssociatation",
			"type": "event"
		},
		{
			"anonymous": false,
			"inputs": [
				{
					"indexed": false,
					"internalType": "int256",
					"name": "responseCodeA",
					"type": "int256"
				},
				{
					"indexed": false,
					"internalType": "int256",
					"name": "responseCodeB",
					"type": "int256"
				}
			],
			"name": "InitializationLiquidityAdd",
			"type": "event"
		},
		{
			"anonymous": false,
			"inputs": [
				{
					"indexed": true,
					"internalType": "address",
					"name": "account",
					"type": "address"
				},
				{
					"indexed": false,
					"internalType": "int256",
					"name": "walletTokenA",
					"type": "int256"
				},
				{
					"indexed": false,
					"internalType": "int256",
					"name": "walletTokenB",
					"type": "int256"
				}
			],
			"name": "Signup",
			"type": "event"
		},
		{
			"anonymous": false,
			"inputs": [
				{
					"indexed": false,
					"internalType": "bool",
					"name": "success",
					"type": "bool"
				},
				{
					"indexed": false,
					"internalType": "bytes",
					"name": "result",
					"type": "bytes"
				}
			],
			"name": "Test",
			"type": "event"
		},
		{
			"anonymous": false,
			"inputs": [
				{
					"indexed": false,
					"internalType": "int256",
					"name": "depositAmount",
					"type": "int256"
				}
			],
			"name": "Withdrawal",
			"type": "event"
		},
		{
			"inputs": [
				{
					"internalType": "string",
					"name": "token",
					"type": "string"
				},
				{
					"internalType": "int256",
					"name": "amount",
					"type": "int256"
				}
			],
			"name": "deposit",
			"outputs": [],
			"stateMutability": "nonpayable",
			"type": "function"
		},
		{
			"inputs": [],
			"name": "getCurrentState",
			"outputs": [
				{
					"internalType": "int256",
					"name": "_quantityA",
					"type": "int256"
				},
				{
					"internalType": "int256",
					"name": "_quantityB",
					"type": "int256"
				},
				{
					"internalType": "int256",
					"name": "_priceA",
					"type": "int256"
				},
				{
					"internalType": "int256",
					"name": "_priceB",
					"type": "int256"
				},
				{
					"internalType": "int256",
					"name": "_k",
					"type": "int256"
				},
				{
					"internalType": "int256",
					"name": "_x",
					"type": "int256"
				},
				{
					"internalType": "int256",
					"name": "_y",
					"type": "int256"
				}
			],
			"stateMutability": "view",
			"type": "function"
		},
		{
			"inputs": [
				{
					"internalType": "string",
					"name": "value",
					"type": "string"
				}
			],
			"name": "getFormulaVariableValue",
			"outputs": [
				{
					"internalType": "int256",
					"name": "",
					"type": "int256"
				}
			],
			"stateMutability": "view",
			"type": "function"
		},
		{
			"inputs": [
				{
					"internalType": "string",
					"name": "token",
					"type": "string"
				},
				{
					"internalType": "string",
					"name": "direction",
					"type": "string"
				},
				{
					"internalType": "int256",
					"name": "amount",
					"type": "int256"
				}
			],
			"name": "getPostSwapDetails",
			"outputs": [
				{
					"internalType": "int256",
					"name": "newQuantityA",
					"type": "int256"
				},
				{
					"internalType": "int256",
					"name": "newQuantityB",
					"type": "int256"
				},
				{
					"internalType": "int256",
					"name": "newPriceA",
					"type": "int256"
				},
				{
					"internalType": "int256",
					"name": "newPriceB",
					"type": "int256"
				},
				{
					"internalType": "int256",
					"name": "oppositeAmountRequired",
					"type": "int256"
				}
			],
			"stateMutability": "view",
			"type": "function"
		},
		{
			"inputs": [
				{
					"internalType": "string",
					"name": "token",
					"type": "string"
				},
				{
					"internalType": "string",
					"name": "detail",
					"type": "string"
				}
			],
			"name": "getTokenDetail",
			"outputs": [
				{
					"internalType": "int256",
					"name": "",
					"type": "int256"
				}
			],
			"stateMutability": "view",
			"type": "function"
		},
		{
			"inputs": [],
			"name": "getWalletBalanceA",
			"outputs": [
				{
					"internalType": "int256",
					"name": "",
					"type": "int256"
				}
			],
			"stateMutability": "view",
			"type": "function"
		},
		{
			"inputs": [],
			"name": "getWalletBalanceB",
			"outputs": [
				{
					"internalType": "int256",
					"name": "",
					"type": "int256"
				}
			],
			"stateMutability": "view",
			"type": "function"
		},
		{
			"inputs": [],
			"name": "signup",
			"outputs": [],
			"stateMutability": "nonpayable",
			"type": "function"
		},
		{
			"inputs": [
				{
					"internalType": "address",
					"name": "sender",
					"type": "address"
				},
				{
					"internalType": "address",
					"name": "tokenAddress",
					"type": "address"
				}
			],
			"name": "tokenAssociate",
			"outputs": [
				{
					"internalType": "int256",
					"name": "",
					"type": "int256"
				}
			],
			"stateMutability": "nonpayable",
			"type": "function"
		},
		{
			"inputs": [
				{
					"internalType": "address",
					"name": "sender",
					"type": "address"
				},
				{
					"internalType": "address",
					"name": "tokenAddress",
					"type": "address"
				}
			],
			"name": "tokenDissociate",
			"outputs": [
				{
					"internalType": "int256",
					"name": "",
					"type": "int256"
				}
			],
			"stateMutability": "nonpayable",
			"type": "function"
		},
		{
			"inputs": [
				{
					"internalType": "address",
					"name": "tokenId",
					"type": "address"
				},
				{
					"internalType": "address",
					"name": "fromAccountId",
					"type": "address"
				},
				{
					"internalType": "address",
					"name": "toAccountId",
					"type": "address"
				},
				{
					"internalType": "int64",
					"name": "tokenAmount",
					"type": "int64"
				}
			],
			"name": "tokenTransfer",
			"outputs": [
				{
					"internalType": "int256",
					"name": "",
					"type": "int256"
				}
			],
			"stateMutability": "nonpayable",
			"type": "function"
		},
		{
			"inputs": [
				{
					"internalType": "string",
					"name": "token",
					"type": "string"
				},
				{
					"internalType": "int256",
					"name": "amount",
					"type": "int256"
				}
			],
			"name": "withdrawal",
			"outputs": [],
			"stateMutability": "nonpayable",
			"type": "function"
		}
	]
}