{
  "_format": "hh-sol-artifact-1",
  "contractName": "ERC20Contract",
  "sourceName": "contracts/ERC20Contract.sol",
  "abi": [
    {
      "inputs": [
        {
          "internalType": "address",
          "name": "token",
          "type": "address"
        },
        {
          "internalType": "address",
          "name": "owner",
          "type": "address"
        },
        {
          "internalType": "address",
          "name": "spender",
          "type": "address"
        }
      ],
      "name": "allowance",
      "outputs": [],
      "stateMutability": "view",
      "type": "function"
    },
    {
      "inputs": [
        {
          "internalType": "address",
          "name": "token",
          "type": "address"
        },
        {
          "internalType": "address",
          "name": "spender",
          "type": "address"
        },
        {
          "internalType": "uint256",
          "name": "amount",
          "type": "uint256"
        }
      ],
      "name": "approve",
      "outputs": [],
      "stateMutability": "nonpayable",
      "type": "function"
    },
    {
      "inputs": [
        {
          "internalType": "address",
          "name": "token",
          "type": "address"
        },
        {
          "internalType": "address",
          "name": "account",
          "type": "address"
        }
      ],
      "name": "balanceOf",
      "outputs": [],
      "stateMutability": "view",
      "type": "function"
    },
    {
      "inputs": [
        {
          "internalType": "address",
          "name": "token",
          "type": "address"
        }
      ],
      "name": "decimals",
      "outputs": [],
      "stateMutability": "view",
      "type": "function"
    },
    {
      "inputs": [
        {
          "internalType": "address",
          "name": "token",
          "type": "address"
        },
        {
          "internalType": "address",
          "name": "recipient",
          "type": "address"
        },
        {
          "internalType": "uint256",
          "name": "amount",
          "type": "uint256"
        }
      ],
      "name": "delegateTransfer",
      "outputs": [],
      "stateMutability": "nonpayable",
      "type": "function"
    },
    {
      "inputs": [
        {
          "internalType": "address",
          "name": "token",
          "type": "address"
        }
      ],
      "name": "name",
      "outputs": [],
      "stateMutability": "view",
      "type": "function"
    },
    {
      "inputs": [
        {
          "internalType": "address",
          "name": "token",
          "type": "address"
        }
      ],
      "name": "symbol",
      "outputs": [],
      "stateMutability": "view",
      "type": "function"
    },
    {
      "inputs": [
        {
          "internalType": "address",
          "name": "token",
          "type": "address"
        }
      ],
      "name": "totalSupply",
      "outputs": [],
      "stateMutability": "view",
      "type": "function"
    },
    {
      "inputs": [
        {
          "internalType": "address",
          "name": "token",
          "type": "address"
        },
        {
          "internalType": "address",
          "name": "recipient",
          "type": "address"
        },
        {
          "internalType": "uint256",
          "name": "amount",
          "type": "uint256"
        }
      ],
      "name": "transfer",
      "outputs": [],
      "stateMutability": "nonpayable",
      "type": "function"
    },
    {
      "inputs": [
        {
          "internalType": "address",
          "name": "token",
          "type": "address"
        },
        {
          "internalType": "address",
          "name": "sender",
          "type": "address"
        },
        {
          "internalType": "address",
          "name": "recipient",
          "type": "address"
        },
        {
          "internalType": "uint256",
          "name": "amount",
          "type": "uint256"
        }
      ],
      "name": "transferFrom",
      "outputs": [],
      "stateMutability": "nonpayable",
      "type": "function"
    }
  ],
  "bytecode": "0x608060405234801561001057600080fd5b50610d9f806100206000396000f3fe608060405234801561001057600080fd5b506004361061009e5760003560e01c8063d449a83211610066578063d449a8321461012f578063e1f21c671461014b578063e4dc2aa414610167578063f4b79da514610183578063f7888aec1461019f5761009e565b806301984892146100a357806315dacbea146100bf578063927da105146100db578063a86e3576146100f7578063beabacc814610113575b600080fd5b6100bd60048036038101906100b8919061087c565b6101bb565b005b6100d960048036038101906100d49190610930565b610242565b005b6100f560048036038101906100f091906108e1565b6102d8565b005b610111600480360381019061010c919061087c565b610369565b005b61012d60048036038101906101289190610993565b6103f0565b005b6101496004803603810190610144919061087c565b610483565b005b61016560048036038101906101609190610993565b610505565b005b610181600480360381019061017c919061087c565b610598565b005b61019d60048036038101906101989190610993565b61061a565b005b6101b960048036038101906101b491906108a5565b61071d565b005b8073ffffffffffffffffffffffffffffffffffffffff166306fdde036040518163ffffffff1660e01b815260040160006040518083038186803b15801561020157600080fd5b505afa158015610215573d6000803e3d6000fd5b505050506040513d6000823e3d601f19601f8201168201806040525081019061023e9190610a0b565b5050565b8373ffffffffffffffffffffffffffffffffffffffff166323b872dd8484846040518463ffffffff1660e01b815260040161027f93929190610b48565b602060405180830381600087803b15801561029957600080fd5b505af11580156102ad573d6000803e3d6000fd5b505050506040513d601f19601f820116820180604052508101906102d191906109e2565b5050505050565b8273ffffffffffffffffffffffffffffffffffffffff1663dd62ed3e83836040518363ffffffff1660e01b8152600401610313929190610b1f565b60206040518083038186803b15801561032b57600080fd5b505afa15801561033f573d6000803e3d6000fd5b505050506040513d601f19601f820116820180604052508101906103639190610a4c565b50505050565b8073ffffffffffffffffffffffffffffffffffffffff166395d89b416040518163ffffffff1660e01b815260040160006040518083038186803b1580156103af57600080fd5b505afa1580156103c3573d6000803e3d6000fd5b505050506040513d6000823e3d601f19601f820116820180604052508101906103ec9190610a0b565b5050565b8273ffffffffffffffffffffffffffffffffffffffff1663a9059cbb83836040518363ffffffff1660e01b815260040161042b929190610b7f565b602060405180830381600087803b15801561044557600080fd5b505af1158015610459573d6000803e3d6000fd5b505050506040513d601f19601f8201168201806040525081019061047d91906109e2565b50505050565b8073ffffffffffffffffffffffffffffffffffffffff1663313ce5676040518163ffffffff1660e01b815260040160206040518083038186803b1580156104c957600080fd5b505afa1580156104dd573d6000803e3d6000fd5b505050506040513d601f19601f820116820180604052508101906105019190610a75565b5050565b8273ffffffffffffffffffffffffffffffffffffffff1663095ea7b383836040518363ffffffff1660e01b8152600401610540929190610b7f565b602060405180830381600087803b15801561055a57600080fd5b505af115801561056e573d6000803e3d6000fd5b505050506040513d601f19601f8201168201806040525081019061059291906109e2565b50505050565b8073ffffffffffffffffffffffffffffffffffffffff166318160ddd6040518163ffffffff1660e01b815260040160206040518083038186803b1580156105de57600080fd5b505afa1580156105f2573d6000803e3d6000fd5b505050506040513d601f19601f820116820180604052508101906106169190610a4c565b5050565b6000808473ffffffffffffffffffffffffffffffffffffffff168484604051602401610647929190610b7f565b6040516020818303038152906040527fa9059cbb000000000000000000000000000000000000000000000000000000007bffffffffffffffffffffffffffffffffffffffffffffffffffffffff19166020820180517bffffffffffffffffffffffffffffffffffffffffffffffffffffffff83818316178352505050506040516106d19190610aed565b600060405180830381855af49150503d806000811461070c576040519150601f19603f3d011682016040523d82523d6000602084013e610711565b606091505b50915091505050505050565b8173ffffffffffffffffffffffffffffffffffffffff166370a08231826040518263ffffffff1660e01b81526004016107569190610b04565b60206040518083038186803b15801561076e57600080fd5b505afa158015610782573d6000803e3d6000fd5b505050506040513d601f19601f820116820180604052508101906107a69190610a4c565b505050565b60006107be6107b984610bcd565b610ba8565b9050828152602081018484840111156107d657600080fd5b6107e1848285610c69565b509392505050565b6000813590506107f881610d0d565b92915050565b60008151905061080d81610d24565b92915050565b600082601f83011261082457600080fd5b81516108348482602086016107ab565b91505092915050565b60008135905061084c81610d3b565b92915050565b60008151905061086181610d3b565b92915050565b60008151905061087681610d52565b92915050565b60006020828403121561088e57600080fd5b600061089c848285016107e9565b91505092915050565b600080604083850312156108b857600080fd5b60006108c6858286016107e9565b92505060206108d7858286016107e9565b9150509250929050565b6000806000606084860312156108f657600080fd5b6000610904868287016107e9565b9350506020610915868287016107e9565b9250506040610926868287016107e9565b9150509250925092565b6000806000806080858703121561094657600080fd5b6000610954878288016107e9565b9450506020610965878288016107e9565b9350506040610976878288016107e9565b92505060606109878782880161083d565b91505092959194509250565b6000806000606084860312156109a857600080fd5b60006109b6868287016107e9565b93505060206109c7868287016107e9565b92505060406109d88682870161083d565b9150509250925092565b6000602082840312156109f457600080fd5b6000610a02848285016107fe565b91505092915050565b600060208284031215610a1d57600080fd5b600082015167ffffffffffffffff811115610a3757600080fd5b610a4384828501610813565b91505092915050565b600060208284031215610a5e57600080fd5b6000610a6c84828501610852565b91505092915050565b600060208284031215610a8757600080fd5b6000610a9584828501610867565b91505092915050565b610aa781610c14565b82525050565b6000610ab882610bfe565b610ac28185610c09565b9350610ad2818560208601610c69565b80840191505092915050565b610ae781610c52565b82525050565b6000610af98284610aad565b915081905092915050565b6000602082019050610b196000830184610a9e565b92915050565b6000604082019050610b346000830185610a9e565b610b416020830184610a9e565b9392505050565b6000606082019050610b5d6000830186610a9e565b610b6a6020830185610a9e565b610b776040830184610ade565b949350505050565b6000604082019050610b946000830185610a9e565b610ba16020830184610ade565b9392505050565b6000610bb2610bc3565b9050610bbe8282610c9c565b919050565b6000604051905090565b600067ffffffffffffffff821115610be857610be7610ccd565b5b610bf182610cfc565b9050602081019050919050565b600081519050919050565b600081905092915050565b6000610c1f82610c32565b9050919050565b60008115159050919050565b600073ffffffffffffffffffffffffffffffffffffffff82169050919050565b6000819050919050565b600060ff82169050919050565b60005b83811015610c87578082015181840152602081019050610c6c565b83811115610c96576000848401525b50505050565b610ca582610cfc565b810181811067ffffffffffffffff82111715610cc457610cc3610ccd565b5b80604052505050565b7f4e487b7100000000000000000000000000000000000000000000000000000000600052604160045260246000fd5b6000601f19601f8301169050919050565b610d1681610c14565b8114610d2157600080fd5b50565b610d2d81610c26565b8114610d3857600080fd5b50565b610d4481610c52565b8114610d4f57600080fd5b50565b610d5b81610c5c565b8114610d6657600080fd5b5056fea26469706673582212201bba4d2d5a4c69ece164a1621db5d3355959b9e3d2ea42b04b182468023a5b3964736f6c63430008040033",
  "linkReferences": {},
  "deployedLinkReferences": {}
}