{
  "_format": "hh-sol-artifact-1",
  "contractName": "SwapHederaTokens",
  "sourceName": "contracts/SwapHederaTokens.sol",
  "abi": [
    {
      "inputs": [],
      "stateMutability": "nonpayable",
      "type": "constructor"
    },
    {
      "inputs": [
        {
          "internalType": "address",
          "name": "fromAccount",
          "type": "address"
        },
        {
          "internalType": "address",
          "name": "_tokenA",
          "type": "address"
        },
        {
          "internalType": "address",
          "name": "_tokenB",
          "type": "address"
        },
        {
          "internalType": "int64",
          "name": "_tokenAQty",
          "type": "int64"
        },
        {
          "internalType": "int64",
          "name": "_tokenBQty",
          "type": "int64"
        }
      ],
      "name": "addLiquidity",
      "outputs": [],
      "stateMutability": "nonpayable",
      "type": "function"
    },
    {
      "inputs": [
        {
          "internalType": "address",
          "name": "fromAccount",
          "type": "address"
        }
      ],
      "name": "getContributorTokenShare",
      "outputs": [
        {
          "internalType": "int64",
          "name": "",
          "type": "int64"
        },
        {
          "internalType": "int64",
          "name": "",
          "type": "int64"
        }
      ],
      "stateMutability": "view",
      "type": "function"
    },
    {
      "inputs": [],
      "name": "getPairQty",
      "outputs": [
        {
          "internalType": "int64",
          "name": "",
          "type": "int64"
        },
        {
          "internalType": "int64",
          "name": "",
          "type": "int64"
        }
      ],
      "stateMutability": "view",
      "type": "function"
    },
    {
      "inputs": [
        {
          "internalType": "address",
          "name": "fromAccount",
          "type": "address"
        },
        {
          "internalType": "address",
          "name": "_tokenA",
          "type": "address"
        },
        {
          "internalType": "address",
          "name": "_tokenB",
          "type": "address"
        },
        {
          "internalType": "int64",
          "name": "_tokenAQty",
          "type": "int64"
        },
        {
          "internalType": "int64",
          "name": "_tokenBQty",
          "type": "int64"
        }
      ],
      "name": "initializeContract",
      "outputs": [],
      "stateMutability": "nonpayable",
      "type": "function"
    },
    {
      "inputs": [
        {
          "internalType": "address",
          "name": "toAccount",
          "type": "address"
        },
        {
          "internalType": "address",
          "name": "_tokenA",
          "type": "address"
        },
        {
          "internalType": "address",
          "name": "_tokenB",
          "type": "address"
        },
        {
          "internalType": "int64",
          "name": "_tokenAQty",
          "type": "int64"
        },
        {
          "internalType": "int64",
          "name": "_tokenBQty",
          "type": "int64"
        }
      ],
      "name": "removeLiquidity",
      "outputs": [],
      "stateMutability": "nonpayable",
      "type": "function"
    },
    {
      "inputs": [
        {
          "internalType": "address",
          "name": "to",
          "type": "address"
        },
        {
          "internalType": "address",
          "name": "_tokenA",
          "type": "address"
        },
        {
          "internalType": "address",
          "name": "_tokenB",
          "type": "address"
        },
        {
          "internalType": "int64",
          "name": "_deltaAQty",
          "type": "int64"
        },
        {
          "internalType": "int64",
          "name": "_deltaBQty",
          "type": "int64"
        }
      ],
      "name": "swapToken",
      "outputs": [],
      "stateMutability": "nonpayable",
      "type": "function"
    }
  ],
  "bytecode": "0x608060405234801561001057600080fd5b50336000806101000a81548173ffffffffffffffffffffffffffffffffffffffff021916908373ffffffffffffffffffffffffffffffffffffffff1602179055506128d0806100606000396000f3fe608060405234801561001057600080fd5b50600436106100625760003560e01c80632b26701a1461006757806358f615e8146100865780635e7853a0146100a2578063826bd8b4146100be57806389b1a490146100da578063972a31821461010b575b600080fd5b61006f610127565b60405161007d929190611d9a565b60405180910390f35b6100a0600480360381019061009b9190611a5f565b61015e565b005b6100bc60048036038101906100b79190611a5f565b6105c3565b005b6100d860048036038101906100d39190611a5f565b610ced565b005b6100f460048036038101906100ef9190611a36565b611168565b604051610102929190611d9a565b60405180910390f35b61012560048036038101906101209190611a5f565b6112ff565b005b600080600260000160000160149054906101000a900460070b600260010160000160149054906101000a900460070b915091509091565b81600260000160000160148282829054906101000a900460070b6101829190612157565b92506101000a81548167ffffffffffffffff021916908360070b67ffffffffffffffff16021790555080600260010160000160148282829054906101000a900460070b6101cf9190612157565b92506101000a81548167ffffffffffffffff021916908360070b67ffffffffffffffff1602179055506000610206853088866117c1565b9050601660030b811461024e576040517f08c379a000000000000000000000000000000000000000000000000000000000815260040161024590611ee3565b60405180910390fd5b61025a843088856117c1565b9050601660030b81146102a2576040517f08c379a000000000000000000000000000000000000000000000000000000000815260040161029990611de3565b60405180910390fd5b6000600160008873ffffffffffffffffffffffffffffffffffffffff1673ffffffffffffffffffffffffffffffffffffffff16815260200190815260200160002060405180602001604052908160008201604051806040016040529081600082016040518060400160405290816000820160009054906101000a900473ffffffffffffffffffffffffffffffffffffffff1673ffffffffffffffffffffffffffffffffffffffff1673ffffffffffffffffffffffffffffffffffffffff1681526020016000820160149054906101000a900460070b60070b60070b815250508152602001600182016040518060400160405290816000820160009054906101000a900473ffffffffffffffffffffffffffffffffffffffff1673ffffffffffffffffffffffffffffffffffffffff1673ffffffffffffffffffffffffffffffffffffffff1681526020016000820160149054906101000a900460070b60070b60070b81525050815250508152505090508381600001516000015160200181815161042c9190612157565b91509060070b908160070b81525050828160000151602001516020018181516104559190612157565b91509060070b908160070b8152505080600160008973ffffffffffffffffffffffffffffffffffffffff1673ffffffffffffffffffffffffffffffffffffffff16815260200190815260200160002060008201518160000160008201518160000160008201518160000160006101000a81548173ffffffffffffffffffffffffffffffffffffffff021916908373ffffffffffffffffffffffffffffffffffffffff16021790555060208201518160000160146101000a81548167ffffffffffffffff021916908360070b67ffffffffffffffff160217905550505060208201518160010160008201518160000160006101000a81548173ffffffffffffffffffffffffffffffffffffffff021916908373ffffffffffffffffffffffffffffffffffffffff16021790555060208201518160000160146101000a81548167ffffffffffffffff021916908360070b67ffffffffffffffff1602179055505050505090505050505050505050565b600260000160000160009054906101000a900473ffffffffffffffffffffffffffffffffffffffff1673ffffffffffffffffffffffffffffffffffffffff168473ffffffffffffffffffffffffffffffffffffffff1614806106785750600260010160000160009054906101000a900473ffffffffffffffffffffffffffffffffffffffff1673ffffffffffffffffffffffffffffffffffffffff168373ffffffffffffffffffffffffffffffffffffffff16145b6106b7576040517f08c379a00000000000000000000000000000000000000000000000000000000081526004016106ae90611f03565b60405180910390fd5b600080600260000160000160009054906101000a900473ffffffffffffffffffffffffffffffffffffffff1673ffffffffffffffffffffffffffffffffffffffff168673ffffffffffffffffffffffffffffffffffffffff1614156109ff57600260000160000160009054906101000a900473ffffffffffffffffffffffffffffffffffffffff1673ffffffffffffffffffffffffffffffffffffffff168673ffffffffffffffffffffffffffffffffffffffff161480156107cd5750600260010160000160009054906101000a900473ffffffffffffffffffffffffffffffffffffffff1673ffffffffffffffffffffffffffffffffffffffff168573ffffffffffffffffffffffffffffffffffffffff1614155b61080c576040517f08c379a000000000000000000000000000000000000000000000000000000000815260040161080390611ea3565b60405180910390fd5b83600260000160000160149054906101000a900460070b61082d9190611f8a565b84600260010160000160149054906101000a900460070b61084e9190612070565b6108589190612006565b905083600260000160000160148282829054906101000a900460070b61087e9190611f8a565b92506101000a81548167ffffffffffffffff021916908360070b67ffffffffffffffff16021790555060006108dd600260000160000160009054906101000a900473ffffffffffffffffffffffffffffffffffffffff168930886117c1565b9050601660030b8114610925576040517f08c379a000000000000000000000000000000000000000000000000000000000815260040161091c90611e83565b60405180910390fd5b81600260010160000160148282829054906101000a900460070b6109499190612157565b92506101000a81548167ffffffffffffffff021916908360070b67ffffffffffffffff16021790555061097c88876118df565b506109b1600260010160000160009054906101000a900473ffffffffffffffffffffffffffffffffffffffff16308a856117c1565b9050601660030b81146109f9576040517f08c379a00000000000000000000000000000000000000000000000000000000081526004016109f090611e63565b60405180910390fd5b50610ce4565b600260000160000160009054906101000a900473ffffffffffffffffffffffffffffffffffffffff1673ffffffffffffffffffffffffffffffffffffffff168673ffffffffffffffffffffffffffffffffffffffff1614158015610ab65750600260010160000160009054906101000a900473ffffffffffffffffffffffffffffffffffffffff1673ffffffffffffffffffffffffffffffffffffffff168573ffffffffffffffffffffffffffffffffffffffff16145b610af5576040517f08c379a0000000000000000000000000000000000000000000000000000000008152600401610aec90611f23565b60405180910390fd5b82600260010160000160149054906101000a900460070b610b169190611f8a565b83600260000160000160149054906101000a900460070b610b379190612070565b610b419190612006565b915082600260010160000160148282829054906101000a900460070b610b679190611f8a565b92506101000a81548167ffffffffffffffff021916908360070b67ffffffffffffffff1602179055506000610bc6600260010160000160009054906101000a900473ffffffffffffffffffffffffffffffffffffffff168930876117c1565b9050601660030b8114610c0e576040517f08c379a0000000000000000000000000000000000000000000000000000000008152600401610c0590611e43565b60405180910390fd5b82600260000160000160148282829054906101000a900460070b610c329190612157565b92506101000a81548167ffffffffffffffff021916908360070b67ffffffffffffffff160217905550610c6588886118df565b50610c9a600260000160000160009054906101000a900473ffffffffffffffffffffffffffffffffffffffff16308a866117c1565b9050601660030b8114610ce2576040517f08c379a0000000000000000000000000000000000000000000000000000000008152600401610cd990611f43565b60405180910390fd5b505b50505050505050565b81600260000160000160148282829054906101000a900460070b610d119190611f8a565b92506101000a81548167ffffffffffffffff021916908360070b67ffffffffffffffff16021790555080600260010160000160148282829054906101000a900460070b610d5e9190611f8a565b92506101000a81548167ffffffffffffffff021916908360070b67ffffffffffffffff160217905550610d9130856118df565b50610d9c30846118df565b506000610dab858730866117c1565b9050601660030b8114610df3576040517f08c379a0000000000000000000000000000000000000000000000000000000008152600401610dea90611e23565b60405180910390fd5b610dff848730856117c1565b9050601660030b8114610e47576040517f08c379a0000000000000000000000000000000000000000000000000000000008152600401610e3e90611e03565b60405180910390fd5b6000600160008873ffffffffffffffffffffffffffffffffffffffff1673ffffffffffffffffffffffffffffffffffffffff16815260200190815260200160002060405180602001604052908160008201604051806040016040529081600082016040518060400160405290816000820160009054906101000a900473ffffffffffffffffffffffffffffffffffffffff1673ffffffffffffffffffffffffffffffffffffffff1673ffffffffffffffffffffffffffffffffffffffff1681526020016000820160149054906101000a900460070b60070b60070b815250508152602001600182016040518060400160405290816000820160009054906101000a900473ffffffffffffffffffffffffffffffffffffffff1673ffffffffffffffffffffffffffffffffffffffff1673ffffffffffffffffffffffffffffffffffffffff1681526020016000820160149054906101000a900460070b60070b60070b815250508152505081525050905083816000015160000151602001818151610fd19190611f8a565b91509060070b908160070b8152505082816000015160200151602001818151610ffa9190611f8a565b91509060070b908160070b8152505080600160008973ffffffffffffffffffffffffffffffffffffffff1673ffffffffffffffffffffffffffffffffffffffff16815260200190815260200160002060008201518160000160008201518160000160008201518160000160006101000a81548173ffffffffffffffffffffffffffffffffffffffff021916908373ffffffffffffffffffffffffffffffffffffffff16021790555060208201518160000160146101000a81548167ffffffffffffffff021916908360070b67ffffffffffffffff160217905550505060208201518160010160008201518160000160006101000a81548173ffffffffffffffffffffffffffffffffffffffff021916908373ffffffffffffffffffffffffffffffffffffffff16021790555060208201518160000160146101000a81548167ffffffffffffffff021916908360070b67ffffffffffffffff1602179055505050505090505050505050505050565b6000806000600160008573ffffffffffffffffffffffffffffffffffffffff1673ffffffffffffffffffffffffffffffffffffffff16815260200190815260200160002060405180602001604052908160008201604051806040016040529081600082016040518060400160405290816000820160009054906101000a900473ffffffffffffffffffffffffffffffffffffffff1673ffffffffffffffffffffffffffffffffffffffff1673ffffffffffffffffffffffffffffffffffffffff1681526020016000820160149054906101000a900460070b60070b60070b815250508152602001600182016040518060400160405290816000820160009054906101000a900473ffffffffffffffffffffffffffffffffffffffff1673ffffffffffffffffffffffffffffffffffffffff1673ffffffffffffffffffffffffffffffffffffffff1681526020016000820160149054906101000a900460070b60070b60070b815250508152505081525050905080600001516000015160200151816000015160200151602001519250925050915091565b604051806040016040528060405180604001604052808773ffffffffffffffffffffffffffffffffffffffff1681526020018560070b815250815260200160405180604001604052808673ffffffffffffffffffffffffffffffffffffffff1681526020018460070b815250815250600260008201518160000160008201518160000160006101000a81548173ffffffffffffffffffffffffffffffffffffffff021916908373ffffffffffffffffffffffffffffffffffffffff16021790555060208201518160000160146101000a81548167ffffffffffffffff021916908360070b67ffffffffffffffff160217905550505060208201518160010160008201518160000160006101000a81548173ffffffffffffffffffffffffffffffffffffffff021916908373ffffffffffffffffffffffffffffffffffffffff16021790555060208201518160000160146101000a81548167ffffffffffffffff021916908360070b67ffffffffffffffff160217905550505090505060405180602001604052806002604051806040016040529081600082016040518060400160405290816000820160009054906101000a900473ffffffffffffffffffffffffffffffffffffffff1673ffffffffffffffffffffffffffffffffffffffff1673ffffffffffffffffffffffffffffffffffffffff1681526020016000820160149054906101000a900460070b60070b60070b815250508152602001600182016040518060400160405290816000820160009054906101000a900473ffffffffffffffffffffffffffffffffffffffff1673ffffffffffffffffffffffffffffffffffffffff1673ffffffffffffffffffffffffffffffffffffffff1681526020016000820160149054906101000a900460070b60070b60070b8152505081525050815250600160008773ffffffffffffffffffffffffffffffffffffffff1673ffffffffffffffffffffffffffffffffffffffff16815260200190815260200160002060008201518160000160008201518160000160008201518160000160006101000a81548173ffffffffffffffffffffffffffffffffffffffff021916908373ffffffffffffffffffffffffffffffffffffffff16021790555060208201518160000160146101000a81548167ffffffffffffffff021916908360070b67ffffffffffffffff160217905550505060208201518160010160008201518160000160006101000a81548173ffffffffffffffffffffffffffffffffffffffff021916908373ffffffffffffffffffffffffffffffffffffffff16021790555060208201518160000160146101000a81548167ffffffffffffffff021916908360070b67ffffffffffffffff1602179055505050505090505061170330856118df565b5061170e30846118df565b50600061171d858730866117c1565b9050601660030b8114611765576040517f08c379a000000000000000000000000000000000000000000000000000000000815260040161175c90611ec3565b60405180910390fd5b611771848730856117c1565b9050601660030b81146117b9576040517f08c379a00000000000000000000000000000000000000000000000000000000081526004016117b090611dc3565b60405180910390fd5b505050505050565b600080600061016773ffffffffffffffffffffffffffffffffffffffff1663eca3691760e01b888888886040516024016117fe9493929190611d55565b604051602081830303815290604052907bffffffffffffffffffffffffffffffffffffffffffffffffffffffff19166020820180517bffffffffffffffffffffffffffffffffffffffffffffffffffffffff83818316178352505050506040516118689190611d15565b6000604051808303816000865af19150503d80600081146118a5576040519150601f19603f3d011682016040523d82523d6000602084013e6118aa565b606091505b5091509150816118bb5760156118d0565b808060200190518101906118cf9190611ad6565b5b60030b92505050949350505050565b600080600061016773ffffffffffffffffffffffffffffffffffffffff166349146bde60e01b8686604051602401611918929190611d2c565b604051602081830303815290604052907bffffffffffffffffffffffffffffffffffffffffffffffffffffffff19166020820180517bffffffffffffffffffffffffffffffffffffffffffffffffffffffff83818316178352505050506040516119829190611d15565b6000604051808303816000865af19150503d80600081146119bf576040519150601f19603f3d011682016040523d82523d6000602084013e6119c4565b606091505b5091509150816119d55760156119ea565b808060200190518101906119e99190611ad6565b5b60030b9250505092915050565b600081359050611a0681612855565b92915050565b600081519050611a1b8161286c565b92915050565b600081359050611a3081612883565b92915050565b600060208284031215611a4857600080fd5b6000611a56848285016119f7565b91505092915050565b600080600080600060a08688031215611a7757600080fd5b6000611a85888289016119f7565b9550506020611a96888289016119f7565b9450506040611aa7888289016119f7565b9350506060611ab888828901611a21565b9250506080611ac988828901611a21565b9150509295509295909350565b600060208284031215611ae857600080fd5b6000611af684828501611a0c565b91505092915050565b611b08816121d3565b82525050565b6000611b1982611f63565b611b238185611f6e565b9350611b3381856020860161221f565b80840191505092915050565b611b48816121f2565b82525050565b6000611b5b604a83611f79565b9150611b66826122b0565b606082019050919050565b6000611b7e604983611f79565b9150611b8982612325565b606082019050919050565b6000611ba1604683611f79565b9150611bac8261239a565b606082019050919050565b6000611bc4604683611f79565b9150611bcf8261240f565b606082019050919050565b6000611be7604383611f79565b9150611bf282612484565b606082019050919050565b6000611c0a604383611f79565b9150611c15826124f9565b606082019050919050565b6000611c2d604383611f79565b9150611c388261256e565b606082019050919050565b6000611c50604883611f79565b9150611c5b826125e3565b606082019050919050565b6000611c73604a83611f79565b9150611c7e82612658565b606082019050919050565b6000611c96604983611f79565b9150611ca1826126cd565b606082019050919050565b6000611cb9601f83611f79565b9150611cc482612742565b602082019050919050565b6000611cdc604883611f79565b9150611ce78261276b565b606082019050919050565b6000611cff604383611f79565b9150611d0a826127e0565b606082019050919050565b6000611d218284611b0e565b915081905092915050565b6000604082019050611d416000830185611aff565b611d4e6020830184611aff565b9392505050565b6000608082019050611d6a6000830187611aff565b611d776020830186611aff565b611d846040830185611aff565b611d916060830184611b3f565b95945050505050565b6000604082019050611daf6000830185611b3f565b611dbc6020830184611b3f565b9392505050565b60006020820190508181036000830152611ddc81611b4e565b9050919050565b60006020820190508181036000830152611dfc81611b71565b9050919050565b60006020820190508181036000830152611e1c81611b94565b9050919050565b60006020820190508181036000830152611e3c81611bb7565b9050919050565b60006020820190508181036000830152611e5c81611bda565b9050919050565b60006020820190508181036000830152611e7c81611bfd565b9050919050565b60006020820190508181036000830152611e9c81611c20565b9050919050565b60006020820190508181036000830152611ebc81611c43565b9050919050565b60006020820190508181036000830152611edc81611c66565b9050919050565b60006020820190508181036000830152611efc81611c89565b9050919050565b60006020820190508181036000830152611f1c81611cac565b9050919050565b60006020820190508181036000830152611f3c81611ccf565b9050919050565b60006020820190508181036000830152611f5c81611cf2565b9050919050565b600081519050919050565b600081905092915050565b600082825260208201905092915050565b6000611f95826121f2565b9150611fa0836121f2565b925081677fffffffffffffff03831360008312151615611fc357611fc2612252565b5b817fffffffffffffffffffffffffffffffffffffffffffffffff8000000000000000038312600083121615611ffb57611ffa612252565b5b828201905092915050565b6000612011826121f2565b915061201c836121f2565b92508261202c5761202b612281565b5b600160000383147fffffffffffffffffffffffffffffffffffffffffffffffff80000000000000008314161561206557612064612252565b5b828205905092915050565b600061207b826121f2565b9150612086836121f2565b925082677fffffffffffffff04821160008413600084131616156120ad576120ac612252565b5b817fffffffffffffffffffffffffffffffffffffffffffffffff800000000000000005831260008412600084131616156120ea576120e9612252565b5b827fffffffffffffffffffffffffffffffffffffffffffffffff8000000000000000058212600084136000841216161561212757612126612252565b5b82677fffffffffffffff058212600084126000841216161561214c5761214b612252565b5b828202905092915050565b6000612162826121f2565b915061216d836121f2565b9250827fffffffffffffffffffffffffffffffffffffffffffffffff8000000000000000018212600084121516156121a8576121a7612252565b5b82677fffffffffffffff0182136000841216156121c8576121c7612252565b5b828203905092915050565b60006121de826121ff565b9050919050565b60008160030b9050919050565b60008160070b9050919050565b600073ffffffffffffffffffffffffffffffffffffffff82169050919050565b60005b8381101561223d578082015181840152602081019050612222565b8381111561224c576000848401525b50505050565b7f4e487b7100000000000000000000000000000000000000000000000000000000600052601160045260246000fd5b7f4e487b7100000000000000000000000000000000000000000000000000000000600052601260045260246000fd5b7f4372656174696e6720636f6e74726163743a205472616e73666572696e67207460008201527f6f6b656e204220746f20636f6e7472616374206661696c65642077697468207360208201527f746174757320636f646500000000000000000000000000000000000000000000604082015250565b7f52656d6f7665206c69717569646974793a205472616e73666572696e6720746f60008201527f6b656e204220746f20636f6e7472616374206661696c6564207769746820737460208201527f6174757320636f64650000000000000000000000000000000000000000000000604082015250565b7f416464206c69717569646974793a205472616e73666572696e6720746f6b656e60008201527f204220746f20636f6e7472616374206661696c6564207769746820737461747560208201527f7320636f64650000000000000000000000000000000000000000000000000000604082015250565b7f416464206c69717569646974793a205472616e73666572696e6720746f6b656e60008201527f204120746f20636f6e7472616374206661696c6564207769746820737461747560208201527f7320636f64650000000000000000000000000000000000000000000000000000604082015250565b7f73776170546f6b656e423a205472616e73666572696e6720746f6b656e20422060008201527f746f20636f6e7472616374206661696c6564207769746820737461747573206360208201527f6f64650000000000000000000000000000000000000000000000000000000000604082015250565b7f73776170546f6b656e413a205472616e73666572696e6720746f6b656e20422060008201527f746f20636f6e7472616374206661696c6564207769746820737461747573206360208201527f6f64650000000000000000000000000000000000000000000000000000000000604082015250565b7f73776170546f6b656e413a205472616e73666572696e6720746f6b656e20412060008201527f746f20636f6e7472616374206661696c6564207769746820737461747573206360208201527f6f64650000000000000000000000000000000000000000000000000000000000604082015250565b7f546f6b656e20412073686f756c64206861766520636f7272656374206164647260008201527f65737320616e6420746f6b656e204220616464726573732077696c6c2062652060208201527f69676e6f7265642e000000000000000000000000000000000000000000000000604082015250565b7f4372656174696e6720636f6e74726163743a205472616e73666572696e67207460008201527f6f6b656e204120746f20636f6e7472616374206661696c65642077697468207360208201527f746174757320636f646500000000000000000000000000000000000000000000604082015250565b7f52656d6f7665206c69717569646974793a205472616e73666572696e6720746f60008201527f6b656e204120746f20636f6e7472616374206661696c6564207769746820737460208201527f6174757320636f64650000000000000000000000000000000000000000000000604082015250565b7f506c73207061737320636f727265637420746f6b656e20746f20737761702e00600082015250565b7f546f6b656e20422073686f756c64206861766520636f7272656374206164647260008201527f65737320616e6420746f6b656e204120616464726573732077696c6c2062652060208201527f69676e6f7265642e000000000000000000000000000000000000000000000000604082015250565b7f73776170546f6b656e423a205472616e73666572696e6720746f6b656e20412060008201527f746f20636f6e7472616374206661696c6564207769746820737461747573206360208201527f6f64650000000000000000000000000000000000000000000000000000000000604082015250565b61285e816121d3565b811461286957600080fd5b50565b612875816121e5565b811461288057600080fd5b50565b61288c816121f2565b811461289757600080fd5b5056fea2646970667358221220d90a725c645442baaddb814de455546390202347d8732aa0a9d88ae27aad42fd64736f6c63430008040033",
  "linkReferences": {},
  "deployedLinkReferences": {}
}