{
  "_format": "hh-sol-artifact-1",
  "contractName": "SwapHederaTokens",
  "sourceName": "contracts/SwapHederaTokens.sol",
  "abi": [
    {
      "inputs": [],
      "stateMutability": "nonpayable",
      "type": "constructor"
    },
    {
      "inputs": [
        {
          "internalType": "address",
          "name": "fromAccount",
          "type": "address"
        },
        {
          "internalType": "address",
          "name": "_token0",
          "type": "address"
        },
        {
          "internalType": "address",
          "name": "_token1",
          "type": "address"
        },
        {
          "internalType": "int64",
          "name": "_token0Qty",
          "type": "int64"
        },
        {
          "internalType": "int64",
          "name": "_token1Qty",
          "type": "int64"
        }
      ],
      "name": "addLiquidity",
      "outputs": [
        {
          "internalType": "int64",
          "name": "",
          "type": "int64"
        },
        {
          "internalType": "int64",
          "name": "",
          "type": "int64"
        },
        {
          "internalType": "string",
          "name": "",
          "type": "string"
        }
      ],
      "stateMutability": "nonpayable",
      "type": "function"
    },
    {
      "inputs": [
        {
          "internalType": "address",
          "name": "tokenAddress",
          "type": "address"
        }
      ],
      "name": "getContractBalance",
      "outputs": [
        {
          "internalType": "int256",
          "name": "",
          "type": "int256"
        }
      ],
      "stateMutability": "view",
      "type": "function"
    },
    {
      "inputs": [
        {
          "internalType": "address",
          "name": "_token0",
          "type": "address"
        },
        {
          "internalType": "address",
          "name": "_token1",
          "type": "address"
        }
      ],
      "name": "getPairQty",
      "outputs": [
        {
          "internalType": "int64",
          "name": "",
          "type": "int64"
        },
        {
          "internalType": "int64",
          "name": "",
          "type": "int64"
        }
      ],
      "stateMutability": "view",
      "type": "function"
    },
    {
      "inputs": [
        {
          "internalType": "address",
          "name": "_token0",
          "type": "address"
        },
        {
          "internalType": "address",
          "name": "_token1",
          "type": "address"
        }
      ],
      "name": "getPoolBalance",
      "outputs": [
        {
          "internalType": "int64",
          "name": "",
          "type": "int64"
        },
        {
          "internalType": "int64",
          "name": "",
          "type": "int64"
        }
      ],
      "stateMutability": "view",
      "type": "function"
    },
    {
      "inputs": [
        {
          "internalType": "address",
          "name": "to",
          "type": "address"
        },
        {
          "internalType": "address",
          "name": "_tokenA",
          "type": "address"
        },
        {
          "internalType": "address",
          "name": "_tokenB",
          "type": "address"
        },
        {
          "internalType": "int64",
          "name": "_deltaAQty",
          "type": "int64"
        },
        {
          "internalType": "int64",
          "name": "_deltaBQty",
          "type": "int64"
        }
      ],
      "name": "swapToken",
      "outputs": [],
      "stateMutability": "nonpayable",
      "type": "function"
    }
  ],
  "bytecode": "0x60806040526001805534801561001457600080fd5b5033600260006101000a81548173ffffffffffffffffffffffffffffffffffffffff021916908373ffffffffffffffffffffffffffffffffffffffff1602179055506126b3806100656000396000f3fe608060405234801561001057600080fd5b50600436106100575760003560e01c806343ab265f1461005c5780635e7853a01461008c5780637c244d3e146100a8578063826bd8b4146100d9578063e2fa36b51461010b575b600080fd5b61007660048036038101906100719190611b92565b61013c565b6040516100839190611ecb565b60405180910390f35b6100a660048036038101906100a19190611bf7565b610184565b005b6100c260048036038101906100bd9190611bbb565b6109db565b6040516100d0929190611ee6565b60405180910390f35b6100f360048036038101906100ee9190611bf7565b610a63565b60405161010293929190611f0f565b60405180910390f35b61012560048036038101906101209190611bbb565b611276565b604051610133929190611ee6565b60405180910390f35b60008060008373ffffffffffffffffffffffffffffffffffffffff1673ffffffffffffffffffffffffffffffffffffffff168152602001908152602001600020549050919050565b61018e84846113a4565b6101cd576040517f08c379a00000000000000000000000000000000000000000000000000000000081526004016101c490611f8d565b60405180910390fd5b6000600660008673ffffffffffffffffffffffffffffffffffffffff1673ffffffffffffffffffffffffffffffffffffffff16815260200190815260200160002060008573ffffffffffffffffffffffffffffffffffffffff1673ffffffffffffffffffffffffffffffffffffffff16815260200190815260200160002060009054906101000a900460ff161561057d5782600560008773ffffffffffffffffffffffffffffffffffffffff1673ffffffffffffffffffffffffffffffffffffffff16815260200190815260200160002060008673ffffffffffffffffffffffffffffffffffffffff1673ffffffffffffffffffffffffffffffffffffffff16815260200190815260200160002060000160000160149054906101000a900460070b6102f9919061207f565b83600560008873ffffffffffffffffffffffffffffffffffffffff1673ffffffffffffffffffffffffffffffffffffffff16815260200190815260200160002060008773ffffffffffffffffffffffffffffffffffffffff1673ffffffffffffffffffffffffffffffffffffffff16815260200190815260200160002060010160000160149054906101000a900460070b6103949190612165565b61039e91906120fb565b90506103ab85858361147e565b6103ea576040517f08c379a00000000000000000000000000000000000000000000000000000000081526004016103e190611f4d565b60405180910390fd5b82600560008773ffffffffffffffffffffffffffffffffffffffff1673ffffffffffffffffffffffffffffffffffffffff16815260200190815260200160002060008673ffffffffffffffffffffffffffffffffffffffff1673ffffffffffffffffffffffffffffffffffffffff16815260200190815260200160002060000160000160148282829054906101000a900460070b610488919061207f565b92506101000a81548167ffffffffffffffff021916908360070b67ffffffffffffffff16021790555080600560008773ffffffffffffffffffffffffffffffffffffffff1673ffffffffffffffffffffffffffffffffffffffff16815260200190815260200160002060008673ffffffffffffffffffffffffffffffffffffffff1673ffffffffffffffffffffffffffffffffffffffff16815260200190815260200160002060010160000160148282829054906101000a900460070b61054f919061224c565b92506101000a81548167ffffffffffffffff021916908360070b67ffffffffffffffff160217905550610928565b600660008573ffffffffffffffffffffffffffffffffffffffff1673ffffffffffffffffffffffffffffffffffffffff16815260200190815260200160002060008673ffffffffffffffffffffffffffffffffffffffff1673ffffffffffffffffffffffffffffffffffffffff16815260200190815260200160002060009054906101000a900460ff16156109275782600560008673ffffffffffffffffffffffffffffffffffffffff1673ffffffffffffffffffffffffffffffffffffffff16815260200190815260200160002060008773ffffffffffffffffffffffffffffffffffffffff1673ffffffffffffffffffffffffffffffffffffffff16815260200190815260200160002060010160000160149054906101000a900460070b6106a7919061207f565b82600560008773ffffffffffffffffffffffffffffffffffffffff1673ffffffffffffffffffffffffffffffffffffffff16815260200190815260200160002060008873ffffffffffffffffffffffffffffffffffffffff1673ffffffffffffffffffffffffffffffffffffffff16815260200190815260200160002060000160000160149054906101000a900460070b6107429190612165565b61074c91906120fb565b905061075985858361147e565b610798576040517f08c379a000000000000000000000000000000000000000000000000000000000815260040161078f90611f4d565b60405180910390fd5b80600560008673ffffffffffffffffffffffffffffffffffffffff1673ffffffffffffffffffffffffffffffffffffffff16815260200190815260200160002060008773ffffffffffffffffffffffffffffffffffffffff1673ffffffffffffffffffffffffffffffffffffffff16815260200190815260200160002060000160000160148282829054906101000a900460070b610836919061224c565b92506101000a81548167ffffffffffffffff021916908360070b67ffffffffffffffff16021790555082600560008673ffffffffffffffffffffffffffffffffffffffff1673ffffffffffffffffffffffffffffffffffffffff16815260200190815260200160002060008773ffffffffffffffffffffffffffffffffffffffff1673ffffffffffffffffffffffffffffffffffffffff16815260200190815260200160002060010160000160148282829054906101000a900460070b6108fd919061207f565b92506101000a81548167ffffffffffffffff021916908360070b67ffffffffffffffff1602179055505b5b6000610936868830876116d9565b9050601660030b811461097e576040517f08c379a00000000000000000000000000000000000000000000000000000000081526004016109759061202d565b60405180910390fd5b61098a853089856116d9565b9050601660030b81146109d2576040517f08c379a00000000000000000000000000000000000000000000000000000000081526004016109c990611fed565b60405180910390fd5b50505050505050565b60008060006109ea85856117f7565b90508473ffffffffffffffffffffffffffffffffffffffff1681600001516000015173ffffffffffffffffffffffffffffffffffffffff161415610a44578060000151602001518160200151602001519250925050610a5c565b80602001516020015181600001516020015192509250505b9250929050565b60008060606000806000808973ffffffffffffffffffffffffffffffffffffffff168b73ffffffffffffffffffffffffffffffffffffffff1610610aaa57898b898b610aaf565b8a8a8a8a5b9350935093509350600660008573ffffffffffffffffffffffffffffffffffffffff1673ffffffffffffffffffffffffffffffffffffffff16815260200190815260200160002060008473ffffffffffffffffffffffffffffffffffffffff1673ffffffffffffffffffffffffffffffffffffffff16815260200190815260200160002060009054906101000a900460ff1615610cd95781600560008673ffffffffffffffffffffffffffffffffffffffff1673ffffffffffffffffffffffffffffffffffffffff16815260200190815260200160002060008573ffffffffffffffffffffffffffffffffffffffff1673ffffffffffffffffffffffffffffffffffffffff16815260200190815260200160002060000160000160148282829054906101000a900460070b610be4919061207f565b92506101000a81548167ffffffffffffffff021916908360070b67ffffffffffffffff16021790555080600560008673ffffffffffffffffffffffffffffffffffffffff1673ffffffffffffffffffffffffffffffffffffffff16815260200190815260200160002060008573ffffffffffffffffffffffffffffffffffffffff1673ffffffffffffffffffffffffffffffffffffffff16815260200190815260200160002060010160000160148282829054906101000a900460070b610cab919061207f565b92506101000a81548167ffffffffffffffff021916908360070b67ffffffffffffffff160217905550611060565b8273ffffffffffffffffffffffffffffffffffffffff168473ffffffffffffffffffffffffffffffffffffffff161415610d48576040517f08c379a0000000000000000000000000000000000000000000000000000000008152600401610d3f90611f6d565b60405180910390fd5b600073ffffffffffffffffffffffffffffffffffffffff168473ffffffffffffffffffffffffffffffffffffffff161415610db8576040517f08c379a0000000000000000000000000000000000000000000000000000000008152600401610daf9061200d565b60405180910390fd5b6000604051806040016040528060405180604001604052808873ffffffffffffffffffffffffffffffffffffffff1681526020018660070b815250815260200160405180604001604052808773ffffffffffffffffffffffffffffffffffffffff1681526020018560070b8152508152509050610e3530866119e2565b50610e4030856119e2565b5080600560008773ffffffffffffffffffffffffffffffffffffffff1673ffffffffffffffffffffffffffffffffffffffff16815260200190815260200160002060008673ffffffffffffffffffffffffffffffffffffffff1673ffffffffffffffffffffffffffffffffffffffff16815260200190815260200160002060008201518160000160008201518160000160006101000a81548173ffffffffffffffffffffffffffffffffffffffff021916908373ffffffffffffffffffffffffffffffffffffffff16021790555060208201518160000160146101000a81548167ffffffffffffffff021916908360070b67ffffffffffffffff160217905550505060208201518160010160008201518160000160006101000a81548173ffffffffffffffffffffffffffffffffffffffff021916908373ffffffffffffffffffffffffffffffffffffffff16021790555060208201518160000160146101000a81548167ffffffffffffffff021916908360070b67ffffffffffffffff16021790555050509050506001600660008773ffffffffffffffffffffffffffffffffffffffff1673ffffffffffffffffffffffffffffffffffffffff16815260200190815260200160002060008673ffffffffffffffffffffffffffffffffffffffff1673ffffffffffffffffffffffffffffffffffffffff16815260200190815260200160002060006101000a81548160ff021916908315150217905550505b600061106e858e30866116d9565b9050601660030b81146110b6576040517f08c379a00000000000000000000000000000000000000000000000000000000081526004016110ad90611fcd565b60405180910390fd5b6110c2848e30856116d9565b9050601660030b811461110a576040517f08c379a000000000000000000000000000000000000000000000000000000000815260040161110190611fad565b60405180910390fd5b600560008673ffffffffffffffffffffffffffffffffffffffff1673ffffffffffffffffffffffffffffffffffffffff16815260200190815260200160002060008573ffffffffffffffffffffffffffffffffffffffff1673ffffffffffffffffffffffffffffffffffffffff16815260200190815260200160002060000160000160149054906101000a900460070b600560008773ffffffffffffffffffffffffffffffffffffffff1673ffffffffffffffffffffffffffffffffffffffff16815260200190815260200160002060008673ffffffffffffffffffffffffffffffffffffffff1673ffffffffffffffffffffffffffffffffffffffff16815260200190815260200160002060010160000160149054906101000a900460070b6040518060400160405280600881526020017f6d616465204e65770000000000000000000000000000000000000000000000008152509750975097505050505050955095509592505050565b600080600560008573ffffffffffffffffffffffffffffffffffffffff1673ffffffffffffffffffffffffffffffffffffffff16815260200190815260200160002060008473ffffffffffffffffffffffffffffffffffffffff1673ffffffffffffffffffffffffffffffffffffffff16815260200190815260200160002060000160000160149054906101000a900460070b600560008673ffffffffffffffffffffffffffffffffffffffff1673ffffffffffffffffffffffffffffffffffffffff16815260200190815260200160002060008573ffffffffffffffffffffffffffffffffffffffff1673ffffffffffffffffffffffffffffffffffffffff16815260200190815260200160002060010160000160149054906101000a900460070b915091509250929050565b60008060008373ffffffffffffffffffffffffffffffffffffffff168573ffffffffffffffffffffffffffffffffffffffff16106113e35783856113e6565b84845b91509150600660008373ffffffffffffffffffffffffffffffffffffffff1673ffffffffffffffffffffffffffffffffffffffff16815260200190815260200160002060008273ffffffffffffffffffffffffffffffffffffffff1673ffffffffffffffffffffffffffffffffffffffff16815260200190815260200160002060009054906101000a900460ff169250505092915050565b60008060008473ffffffffffffffffffffffffffffffffffffffff168673ffffffffffffffffffffffffffffffffffffffff16106114bd5784866114c0565b85855b91509150600660008373ffffffffffffffffffffffffffffffffffffffff1673ffffffffffffffffffffffffffffffffffffffff16815260200190815260200160002060008273ffffffffffffffffffffffffffffffffffffffff1673ffffffffffffffffffffffffffffffffffffffff16815260200190815260200160002060009054906101000a900460ff16156116cb5760008673ffffffffffffffffffffffffffffffffffffffff168373ffffffffffffffffffffffffffffffffffffffff161461161d57600560008473ffffffffffffffffffffffffffffffffffffffff1673ffffffffffffffffffffffffffffffffffffffff16815260200190815260200160002060008373ffffffffffffffffffffffffffffffffffffffff1673ffffffffffffffffffffffffffffffffffffffff16815260200190815260200160002060000160000160149054906101000a900460070b6116ae565b600560008473ffffffffffffffffffffffffffffffffffffffff1673ffffffffffffffffffffffffffffffffffffffff16815260200190815260200160002060008373ffffffffffffffffffffffffffffffffffffffff1673ffffffffffffffffffffffffffffffffffffffff16815260200190815260200160002060010160000160149054906101000a900460070b5b90508460070b8160070b126116c957600193505050506116d2565b505b6000925050505b9392505050565b600080600061016773ffffffffffffffffffffffffffffffffffffffff1663eca3691760e01b888888886040516024016117169493929190611e86565b604051602081830303815290604052907bffffffffffffffffffffffffffffffffffffffffffffffffffffffff19166020820180517bffffffffffffffffffffffffffffffffffffffffffffffffffffffff83818316178352505050506040516117809190611e46565b6000604051808303816000865af19150503d80600081146117bd576040519150601f19603f3d011682016040523d82523d6000602084013e6117c2565b606091505b5091509150816117d35760156117e8565b808060200190518101906117e79190611c6e565b5b60030b92505050949350505050565b6117ff611afa565b6000808373ffffffffffffffffffffffffffffffffffffffff168573ffffffffffffffffffffffffffffffffffffffff161061183c57838561183f565b84845b91509150600560008373ffffffffffffffffffffffffffffffffffffffff1673ffffffffffffffffffffffffffffffffffffffff16815260200190815260200160002060008273ffffffffffffffffffffffffffffffffffffffff1673ffffffffffffffffffffffffffffffffffffffff168152602001908152602001600020604051806040016040529081600082016040518060400160405290816000820160009054906101000a900473ffffffffffffffffffffffffffffffffffffffff1673ffffffffffffffffffffffffffffffffffffffff1673ffffffffffffffffffffffffffffffffffffffff1681526020016000820160149054906101000a900460070b60070b60070b815250508152602001600182016040518060400160405290816000820160009054906101000a900473ffffffffffffffffffffffffffffffffffffffff1673ffffffffffffffffffffffffffffffffffffffff1673ffffffffffffffffffffffffffffffffffffffff1681526020016000820160149054906101000a900460070b60070b60070b81525050815250509250505092915050565b600080600061016773ffffffffffffffffffffffffffffffffffffffff166349146bde60e01b8686604051602401611a1b929190611e5d565b604051602081830303815290604052907bffffffffffffffffffffffffffffffffffffffffffffffffffffffff19166020820180517bffffffffffffffffffffffffffffffffffffffffffffffffffffffff8381831617835250505050604051611a859190611e46565b6000604051808303816000865af19150503d8060008114611ac2576040519150601f19603f3d011682016040523d82523d6000602084013e611ac7565b606091505b509150915081611ad8576015611aed565b80806020019051810190611aec9190611c6e565b5b60030b9250505092915050565b6040518060400160405280611b0d611b20565b8152602001611b1a611b20565b81525090565b6040518060400160405280600073ffffffffffffffffffffffffffffffffffffffff168152602001600060070b81525090565b600081359050611b6281612638565b92915050565b600081519050611b778161264f565b92915050565b600081359050611b8c81612666565b92915050565b600060208284031215611ba457600080fd5b6000611bb284828501611b53565b91505092915050565b60008060408385031215611bce57600080fd5b6000611bdc85828601611b53565b9250506020611bed85828601611b53565b9150509250929050565b600080600080600060a08688031215611c0f57600080fd5b6000611c1d88828901611b53565b9550506020611c2e88828901611b53565b9450506040611c3f88828901611b53565b9350506060611c5088828901611b7d565b9250506080611c6188828901611b7d565b9150509295509295909350565b600060208284031215611c8057600080fd5b6000611c8e84828501611b68565b91505092915050565b611ca0816122c8565b82525050565b6000611cb18261204d565b611cbb8185612063565b9350611ccb81856020860161231e565b80840191505092915050565b611ce0816122da565b82525050565b611cef816122f1565b82525050565b6000611d0082612058565b611d0a818561206e565b9350611d1a81856020860161231e565b611d23816123af565b840191505092915050565b6000611d3b601b8361206e565b9150611d46826123c0565b602082019050919050565b6000611d5e601e8361206e565b9150611d69826123e9565b602082019050919050565b6000611d8160178361206e565b9150611d8c82612412565b602082019050919050565b6000611da460468361206e565b9150611daf8261243b565b606082019050919050565b6000611dc760468361206e565b9150611dd2826124b0565b606082019050919050565b6000611dea60438361206e565b9150611df582612525565b606082019050919050565b6000611e0d60178361206e565b9150611e188261259a565b602082019050919050565b6000611e3060438361206e565b9150611e3b826125c3565b606082019050919050565b6000611e528284611ca6565b915081905092915050565b6000604082019050611e726000830185611c97565b611e7f6020830184611c97565b9392505050565b6000608082019050611e9b6000830187611c97565b611ea86020830186611c97565b611eb56040830185611c97565b611ec26060830184611ce6565b95945050505050565b6000602082019050611ee06000830184611cd7565b92915050565b6000604082019050611efb6000830185611ce6565b611f086020830184611ce6565b9392505050565b6000606082019050611f246000830186611ce6565b611f316020830185611ce6565b8181036040830152611f438184611cf5565b9050949350505050565b60006020820190508181036000830152611f6681611d2e565b9050919050565b60006020820190508181036000830152611f8681611d51565b9050919050565b60006020820190508181036000830152611fa681611d74565b9050919050565b60006020820190508181036000830152611fc681611d97565b9050919050565b60006020820190508181036000830152611fe681611dba565b9050919050565b6000602082019050818103600083015261200681611ddd565b9050919050565b6000602082019050818103600083015261202681611e00565b9050919050565b6000602082019050818103600083015261204681611e23565b9050919050565b600081519050919050565b600081519050919050565b600081905092915050565b600082825260208201905092915050565b600061208a826122f1565b9150612095836122f1565b925081677fffffffffffffff038313600083121516156120b8576120b7612351565b5b817fffffffffffffffffffffffffffffffffffffffffffffffff80000000000000000383126000831216156120f0576120ef612351565b5b828201905092915050565b6000612106826122f1565b9150612111836122f1565b92508261212157612120612380565b5b600160000383147fffffffffffffffffffffffffffffffffffffffffffffffff80000000000000008314161561215a57612159612351565b5b828205905092915050565b6000612170826122f1565b915061217b836122f1565b925082677fffffffffffffff04821160008413600084131616156121a2576121a1612351565b5b817fffffffffffffffffffffffffffffffffffffffffffffffff800000000000000005831260008412600084131616156121df576121de612351565b5b827fffffffffffffffffffffffffffffffffffffffffffffffff8000000000000000058212600084136000841216161561221c5761221b612351565b5b82677fffffffffffffff058212600084126000841216161561224157612240612351565b5b828202905092915050565b6000612257826122f1565b9150612262836122f1565b9250827fffffffffffffffffffffffffffffffffffffffffffffffff80000000000000000182126000841215161561229d5761229c612351565b5b82677fffffffffffffff0182136000841216156122bd576122bc612351565b5b828203905092915050565b60006122d3826122fe565b9050919050565b6000819050919050565b60008160030b9050919050565b60008160070b9050919050565b600073ffffffffffffffffffffffffffffffffffffffff82169050919050565b60005b8381101561233c578082015181840152602081019050612321565b8381111561234b576000848401525b50505050565b7f4e487b7100000000000000000000000000000000000000000000000000000000600052601160045260246000fd5b7f4e487b7100000000000000000000000000000000000000000000000000000000600052601260045260246000fd5b6000601f19601f8301169050919050565b7f50616972205175616e74697479206e6f7420617661696c61626c650000000000600082015250565b7f556e697377617056323a204944454e544943414c5f4144445245535345530000600082015250565b7f5061697220706f6f6c206e6f7420617661696c61626c65000000000000000000600082015250565b7f416464206c69717569646974793a205472616e73666572696e6720746f6b656e60008201527f204220746f20636f6e7472616374206661696c6564207769746820737461747560208201527f7320636f64650000000000000000000000000000000000000000000000000000604082015250565b7f416464206c69717569646974793a205472616e73666572696e6720746f6b656e60008201527f204120746f20636f6e7472616374206661696c6564207769746820737461747560208201527f7320636f64650000000000000000000000000000000000000000000000000000604082015250565b7f73776170546f6b656e413a205472616e73666572696e6720746f6b656e20422060008201527f746f20636f6e7472616374206661696c6564207769746820737461747573206360208201527f6f64650000000000000000000000000000000000000000000000000000000000604082015250565b7f556e697377617056323a205a45524f5f41444452455353000000000000000000600082015250565b7f73776170546f6b656e413a205472616e73666572696e6720746f6b656e20412060008201527f746f20636f6e7472616374206661696c6564207769746820737461747573206360208201527f6f64650000000000000000000000000000000000000000000000000000000000604082015250565b612641816122c8565b811461264c57600080fd5b50565b612658816122e4565b811461266357600080fd5b50565b61266f816122f1565b811461267a57600080fd5b5056fea2646970667358221220aad931eb7bcbd362f2c6c1ac313986616015d7f2efb0e4189733aae66f9f5f9264736f6c63430008040033",
  "linkReferences": {},
  "deployedLinkReferences": {}
}