{
  "_format": "hh-sol-artifact-1",
  "contractName": "SwapHederaTokens",
  "sourceName": "contracts/SwapHederaTokens.sol",
  "abi": [
    {
      "inputs": [],
      "stateMutability": "nonpayable",
      "type": "constructor"
    },
    {
      "inputs": [],
      "name": "addHbars",
      "outputs": [],
      "stateMutability": "payable",
      "type": "function"
    },
    {
      "inputs": [
        {
          "internalType": "address",
          "name": "tokenIdA",
          "type": "address"
        },
        {
          "internalType": "address",
          "name": "fromAccountId",
          "type": "address"
        },
        {
          "internalType": "int64",
          "name": "tokenAAmount",
          "type": "int64"
        },
        {
          "internalType": "address",
          "name": "tokenIdB",
          "type": "address"
        },
        {
          "internalType": "int64",
          "name": "tokenBAmount",
          "type": "int64"
        }
      ],
      "name": "addLiquidity",
      "outputs": [
        {
          "internalType": "int256",
          "name": "",
          "type": "int256"
        }
      ],
      "stateMutability": "nonpayable",
      "type": "function"
    }
  ],
  "bytecode": "0x608060405234801561001057600080fd5b50610916806100206000396000f3fe6080604052600436106100295760003560e01c80639aaaf5161461002e578063a3153d1d14610038575b600080fd5b610036610075565b005b34801561004457600080fd5b5061005f600480360381019061005a91906104f7565b610077565b60405161006c91906106ba565b60405180910390f35b565b6000806100868430603261027f565b905060006100968830603261027f565b905060006100a68689308861039a565b9050601660030b81146100ee576040517f08c379a00000000000000000000000000000000000000000000000000000000081526004016100e5906106d5565b60405180910390fd5b60006100fc8a8a308b61039a565b9050601660030b8114610144576040517f08c379a000000000000000000000000000000000000000000000000000000000815260040161013b906106d5565b60405180910390fd5b8760070b6000803073ffffffffffffffffffffffffffffffffffffffff1673ffffffffffffffffffffffffffffffffffffffff16815260200190815260200160002060008c73ffffffffffffffffffffffffffffffffffffffff1673ffffffffffffffffffffffffffffffffffffffff16815260200190815260200160002060008282546101d2919061071c565b925050819055508560070b6000803073ffffffffffffffffffffffffffffffffffffffff1673ffffffffffffffffffffffffffffffffffffffff16815260200190815260200160002060008973ffffffffffffffffffffffffffffffffffffffff1673ffffffffffffffffffffffffffffffffffffffff1681526020019081526020016000206000828254610267919061071c565b92505081905550600194505050505095945050505050565b600080600061016773ffffffffffffffffffffffffffffffffffffffff1663e1f21c6760e01b8787876040516024016102ba93929190610683565b604051602081830303815290604052907bffffffffffffffffffffffffffffffffffffffffffffffffffffffff19166020820180517bffffffffffffffffffffffffffffffffffffffffffffffffffffffff83818316178352505050506040516103249190610627565b6000604051808303816000865af19150503d8060008114610361576040519150601f19603f3d011682016040523d82523d6000602084013e610366565b606091505b50915091508161037757601561038c565b8080602001905181019061038b919061056e565b5b60030b925050509392505050565b600080600061016773ffffffffffffffffffffffffffffffffffffffff1663eca3691760e01b888888886040516024016103d7949392919061063e565b604051602081830303815290604052907bffffffffffffffffffffffffffffffffffffffffffffffffffffffff19166020820180517bffffffffffffffffffffffffffffffffffffffffffffffffffffffff83818316178352505050506040516104419190610627565b6000604051808303816000865af19150503d806000811461047e576040519150601f19603f3d011682016040523d82523d6000602084013e610483565b606091505b5091509150816104945760156104a9565b808060200190518101906104a8919061056e565b5b60030b92505050949350505050565b6000813590506104c78161089b565b92915050565b6000815190506104dc816108b2565b92915050565b6000813590506104f1816108c9565b92915050565b600080600080600060a0868803121561050f57600080fd5b600061051d888289016104b8565b955050602061052e888289016104b8565b945050604061053f888289016104e2565b9350506060610550888289016104b8565b9250506080610561888289016104e2565b9150509295509295909350565b60006020828403121561058057600080fd5b600061058e848285016104cd565b91505092915050565b6105a0816107b0565b82525050565b60006105b1826106f5565b6105bb8185610700565b93506105cb818560208601610810565b80840191505092915050565b6105e0816107c2565b82525050565b6105ef816107d9565b82525050565b6000610602600f8361070b565b915061060d82610872565b602082019050919050565b61062181610806565b82525050565b600061063382846105a6565b915081905092915050565b60006080820190506106536000830187610597565b6106606020830186610597565b61066d6040830185610597565b61067a60608301846105e6565b95945050505050565b60006060820190506106986000830186610597565b6106a56020830185610597565b6106b26040830184610618565b949350505050565b60006020820190506106cf60008301846105d7565b92915050565b600060208201905081810360008301526106ee816105f5565b9050919050565b600081519050919050565b600081905092915050565b600082825260208201905092915050565b6000610727826107c2565b9150610732836107c2565b9250817f7fffffffffffffffffffffffffffffffffffffffffffffffffffffffffffffff0383136000831215161561076d5761076c610843565b5b817f80000000000000000000000000000000000000000000000000000000000000000383126000831216156107a5576107a4610843565b5b828201905092915050565b60006107bb826107e6565b9050919050565b6000819050919050565b60008160030b9050919050565b60008160070b9050919050565b600073ffffffffffffffffffffffffffffffffffffffff82169050919050565b6000819050919050565b60005b8381101561082e578082015181840152602081019050610813565b8381111561083d576000848401525b50505050565b7f4e487b7100000000000000000000000000000000000000000000000000000000600052601160045260246000fd5b7f5472616e73666572206661696c65640000000000000000000000000000000000600082015250565b6108a4816107b0565b81146108af57600080fd5b50565b6108bb816107cc565b81146108c657600080fd5b50565b6108d2816107d9565b81146108dd57600080fd5b5056fea264697066735822122058cb47b2e7ce924c5621bdd3b61f629a7b312ce01bb2df690458926e79993bf864736f6c63430008040033",
  "linkReferences": {},
  "deployedLinkReferences": {}
}