{
  "_format": "hh-sol-artifact-1",
  "contractName": "SwapHederaTokens",
  "sourceName": "contracts/SwapHederaTokens.sol",
  "abi": [
    {
      "inputs": [],
      "stateMutability": "nonpayable",
      "type": "constructor"
    },
    {
      "inputs": [
        {
          "internalType": "address",
          "name": "fromAccount",
          "type": "address"
        },
        {
          "internalType": "address",
          "name": "_token0",
          "type": "address"
        },
        {
          "internalType": "address",
          "name": "_token1",
          "type": "address"
        },
        {
          "internalType": "int64",
          "name": "_token0Qty",
          "type": "int64"
        },
        {
          "internalType": "int64",
          "name": "_token1Qty",
          "type": "int64"
        }
      ],
      "name": "addLiquidity",
      "outputs": [
        {
          "internalType": "int64",
          "name": "",
          "type": "int64"
        },
        {
          "internalType": "int64",
          "name": "",
          "type": "int64"
        },
        {
          "internalType": "string",
          "name": "",
          "type": "string"
        }
      ],
      "stateMutability": "nonpayable",
      "type": "function"
    },
    {
      "inputs": [
        {
          "internalType": "address",
          "name": "tokenAddress",
          "type": "address"
        }
      ],
      "name": "getContractBalance",
      "outputs": [
        {
          "internalType": "int256",
          "name": "",
          "type": "int256"
        }
      ],
      "stateMutability": "view",
      "type": "function"
    },
    {
      "inputs": [
        {
          "internalType": "address",
          "name": "_token0",
          "type": "address"
        },
        {
          "internalType": "address",
          "name": "_token1",
          "type": "address"
        }
      ],
      "name": "getPairQty",
      "outputs": [
        {
          "internalType": "int64",
          "name": "",
          "type": "int64"
        },
        {
          "internalType": "int64",
          "name": "",
          "type": "int64"
        }
      ],
      "stateMutability": "view",
      "type": "function"
    },
    {
      "inputs": [
        {
          "internalType": "address",
          "name": "_token0",
          "type": "address"
        },
        {
          "internalType": "address",
          "name": "_token1",
          "type": "address"
        }
      ],
      "name": "getPoolBalance",
      "outputs": [
        {
          "internalType": "int64",
          "name": "",
          "type": "int64"
        },
        {
          "internalType": "int64",
          "name": "",
          "type": "int64"
        }
      ],
      "stateMutability": "view",
      "type": "function"
    },
    {
      "inputs": [
        {
          "internalType": "address",
          "name": "to",
          "type": "address"
        },
        {
          "internalType": "address",
          "name": "_tokenA",
          "type": "address"
        },
        {
          "internalType": "address",
          "name": "_tokenB",
          "type": "address"
        },
        {
          "internalType": "int64",
          "name": "_deltaAQty",
          "type": "int64"
        },
        {
          "internalType": "int64",
          "name": "_deltaBQty",
          "type": "int64"
        }
      ],
      "name": "swapToken",
      "outputs": [],
      "stateMutability": "nonpayable",
      "type": "function"
    }
  ],
  "bytecode": "0x60806040526001805534801561001457600080fd5b5033600260006101000a81548173ffffffffffffffffffffffffffffffffffffffff021916908373ffffffffffffffffffffffffffffffffffffffff16021790555061245e806100656000396000f3fe608060405234801561001057600080fd5b50600436106100575760003560e01c806343ab265f1461005c5780635e7853a01461008c5780637c244d3e146100a8578063826bd8b4146100d9578063e2fa36b51461010b575b600080fd5b6100766004803603810190610071919061193d565b61013c565b6040516100839190611c76565b60405180910390f35b6100a660048036038101906100a191906119a2565b610184565b005b6100c260048036038101906100bd9190611966565b61084f565b6040516100d0929190611c91565b60405180910390f35b6100f360048036038101906100ee91906119a2565b6108d7565b60405161010293929190611cba565b60405180910390f35b61012560048036038101906101209190611966565b6110ea565b604051610133929190611c91565b60405180910390f35b60008060008373ffffffffffffffffffffffffffffffffffffffff1673ffffffffffffffffffffffffffffffffffffffff168152602001908152602001600020549050919050565b61018e8484611218565b6101cd576040517f08c379a00000000000000000000000000000000000000000000000000000000081526004016101c490611d38565b60405180910390fd5b6101d88484836112f2565b610217576040517f08c379a000000000000000000000000000000000000000000000000000000000815260040161020e90611cf8565b60405180910390fd5b600082600360008773ffffffffffffffffffffffffffffffffffffffff1673ffffffffffffffffffffffffffffffffffffffff16815260200190815260200160002060008673ffffffffffffffffffffffffffffffffffffffff1673ffffffffffffffffffffffffffffffffffffffff16815260200190815260200160002060000160000160149054906101000a900460070b6102b49190611e2a565b83600360008873ffffffffffffffffffffffffffffffffffffffff1673ffffffffffffffffffffffffffffffffffffffff16815260200190815260200160002060008773ffffffffffffffffffffffffffffffffffffffff1673ffffffffffffffffffffffffffffffffffffffff16815260200190815260200160002060010160000160149054906101000a900460070b61034f9190611f10565b6103599190611ea6565b9050600460008673ffffffffffffffffffffffffffffffffffffffff1673ffffffffffffffffffffffffffffffffffffffff16815260200190815260200160002060008573ffffffffffffffffffffffffffffffffffffffff1673ffffffffffffffffffffffffffffffffffffffff16815260200190815260200160002060009054906101000a900460ff161561057d5782600360008773ffffffffffffffffffffffffffffffffffffffff1673ffffffffffffffffffffffffffffffffffffffff16815260200190815260200160002060008673ffffffffffffffffffffffffffffffffffffffff1673ffffffffffffffffffffffffffffffffffffffff16815260200190815260200160002060000160000160148282829054906101000a900460070b6104889190611e2a565b92506101000a81548167ffffffffffffffff021916908360070b67ffffffffffffffff16021790555080600360008773ffffffffffffffffffffffffffffffffffffffff1673ffffffffffffffffffffffffffffffffffffffff16815260200190815260200160002060008673ffffffffffffffffffffffffffffffffffffffff1673ffffffffffffffffffffffffffffffffffffffff16815260200190815260200160002060010160000160148282829054906101000a900460070b61054f9190611ff7565b92506101000a81548167ffffffffffffffff021916908360070b67ffffffffffffffff16021790555061079c565b600460008573ffffffffffffffffffffffffffffffffffffffff1673ffffffffffffffffffffffffffffffffffffffff16815260200190815260200160002060008673ffffffffffffffffffffffffffffffffffffffff1673ffffffffffffffffffffffffffffffffffffffff16815260200190815260200160002060009054906101000a900460ff161561079b5780600360008673ffffffffffffffffffffffffffffffffffffffff1673ffffffffffffffffffffffffffffffffffffffff16815260200190815260200160002060008773ffffffffffffffffffffffffffffffffffffffff1673ffffffffffffffffffffffffffffffffffffffff16815260200190815260200160002060000160000160148282829054906101000a900460070b6106aa9190611ff7565b92506101000a81548167ffffffffffffffff021916908360070b67ffffffffffffffff16021790555082600360008673ffffffffffffffffffffffffffffffffffffffff1673ffffffffffffffffffffffffffffffffffffffff16815260200190815260200160002060008773ffffffffffffffffffffffffffffffffffffffff1673ffffffffffffffffffffffffffffffffffffffff16815260200190815260200160002060010160000160148282829054906101000a900460070b6107719190611e2a565b92506101000a81548167ffffffffffffffff021916908360070b67ffffffffffffffff1602179055505b5b60006107aa86883087611484565b9050601660030b81146107f2576040517f08c379a00000000000000000000000000000000000000000000000000000000081526004016107e990611dd8565b60405180910390fd5b6107fe85308985611484565b9050601660030b8114610846576040517f08c379a000000000000000000000000000000000000000000000000000000000815260040161083d90611d98565b60405180910390fd5b50505050505050565b600080600061085e85856115a2565b90508473ffffffffffffffffffffffffffffffffffffffff1681600001516000015173ffffffffffffffffffffffffffffffffffffffff1614156108b85780600001516020015181602001516020015192509250506108d0565b80602001516020015181600001516020015192509250505b9250929050565b60008060606000806000808973ffffffffffffffffffffffffffffffffffffffff168b73ffffffffffffffffffffffffffffffffffffffff161061091e57898b898b610923565b8a8a8a8a5b9350935093509350600460008573ffffffffffffffffffffffffffffffffffffffff1673ffffffffffffffffffffffffffffffffffffffff16815260200190815260200160002060008473ffffffffffffffffffffffffffffffffffffffff1673ffffffffffffffffffffffffffffffffffffffff16815260200190815260200160002060009054906101000a900460ff1615610b4d5781600360008673ffffffffffffffffffffffffffffffffffffffff1673ffffffffffffffffffffffffffffffffffffffff16815260200190815260200160002060008573ffffffffffffffffffffffffffffffffffffffff1673ffffffffffffffffffffffffffffffffffffffff16815260200190815260200160002060000160000160148282829054906101000a900460070b610a589190611e2a565b92506101000a81548167ffffffffffffffff021916908360070b67ffffffffffffffff16021790555080600360008673ffffffffffffffffffffffffffffffffffffffff1673ffffffffffffffffffffffffffffffffffffffff16815260200190815260200160002060008573ffffffffffffffffffffffffffffffffffffffff1673ffffffffffffffffffffffffffffffffffffffff16815260200190815260200160002060010160000160148282829054906101000a900460070b610b1f9190611e2a565b92506101000a81548167ffffffffffffffff021916908360070b67ffffffffffffffff160217905550610ed4565b8273ffffffffffffffffffffffffffffffffffffffff168473ffffffffffffffffffffffffffffffffffffffff161415610bbc576040517f08c379a0000000000000000000000000000000000000000000000000000000008152600401610bb390611d18565b60405180910390fd5b600073ffffffffffffffffffffffffffffffffffffffff168473ffffffffffffffffffffffffffffffffffffffff161415610c2c576040517f08c379a0000000000000000000000000000000000000000000000000000000008152600401610c2390611db8565b60405180910390fd5b6000604051806040016040528060405180604001604052808873ffffffffffffffffffffffffffffffffffffffff1681526020018660070b815250815260200160405180604001604052808773ffffffffffffffffffffffffffffffffffffffff1681526020018560070b8152508152509050610ca9308661178d565b50610cb4308561178d565b5080600360008773ffffffffffffffffffffffffffffffffffffffff1673ffffffffffffffffffffffffffffffffffffffff16815260200190815260200160002060008673ffffffffffffffffffffffffffffffffffffffff1673ffffffffffffffffffffffffffffffffffffffff16815260200190815260200160002060008201518160000160008201518160000160006101000a81548173ffffffffffffffffffffffffffffffffffffffff021916908373ffffffffffffffffffffffffffffffffffffffff16021790555060208201518160000160146101000a81548167ffffffffffffffff021916908360070b67ffffffffffffffff160217905550505060208201518160010160008201518160000160006101000a81548173ffffffffffffffffffffffffffffffffffffffff021916908373ffffffffffffffffffffffffffffffffffffffff16021790555060208201518160000160146101000a81548167ffffffffffffffff021916908360070b67ffffffffffffffff16021790555050509050506001600460008773ffffffffffffffffffffffffffffffffffffffff1673ffffffffffffffffffffffffffffffffffffffff16815260200190815260200160002060008673ffffffffffffffffffffffffffffffffffffffff1673ffffffffffffffffffffffffffffffffffffffff16815260200190815260200160002060006101000a81548160ff021916908315150217905550505b6000610ee2858e3086611484565b9050601660030b8114610f2a576040517f08c379a0000000000000000000000000000000000000000000000000000000008152600401610f2190611d78565b60405180910390fd5b610f36848e3085611484565b9050601660030b8114610f7e576040517f08c379a0000000000000000000000000000000000000000000000000000000008152600401610f7590611d58565b60405180910390fd5b600360008673ffffffffffffffffffffffffffffffffffffffff1673ffffffffffffffffffffffffffffffffffffffff16815260200190815260200160002060008573ffffffffffffffffffffffffffffffffffffffff1673ffffffffffffffffffffffffffffffffffffffff16815260200190815260200160002060000160000160149054906101000a900460070b600360008773ffffffffffffffffffffffffffffffffffffffff1673ffffffffffffffffffffffffffffffffffffffff16815260200190815260200160002060008673ffffffffffffffffffffffffffffffffffffffff1673ffffffffffffffffffffffffffffffffffffffff16815260200190815260200160002060010160000160149054906101000a900460070b6040518060400160405280600881526020017f6d616465204e65770000000000000000000000000000000000000000000000008152509750975097505050505050955095509592505050565b600080600360008573ffffffffffffffffffffffffffffffffffffffff1673ffffffffffffffffffffffffffffffffffffffff16815260200190815260200160002060008473ffffffffffffffffffffffffffffffffffffffff1673ffffffffffffffffffffffffffffffffffffffff16815260200190815260200160002060000160000160149054906101000a900460070b600360008673ffffffffffffffffffffffffffffffffffffffff1673ffffffffffffffffffffffffffffffffffffffff16815260200190815260200160002060008573ffffffffffffffffffffffffffffffffffffffff1673ffffffffffffffffffffffffffffffffffffffff16815260200190815260200160002060010160000160149054906101000a900460070b915091509250929050565b60008060008373ffffffffffffffffffffffffffffffffffffffff168573ffffffffffffffffffffffffffffffffffffffff161061125757838561125a565b84845b91509150600460008373ffffffffffffffffffffffffffffffffffffffff1673ffffffffffffffffffffffffffffffffffffffff16815260200190815260200160002060008273ffffffffffffffffffffffffffffffffffffffff1673ffffffffffffffffffffffffffffffffffffffff16815260200190815260200160002060009054906101000a900460ff169250505092915050565b60008060008473ffffffffffffffffffffffffffffffffffffffff168673ffffffffffffffffffffffffffffffffffffffff1610611331578486611334565b85855b91509150600460008373ffffffffffffffffffffffffffffffffffffffff1673ffffffffffffffffffffffffffffffffffffffff16815260200190815260200160002060008273ffffffffffffffffffffffffffffffffffffffff1673ffffffffffffffffffffffffffffffffffffffff16815260200190815260200160002060009054906101000a900460ff1615611476576000600360008473ffffffffffffffffffffffffffffffffffffffff1673ffffffffffffffffffffffffffffffffffffffff16815260200190815260200160002060008373ffffffffffffffffffffffffffffffffffffffff1673ffffffffffffffffffffffffffffffffffffffff16815260200190815260200160002060010160000160149054906101000a900460070b90508460070b8160070b12611474576001935050505061147d565b505b6000925050505b9392505050565b600080600061016773ffffffffffffffffffffffffffffffffffffffff1663eca3691760e01b888888886040516024016114c19493929190611c31565b604051602081830303815290604052907bffffffffffffffffffffffffffffffffffffffffffffffffffffffff19166020820180517bffffffffffffffffffffffffffffffffffffffffffffffffffffffff838183161783525050505060405161152b9190611bf1565b6000604051808303816000865af19150503d8060008114611568576040519150601f19603f3d011682016040523d82523d6000602084013e61156d565b606091505b50915091508161157e576015611593565b808060200190518101906115929190611a19565b5b60030b92505050949350505050565b6115aa6118a5565b6000808373ffffffffffffffffffffffffffffffffffffffff168573ffffffffffffffffffffffffffffffffffffffff16106115e75783856115ea565b84845b91509150600360008373ffffffffffffffffffffffffffffffffffffffff1673ffffffffffffffffffffffffffffffffffffffff16815260200190815260200160002060008273ffffffffffffffffffffffffffffffffffffffff1673ffffffffffffffffffffffffffffffffffffffff168152602001908152602001600020604051806040016040529081600082016040518060400160405290816000820160009054906101000a900473ffffffffffffffffffffffffffffffffffffffff1673ffffffffffffffffffffffffffffffffffffffff1673ffffffffffffffffffffffffffffffffffffffff1681526020016000820160149054906101000a900460070b60070b60070b815250508152602001600182016040518060400160405290816000820160009054906101000a900473ffffffffffffffffffffffffffffffffffffffff1673ffffffffffffffffffffffffffffffffffffffff1673ffffffffffffffffffffffffffffffffffffffff1681526020016000820160149054906101000a900460070b60070b60070b81525050815250509250505092915050565b600080600061016773ffffffffffffffffffffffffffffffffffffffff166349146bde60e01b86866040516024016117c6929190611c08565b604051602081830303815290604052907bffffffffffffffffffffffffffffffffffffffffffffffffffffffff19166020820180517bffffffffffffffffffffffffffffffffffffffffffffffffffffffff83818316178352505050506040516118309190611bf1565b6000604051808303816000865af19150503d806000811461186d576040519150601f19603f3d011682016040523d82523d6000602084013e611872565b606091505b509150915081611883576015611898565b808060200190518101906118979190611a19565b5b60030b9250505092915050565b60405180604001604052806118b86118cb565b81526020016118c56118cb565b81525090565b6040518060400160405280600073ffffffffffffffffffffffffffffffffffffffff168152602001600060070b81525090565b60008135905061190d816123e3565b92915050565b600081519050611922816123fa565b92915050565b60008135905061193781612411565b92915050565b60006020828403121561194f57600080fd5b600061195d848285016118fe565b91505092915050565b6000806040838503121561197957600080fd5b6000611987858286016118fe565b9250506020611998858286016118fe565b9150509250929050565b600080600080600060a086880312156119ba57600080fd5b60006119c8888289016118fe565b95505060206119d9888289016118fe565b94505060406119ea888289016118fe565b93505060606119fb88828901611928565b9250506080611a0c88828901611928565b9150509295509295909350565b600060208284031215611a2b57600080fd5b6000611a3984828501611913565b91505092915050565b611a4b81612073565b82525050565b6000611a5c82611df8565b611a668185611e0e565b9350611a768185602086016120c9565b80840191505092915050565b611a8b81612085565b82525050565b611a9a8161209c565b82525050565b6000611aab82611e03565b611ab58185611e19565b9350611ac58185602086016120c9565b611ace8161215a565b840191505092915050565b6000611ae6601b83611e19565b9150611af18261216b565b602082019050919050565b6000611b09601e83611e19565b9150611b1482612194565b602082019050919050565b6000611b2c601783611e19565b9150611b37826121bd565b602082019050919050565b6000611b4f604683611e19565b9150611b5a826121e6565b606082019050919050565b6000611b72604683611e19565b9150611b7d8261225b565b606082019050919050565b6000611b95604383611e19565b9150611ba0826122d0565b606082019050919050565b6000611bb8601783611e19565b9150611bc382612345565b602082019050919050565b6000611bdb604383611e19565b9150611be68261236e565b606082019050919050565b6000611bfd8284611a51565b915081905092915050565b6000604082019050611c1d6000830185611a42565b611c2a6020830184611a42565b9392505050565b6000608082019050611c466000830187611a42565b611c536020830186611a42565b611c606040830185611a42565b611c6d6060830184611a91565b95945050505050565b6000602082019050611c8b6000830184611a82565b92915050565b6000604082019050611ca66000830185611a91565b611cb36020830184611a91565b9392505050565b6000606082019050611ccf6000830186611a91565b611cdc6020830185611a91565b8181036040830152611cee8184611aa0565b9050949350505050565b60006020820190508181036000830152611d1181611ad9565b9050919050565b60006020820190508181036000830152611d3181611afc565b9050919050565b60006020820190508181036000830152611d5181611b1f565b9050919050565b60006020820190508181036000830152611d7181611b42565b9050919050565b60006020820190508181036000830152611d9181611b65565b9050919050565b60006020820190508181036000830152611db181611b88565b9050919050565b60006020820190508181036000830152611dd181611bab565b9050919050565b60006020820190508181036000830152611df181611bce565b9050919050565b600081519050919050565b600081519050919050565b600081905092915050565b600082825260208201905092915050565b6000611e358261209c565b9150611e408361209c565b925081677fffffffffffffff03831360008312151615611e6357611e626120fc565b5b817fffffffffffffffffffffffffffffffffffffffffffffffff8000000000000000038312600083121615611e9b57611e9a6120fc565b5b828201905092915050565b6000611eb18261209c565b9150611ebc8361209c565b925082611ecc57611ecb61212b565b5b600160000383147fffffffffffffffffffffffffffffffffffffffffffffffff800000000000000083141615611f0557611f046120fc565b5b828205905092915050565b6000611f1b8261209c565b9150611f268361209c565b925082677fffffffffffffff0482116000841360008413161615611f4d57611f4c6120fc565b5b817fffffffffffffffffffffffffffffffffffffffffffffffff80000000000000000583126000841260008413161615611f8a57611f896120fc565b5b827fffffffffffffffffffffffffffffffffffffffffffffffff80000000000000000582126000841360008412161615611fc757611fc66120fc565b5b82677fffffffffffffff0582126000841260008412161615611fec57611feb6120fc565b5b828202905092915050565b60006120028261209c565b915061200d8361209c565b9250827fffffffffffffffffffffffffffffffffffffffffffffffff800000000000000001821260008412151615612048576120476120fc565b5b82677fffffffffffffff018213600084121615612068576120676120fc565b5b828203905092915050565b600061207e826120a9565b9050919050565b6000819050919050565b60008160030b9050919050565b60008160070b9050919050565b600073ffffffffffffffffffffffffffffffffffffffff82169050919050565b60005b838110156120e75780820151818401526020810190506120cc565b838111156120f6576000848401525b50505050565b7f4e487b7100000000000000000000000000000000000000000000000000000000600052601160045260246000fd5b7f4e487b7100000000000000000000000000000000000000000000000000000000600052601260045260246000fd5b6000601f19601f8301169050919050565b7f50616972205175616e74697479206e6f7420617661696c61626c650000000000600082015250565b7f556e697377617056323a204944454e544943414c5f4144445245535345530000600082015250565b7f5061697220706f6f6c206e6f7420617661696c61626c65000000000000000000600082015250565b7f416464206c69717569646974793a205472616e73666572696e6720746f6b656e60008201527f204220746f20636f6e7472616374206661696c6564207769746820737461747560208201527f7320636f64650000000000000000000000000000000000000000000000000000604082015250565b7f416464206c69717569646974793a205472616e73666572696e6720746f6b656e60008201527f204120746f20636f6e7472616374206661696c6564207769746820737461747560208201527f7320636f64650000000000000000000000000000000000000000000000000000604082015250565b7f73776170546f6b656e413a205472616e73666572696e6720746f6b656e20422060008201527f746f20636f6e7472616374206661696c6564207769746820737461747573206360208201527f6f64650000000000000000000000000000000000000000000000000000000000604082015250565b7f556e697377617056323a205a45524f5f41444452455353000000000000000000600082015250565b7f73776170546f6b656e413a205472616e73666572696e6720746f6b656e20412060008201527f746f20636f6e7472616374206661696c6564207769746820737461747573206360208201527f6f64650000000000000000000000000000000000000000000000000000000000604082015250565b6123ec81612073565b81146123f757600080fd5b50565b6124038161208f565b811461240e57600080fd5b50565b61241a8161209c565b811461242557600080fd5b5056fea2646970667358221220a8b91091d7f0ed9a7cfa2dd3cd430f91bb0964c9e667d356a469908e92db176864736f6c63430008040033",
  "linkReferences": {},
  "deployedLinkReferences": {}
}