{
  "_format": "hh-sol-artifact-1",
  "contractName": "Swap",
  "sourceName": "contracts/Swap.sol",
  "abi": [
    {
      "inputs": [
        {
          "internalType": "address",
          "name": "_token1",
          "type": "address"
        },
        {
          "internalType": "address",
          "name": "_owner1",
          "type": "address"
        },
        {
          "internalType": "address",
          "name": "_token2",
          "type": "address"
        },
        {
          "internalType": "address",
          "name": "_owner2",
          "type": "address"
        },
        {
          "internalType": "uint256",
          "name": "_amount1",
          "type": "uint256"
        }
      ],
      "stateMutability": "nonpayable",
      "type": "constructor"
    },
    {
      "inputs": [],
      "name": "amount1",
      "outputs": [
        {
          "internalType": "uint256",
          "name": "",
          "type": "uint256"
        }
      ],
      "stateMutability": "view",
      "type": "function"
    },
    {
      "inputs": [],
      "name": "amount2",
      "outputs": [
        {
          "internalType": "uint256",
          "name": "",
          "type": "uint256"
        }
      ],
      "stateMutability": "view",
      "type": "function"
    },
    {
      "inputs": [],
      "name": "owner1",
      "outputs": [
        {
          "internalType": "address",
          "name": "",
          "type": "address"
        }
      ],
      "stateMutability": "view",
      "type": "function"
    },
    {
      "inputs": [],
      "name": "owner2",
      "outputs": [
        {
          "internalType": "address",
          "name": "",
          "type": "address"
        }
      ],
      "stateMutability": "view",
      "type": "function"
    },
    {
      "inputs": [],
      "name": "swap",
      "outputs": [],
      "stateMutability": "nonpayable",
      "type": "function"
    },
    {
      "inputs": [],
      "name": "swapRate",
      "outputs": [
        {
          "internalType": "uint256",
          "name": "",
          "type": "uint256"
        }
      ],
      "stateMutability": "view",
      "type": "function"
    },
    {
      "inputs": [],
      "name": "token1",
      "outputs": [
        {
          "internalType": "contract TokenA",
          "name": "",
          "type": "address"
        }
      ],
      "stateMutability": "view",
      "type": "function"
    },
    {
      "inputs": [],
      "name": "token2",
      "outputs": [
        {
          "internalType": "contract TokenB",
          "name": "",
          "type": "address"
        }
      ],
      "stateMutability": "view",
      "type": "function"
    }
  ],
  "bytecode": "0x60806040523480156200001157600080fd5b5060405162000f1e38038062000f1e833981810160405281019062000037919062000198565b846000806101000a81548173ffffffffffffffffffffffffffffffffffffffff021916908373ffffffffffffffffffffffffffffffffffffffff16021790555083600160006101000a81548173ffffffffffffffffffffffffffffffffffffffff021916908373ffffffffffffffffffffffffffffffffffffffff16021790555082600260006101000a81548173ffffffffffffffffffffffffffffffffffffffff021916908373ffffffffffffffffffffffffffffffffffffffff16021790555081600360006101000a81548173ffffffffffffffffffffffffffffffffffffffff021916908373ffffffffffffffffffffffffffffffffffffffff160217905550600160068190555080600481905550600654816200015991906200021a565b60058190555050505050506200031c565b6000815190506200017b81620002e8565b92915050565b600081519050620001928162000302565b92915050565b600080600080600060a08688031215620001b157600080fd5b6000620001c1888289016200016a565b9550506020620001d4888289016200016a565b9450506040620001e7888289016200016a565b9350506060620001fa888289016200016a565b92505060806200020d8882890162000181565b9150509295509295909350565b60006200022782620002af565b91506200023483620002af565b9250817fffffffffffffffffffffffffffffffffffffffffffffffffffffffffffffffff048311821515161562000270576200026f620002b9565b5b828202905092915050565b600062000288826200028f565b9050919050565b600073ffffffffffffffffffffffffffffffffffffffff82169050919050565b6000819050919050565b7f4e487b7100000000000000000000000000000000000000000000000000000000600052601160045260246000fd5b620002f3816200027b565b8114620002ff57600080fd5b50565b6200030d81620002af565b81146200031957600080fd5b50565b610bf2806200032c6000396000f3fe608060405234801561001057600080fd5b50600436106100885760003560e01c8063736889141161005b57806373688914146101055780638119c06514610123578063d21220a71461012d578063f400fde41461014b57610088565b8063057bfcc71461008d57806325be124e146100ab57806352709725146100c9578063698518e5146100e7575b600080fd5b610095610169565b6040516100a29190610a2e565b60405180910390f35b6100b361016f565b6040516100c09190610993565b60405180910390f35b6100d1610195565b6040516100de91906108fd565b60405180910390f35b6100ef6101bb565b6040516100fc9190610a2e565b60405180910390f35b61010d6101c1565b60405161011a91906108fd565b60405180910390f35b61012b6101e7565b005b6101356105db565b6040516101429190610978565b60405180910390f35b6101536105ff565b6040516101609190610a2e565b60405180910390f35b60055481565b600260009054906101000a900473ffffffffffffffffffffffffffffffffffffffff1681565b600360009054906101000a900473ffffffffffffffffffffffffffffffffffffffff1681565b60065481565b600160009054906101000a900473ffffffffffffffffffffffffffffffffffffffff1681565b600160009054906101000a900473ffffffffffffffffffffffffffffffffffffffff1673ffffffffffffffffffffffffffffffffffffffff163373ffffffffffffffffffffffffffffffffffffffff1614806102905750600360009054906101000a900473ffffffffffffffffffffffffffffffffffffffff1673ffffffffffffffffffffffffffffffffffffffff163373ffffffffffffffffffffffffffffffffffffffff16145b6102cf576040517f08c379a00000000000000000000000000000000000000000000000000000000081526004016102c6906109ce565b60405180910390fd5b60045460008054906101000a900473ffffffffffffffffffffffffffffffffffffffff1673ffffffffffffffffffffffffffffffffffffffff1663dd62ed3e600160009054906101000a900473ffffffffffffffffffffffffffffffffffffffff16306040518363ffffffff1660e01b815260040161034f929190610918565b60206040518083038186803b15801561036757600080fd5b505afa15801561037b573d6000803e3d6000fd5b505050506040513d601f19601f8201168201806040525081019061039f919061080c565b10156103e0576040517f08c379a00000000000000000000000000000000000000000000000000000000081526004016103d790610a0e565b60405180910390fd5b600554600260009054906101000a900473ffffffffffffffffffffffffffffffffffffffff1673ffffffffffffffffffffffffffffffffffffffff1663dd62ed3e600360009054906101000a900473ffffffffffffffffffffffffffffffffffffffff16306040518363ffffffff1660e01b8152600401610462929190610918565b60206040518083038186803b15801561047a57600080fd5b505afa15801561048e573d6000803e3d6000fd5b505050506040513d601f19601f820116820180604052508101906104b2919061080c565b10156104f3576040517f08c379a00000000000000000000000000000000000000000000000000000000081526004016104ea906109ae565b60405180910390fd5b61056560008054906101000a900473ffffffffffffffffffffffffffffffffffffffff16600160009054906101000a900473ffffffffffffffffffffffffffffffffffffffff16600360009054906101000a900473ffffffffffffffffffffffffffffffffffffffff16600454610605565b6105d9600260009054906101000a900473ffffffffffffffffffffffffffffffffffffffff16600360009054906101000a900473ffffffffffffffffffffffffffffffffffffffff16600160009054906101000a900473ffffffffffffffffffffffffffffffffffffffff166005546106df565b565b60008054906101000a900473ffffffffffffffffffffffffffffffffffffffff1681565b60045481565b60008473ffffffffffffffffffffffffffffffffffffffff166323b872dd8585856040518463ffffffff1660e01b815260040161064493929190610941565b602060405180830381600087803b15801561065e57600080fd5b505af1158015610672573d6000803e3d6000fd5b505050506040513d601f19601f8201168201806040525081019061069691906107e3565b9050806106d8576040517f08c379a00000000000000000000000000000000000000000000000000000000081526004016106cf906109ee565b60405180910390fd5b5050505050565b60008473ffffffffffffffffffffffffffffffffffffffff166323b872dd8585856040518463ffffffff1660e01b815260040161071e93929190610941565b602060405180830381600087803b15801561073857600080fd5b505af115801561074c573d6000803e3d6000fd5b505050506040513d601f19601f8201168201806040525081019061077091906107e3565b9050806107b2576040517f08c379a00000000000000000000000000000000000000000000000000000000081526004016107a9906109ee565b60405180910390fd5b5050505050565b6000815190506107c881610b8e565b92915050565b6000815190506107dd81610ba5565b92915050565b6000602082840312156107f557600080fd5b6000610803848285016107b9565b91505092915050565b60006020828403121561081e57600080fd5b600061082c848285016107ce565b91505092915050565b61083e81610a5a565b82525050565b61084d81610aa2565b82525050565b61085c81610ac6565b82525050565b600061086f601983610a49565b915061087a82610aea565b602082019050919050565b6000610892601a83610a49565b915061089d82610b13565b602082019050919050565b60006108b5601583610a49565b91506108c082610b3c565b602082019050919050565b60006108d8601983610a49565b91506108e382610b65565b602082019050919050565b6108f781610a98565b82525050565b60006020820190506109126000830184610835565b92915050565b600060408201905061092d6000830185610835565b61093a6020830184610835565b9392505050565b60006060820190506109566000830186610835565b6109636020830185610835565b61097060408301846108ee565b949350505050565b600060208201905061098d6000830184610844565b92915050565b60006020820190506109a86000830184610853565b92915050565b600060208201905081810360008301526109c781610862565b9050919050565b600060208201905081810360008301526109e781610885565b9050919050565b60006020820190508181036000830152610a07816108a8565b9050919050565b60006020820190508181036000830152610a27816108cb565b9050919050565b6000602082019050610a4360008301846108ee565b92915050565b600082825260208201905092915050565b6000610a6582610a78565b9050919050565b60008115159050919050565b600073ffffffffffffffffffffffffffffffffffffffff82169050919050565b6000819050919050565b6000610aad82610ab4565b9050919050565b6000610abf82610a78565b9050919050565b6000610ad182610ad8565b9050919050565b6000610ae382610a78565b9050919050565b7f546f6b656e203220616c6c6f77616e636520746f6f206c6f7700000000000000600082015250565b7f4e6f7420617574686f72697a65642066726f6d206f776e657273000000000000600082015250565b7f546f6b656e207472616e73666572206661696c65640000000000000000000000600082015250565b7f546f6b656e203120616c6c6f77616e636520746f6f206c6f7700000000000000600082015250565b610b9781610a6c565b8114610ba257600080fd5b50565b610bae81610a98565b8114610bb957600080fd5b5056fea2646970667358221220b222dfa2d3232138c171d889f09946618526db3effc30b714a2e654cbe28766464736f6c63430008040033",
  "linkReferences": {},
  "deployedLinkReferences": {}
}