{
  "_format": "hh-sol-artifact-1",
  "contractName": "Swap",
  "sourceName": "contracts/Swap.sol",
  "abi": [
    {
      "inputs": [
        {
          "internalType": "address",
          "name": "_token1",
          "type": "address"
        },
        {
          "internalType": "address",
          "name": "_owner1",
          "type": "address"
        },
        {
          "internalType": "address",
          "name": "_token2",
          "type": "address"
        },
        {
          "internalType": "address",
          "name": "_owner2",
          "type": "address"
        },
        {
          "internalType": "uint256",
          "name": "_amount1",
          "type": "uint256"
        }
      ],
      "stateMutability": "nonpayable",
      "type": "constructor"
    },
    {
      "inputs": [],
      "name": "amount1",
      "outputs": [
        {
          "internalType": "uint256",
          "name": "",
          "type": "uint256"
        }
      ],
      "stateMutability": "view",
      "type": "function"
    },
    {
      "inputs": [],
      "name": "amount2",
      "outputs": [
        {
          "internalType": "uint256",
          "name": "",
          "type": "uint256"
        }
      ],
      "stateMutability": "view",
      "type": "function"
    },
    {
      "inputs": [],
      "name": "isOwner",
      "outputs": [
        {
          "internalType": "bool",
          "name": "",
          "type": "bool"
        }
      ],
      "stateMutability": "view",
      "type": "function"
    },
    {
      "inputs": [],
      "name": "owner1",
      "outputs": [
        {
          "internalType": "address",
          "name": "",
          "type": "address"
        }
      ],
      "stateMutability": "view",
      "type": "function"
    },
    {
      "inputs": [],
      "name": "owner2",
      "outputs": [
        {
          "internalType": "address",
          "name": "",
          "type": "address"
        }
      ],
      "stateMutability": "view",
      "type": "function"
    },
    {
      "inputs": [
        {
          "internalType": "uint256",
          "name": "token1Amount",
          "type": "uint256"
        },
        {
          "internalType": "uint256",
          "name": "token2Amount",
          "type": "uint256"
        }
      ],
      "name": "swap",
      "outputs": [],
      "stateMutability": "nonpayable",
      "type": "function"
    },
    {
      "inputs": [],
      "name": "swapRate",
      "outputs": [
        {
          "internalType": "uint256",
          "name": "",
          "type": "uint256"
        }
      ],
      "stateMutability": "view",
      "type": "function"
    },
    {
      "inputs": [],
      "name": "token1",
      "outputs": [
        {
          "internalType": "contract IERC20",
          "name": "",
          "type": "address"
        }
      ],
      "stateMutability": "view",
      "type": "function"
    },
    {
      "inputs": [],
      "name": "token2",
      "outputs": [
        {
          "internalType": "contract IERC20",
          "name": "",
          "type": "address"
        }
      ],
      "stateMutability": "view",
      "type": "function"
    }
  ],
  "bytecode": "0x60806040523480156200001157600080fd5b5060405162000bf738038062000bf7833981810160405281019062000037919062000198565b846000806101000a81548173ffffffffffffffffffffffffffffffffffffffff021916908373ffffffffffffffffffffffffffffffffffffffff16021790555083600160006101000a81548173ffffffffffffffffffffffffffffffffffffffff021916908373ffffffffffffffffffffffffffffffffffffffff16021790555082600260006101000a81548173ffffffffffffffffffffffffffffffffffffffff021916908373ffffffffffffffffffffffffffffffffffffffff16021790555081600360006101000a81548173ffffffffffffffffffffffffffffffffffffffff021916908373ffffffffffffffffffffffffffffffffffffffff160217905550600160068190555080600481905550600654816200015991906200021a565b60058190555050505050506200031c565b6000815190506200017b81620002e8565b92915050565b600081519050620001928162000302565b92915050565b600080600080600060a08688031215620001b157600080fd5b6000620001c1888289016200016a565b9550506020620001d4888289016200016a565b9450506040620001e7888289016200016a565b9350506060620001fa888289016200016a565b92505060806200020d8882890162000181565b9150509295509295909350565b60006200022782620002af565b91506200023483620002af565b9250817fffffffffffffffffffffffffffffffffffffffffffffffffffffffffffffffff048311821515161562000270576200026f620002b9565b5b828202905092915050565b600062000288826200028f565b9050919050565b600073ffffffffffffffffffffffffffffffffffffffff82169050919050565b6000819050919050565b7f4e487b7100000000000000000000000000000000000000000000000000000000600052601160045260246000fd5b620002f3816200027b565b8114620002ff57600080fd5b50565b6200030d81620002af565b81146200031957600080fd5b50565b6108cb806200032c6000396000f3fe608060405234801561001057600080fd5b50600436106100935760003560e01c8063736889141161006657806373688914146101105780638f32d59b1461012e578063d21220a71461014c578063d96073cf1461016a578063f400fde41461018657610093565b8063057bfcc71461009857806325be124e146100b657806352709725146100d4578063698518e5146100f2575b600080fd5b6100a06101a4565b6040516100ad919061077d565b60405180910390f35b6100be6101aa565b6040516100cb9190610722565b60405180910390f35b6100dc6101d0565b6040516100e991906106b5565b60405180910390f35b6100fa6101f6565b604051610107919061077d565b60405180910390f35b6101186101fc565b60405161012591906106b5565b60405180910390f35b610136610222565b6040516101439190610707565b60405180910390f35b6101546102d2565b6040516101619190610722565b60405180910390f35b610184600480360381019061017f91906105f7565b6102f6565b005b61018e6104c4565b60405161019b919061077d565b60405180910390f35b60055481565b600260009054906101000a900473ffffffffffffffffffffffffffffffffffffffff1681565b600360009054906101000a900473ffffffffffffffffffffffffffffffffffffffff1681565b60065481565b600160009054906101000a900473ffffffffffffffffffffffffffffffffffffffff1681565b6000600160009054906101000a900473ffffffffffffffffffffffffffffffffffffffff1673ffffffffffffffffffffffffffffffffffffffff163373ffffffffffffffffffffffffffffffffffffffff1614806102cd5750600360009054906101000a900473ffffffffffffffffffffffffffffffffffffffff1673ffffffffffffffffffffffffffffffffffffffff163373ffffffffffffffffffffffffffffffffffffffff16145b905090565b60008054906101000a900473ffffffffffffffffffffffffffffffffffffffff1681565b600160009054906101000a900473ffffffffffffffffffffffffffffffffffffffff1673ffffffffffffffffffffffffffffffffffffffff163373ffffffffffffffffffffffffffffffffffffffff16148061039f5750600360009054906101000a900473ffffffffffffffffffffffffffffffffffffffff1673ffffffffffffffffffffffffffffffffffffffff163373ffffffffffffffffffffffffffffffffffffffff16145b6103de576040517f08c379a00000000000000000000000000000000000000000000000000000000081526004016103d59061073d565b60405180910390fd5b61044e60008054906101000a900473ffffffffffffffffffffffffffffffffffffffff16600160009054906101000a900473ffffffffffffffffffffffffffffffffffffffff16600360009054906101000a900473ffffffffffffffffffffffffffffffffffffffff16856104ca565b6104c0600260009054906101000a900473ffffffffffffffffffffffffffffffffffffffff16600360009054906101000a900473ffffffffffffffffffffffffffffffffffffffff16600160009054906101000a900473ffffffffffffffffffffffffffffffffffffffff16846104ca565b5050565b60045481565b60008473ffffffffffffffffffffffffffffffffffffffff166323b872dd8585856040518463ffffffff1660e01b8152600401610509939291906106d0565b602060405180830381600087803b15801561052357600080fd5b505af1158015610537573d6000803e3d6000fd5b505050506040513d601f19601f8201168201806040525081019061055b91906105ce565b90508061059d576040517f08c379a00000000000000000000000000000000000000000000000000000000081526004016105949061075d565b60405180910390fd5b5050505050565b6000815190506105b381610867565b92915050565b6000813590506105c88161087e565b92915050565b6000602082840312156105e057600080fd5b60006105ee848285016105a4565b91505092915050565b6000806040838503121561060a57600080fd5b6000610618858286016105b9565b9250506020610629858286016105b9565b9150509250929050565b61063c816107a9565b82525050565b61064b816107bb565b82525050565b61065a816107f1565b82525050565b600061066d601a83610798565b915061067882610815565b602082019050919050565b6000610690601583610798565b915061069b8261083e565b602082019050919050565b6106af816107e7565b82525050565b60006020820190506106ca6000830184610633565b92915050565b60006060820190506106e56000830186610633565b6106f26020830185610633565b6106ff60408301846106a6565b949350505050565b600060208201905061071c6000830184610642565b92915050565b60006020820190506107376000830184610651565b92915050565b6000602082019050818103600083015261075681610660565b9050919050565b6000602082019050818103600083015261077681610683565b9050919050565b600060208201905061079260008301846106a6565b92915050565b600082825260208201905092915050565b60006107b4826107c7565b9050919050565b60008115159050919050565b600073ffffffffffffffffffffffffffffffffffffffff82169050919050565b6000819050919050565b60006107fc82610803565b9050919050565b600061080e826107c7565b9050919050565b7f4e6f7420617574686f72697a65642066726f6d206f776e657273000000000000600082015250565b7f546f6b656e207472616e73666572206661696c65640000000000000000000000600082015250565b610870816107bb565b811461087b57600080fd5b50565b610887816107e7565b811461089257600080fd5b5056fea2646970667358221220ca6dbbd5c4033a776e956a6dea2a87f36e4420eaba416188301e64c0eb203c3464736f6c63430008040033",
  "linkReferences": {},
  "deployedLinkReferences": {}
}