{
  "_format": "hh-sol-artifact-1",
  "contractName": "HederaLabDex",
  "sourceName": "contracts/HederaLabDex.sol",
  "abi": [
    {
      "inputs": [],
      "stateMutability": "nonpayable",
      "type": "constructor"
    },
    {
      "anonymous": false,
      "inputs": [
        {
          "indexed": false,
          "internalType": "int256",
          "name": "withdrawAmount",
          "type": "int256"
        }
      ],
      "name": "Deposit",
      "type": "event"
    },
    {
      "anonymous": false,
      "inputs": [
        {
          "indexed": false,
          "internalType": "int256",
          "name": "responseCodeA",
          "type": "int256"
        },
        {
          "indexed": false,
          "internalType": "int256",
          "name": "responseCodeB",
          "type": "int256"
        }
      ],
      "name": "InitializationAssociatation",
      "type": "event"
    },
    {
      "anonymous": false,
      "inputs": [
        {
          "indexed": false,
          "internalType": "int256",
          "name": "responseCodeA",
          "type": "int256"
        },
        {
          "indexed": false,
          "internalType": "int256",
          "name": "responseCodeB",
          "type": "int256"
        }
      ],
      "name": "InitializationLiquidityAdd",
      "type": "event"
    },
    {
      "anonymous": false,
      "inputs": [
        {
          "indexed": true,
          "internalType": "address",
          "name": "account",
          "type": "address"
        },
        {
          "indexed": false,
          "internalType": "int256",
          "name": "walletTokenA",
          "type": "int256"
        },
        {
          "indexed": false,
          "internalType": "int256",
          "name": "walletTokenB",
          "type": "int256"
        }
      ],
      "name": "Signup",
      "type": "event"
    },
    {
      "anonymous": false,
      "inputs": [
        {
          "indexed": false,
          "internalType": "int256",
          "name": "depositAmount",
          "type": "int256"
        }
      ],
      "name": "Withdrawal",
      "type": "event"
    },
    {
      "inputs": [
        {
          "internalType": "string",
          "name": "token",
          "type": "string"
        },
        {
          "internalType": "int256",
          "name": "amount",
          "type": "int256"
        }
      ],
      "name": "deposit",
      "outputs": [],
      "stateMutability": "nonpayable",
      "type": "function"
    },
    {
      "inputs": [],
      "name": "getCurrentState",
      "outputs": [
        {
          "internalType": "int256",
          "name": "_quantityA",
          "type": "int256"
        },
        {
          "internalType": "int256",
          "name": "_quantityB",
          "type": "int256"
        },
        {
          "internalType": "int256",
          "name": "_priceA",
          "type": "int256"
        },
        {
          "internalType": "int256",
          "name": "_priceB",
          "type": "int256"
        },
        {
          "internalType": "int256",
          "name": "_k",
          "type": "int256"
        },
        {
          "internalType": "int256",
          "name": "_x",
          "type": "int256"
        },
        {
          "internalType": "int256",
          "name": "_y",
          "type": "int256"
        }
      ],
      "stateMutability": "view",
      "type": "function"
    },
    {
      "inputs": [
        {
          "internalType": "string",
          "name": "value",
          "type": "string"
        }
      ],
      "name": "getFormulaVariableValue",
      "outputs": [
        {
          "internalType": "int256",
          "name": "",
          "type": "int256"
        }
      ],
      "stateMutability": "view",
      "type": "function"
    },
    {
      "inputs": [
        {
          "internalType": "string",
          "name": "token",
          "type": "string"
        },
        {
          "internalType": "string",
          "name": "direction",
          "type": "string"
        },
        {
          "internalType": "int256",
          "name": "amount",
          "type": "int256"
        }
      ],
      "name": "getPostSwapDetails",
      "outputs": [
        {
          "internalType": "int256",
          "name": "newQuantityA",
          "type": "int256"
        },
        {
          "internalType": "int256",
          "name": "newQuantityB",
          "type": "int256"
        },
        {
          "internalType": "int256",
          "name": "newPriceA",
          "type": "int256"
        },
        {
          "internalType": "int256",
          "name": "newPriceB",
          "type": "int256"
        },
        {
          "internalType": "int256",
          "name": "oppositeAmountRequired",
          "type": "int256"
        }
      ],
      "stateMutability": "view",
      "type": "function"
    },
    {
      "inputs": [
        {
          "internalType": "string",
          "name": "token",
          "type": "string"
        },
        {
          "internalType": "string",
          "name": "detail",
          "type": "string"
        }
      ],
      "name": "getTokenDetail",
      "outputs": [
        {
          "internalType": "int256",
          "name": "",
          "type": "int256"
        }
      ],
      "stateMutability": "view",
      "type": "function"
    },
    {
      "inputs": [],
      "name": "getWalletBalanceA",
      "outputs": [
        {
          "internalType": "int256",
          "name": "",
          "type": "int256"
        }
      ],
      "stateMutability": "view",
      "type": "function"
    },
    {
      "inputs": [],
      "name": "getWalletBalanceB",
      "outputs": [
        {
          "internalType": "int256",
          "name": "",
          "type": "int256"
        }
      ],
      "stateMutability": "view",
      "type": "function"
    },
    {
      "inputs": [],
      "name": "greetings",
      "outputs": [
        {
          "internalType": "string",
          "name": "",
          "type": "string"
        }
      ],
      "stateMutability": "pure",
      "type": "function"
    },
    {
      "inputs": [],
      "name": "signup",
      "outputs": [],
      "stateMutability": "nonpayable",
      "type": "function"
    },
    {
      "inputs": [
        {
          "internalType": "address",
          "name": "sender",
          "type": "address"
        },
        {
          "internalType": "address",
          "name": "tokenAddress",
          "type": "address"
        }
      ],
      "name": "tokenAssociate",
      "outputs": [
        {
          "internalType": "int256",
          "name": "",
          "type": "int256"
        }
      ],
      "stateMutability": "nonpayable",
      "type": "function"
    },
    {
      "inputs": [
        {
          "internalType": "address",
          "name": "sender",
          "type": "address"
        },
        {
          "internalType": "address",
          "name": "tokenAddress",
          "type": "address"
        }
      ],
      "name": "tokenDissociate",
      "outputs": [
        {
          "internalType": "int256",
          "name": "",
          "type": "int256"
        }
      ],
      "stateMutability": "nonpayable",
      "type": "function"
    },
    {
      "inputs": [
        {
          "internalType": "address",
          "name": "tokenId",
          "type": "address"
        },
        {
          "internalType": "address",
          "name": "fromAccountId",
          "type": "address"
        },
        {
          "internalType": "address",
          "name": "toAccountId",
          "type": "address"
        },
        {
          "internalType": "int64",
          "name": "tokenAmount",
          "type": "int64"
        }
      ],
      "name": "tokenTransfer",
      "outputs": [
        {
          "internalType": "int256",
          "name": "",
          "type": "int256"
        }
      ],
      "stateMutability": "nonpayable",
      "type": "function"
    },
    {
      "inputs": [
        {
          "internalType": "string",
          "name": "token",
          "type": "string"
        },
        {
          "internalType": "int256",
          "name": "amount",
          "type": "int256"
        }
      ],
      "name": "withdrawal",
      "outputs": [],
      "stateMutability": "nonpayable",
      "type": "function"
    }
  ],
  "bytecode": "0x60806040523480156200001157600080fd5b506103e86003819055506101f4600481905550633b9aca0060058190555063773594006006819055506003546005546200004c9190620000b7565b600881905550600454600654620000649190620000b7565b600981905550600954600854146200007b57600080fd5b6004546006546200008d9190620000b7565b6003546005546200009f9190620000b7565b620000ab9190620000b7565b60078190555062000217565b6000620000c482620001de565b9150620000d183620001de565b9250827f7fffffffffffffffffffffffffffffffffffffffffffffffffffffffffffffff0482116000841360008413161615620001135762000112620001e8565b5b817f80000000000000000000000000000000000000000000000000000000000000000583126000841260008413161615620001535762000152620001e8565b5b827f80000000000000000000000000000000000000000000000000000000000000000582126000841360008412161615620001935762000192620001e8565b5b827f7fffffffffffffffffffffffffffffffffffffffffffffffffffffffffffffff0582126000841260008412161615620001d357620001d2620001e8565b5b828202905092915050565b6000819050919050565b7f4e487b7100000000000000000000000000000000000000000000000000000000600052601160045260246000fd5b61269180620002276000396000f3fe608060405234801561001057600080fd5b50600436106100cf5760003560e01c806356d0b3781161008c578063acb34ce811610066578063acb34ce814610244578063b7bc0f7314610262578063cb04040a1461026c578063d898fe321461029c576100cf565b806356d0b378146101da5780637f6314d0146101f657806387b3d11314610226576100cf565b806312ca6ef3146100d45780631ceb689d1461010457806326c9274d14610138578063378aa701146101565780633a04033c1461017a5780634753b51b146101aa575b600080fd5b6100ee60048036038101906100e99190611cf4565b6102b8565b6040516100fb9190611f64565b60405180910390f35b61011e60048036038101906101199190611d60565b61046a565b60405161012f959493929190611fa8565b60405180910390f35b61014061076b565b60405161014d9190611f64565b60405180910390f35b61015e61080a565b6040516101719796959493929190611ffb565b60405180910390f35b610194600480360381019061018f9190611bd3565b610841565b6040516101a19190611f64565b60405180910390f35b6101c460048036038101906101bf9190611b97565b610995565b6040516101d19190611f64565b60405180910390f35b6101f460048036038101906101ef9190611ca0565b6109f4565b005b610210600480360381019061020b9190611b97565b610df6565b60405161021d9190611f64565b60405180910390f35b61022e610e55565b60405161023b9190611f64565b60405180910390f35b61024c610ef4565b604051610259919061206a565b60405180910390f35b61026a610f31565b005b61028660048036038101906102819190611c5f565b61116a565b6040516102939190611f64565b60405180910390f35b6102b660048036038101906102b19190611ca0565b61130a565b005b60006040518060400160405280600581526020017f7072696365000000000000000000000000000000000000000000000000000000815250805190602001208280519060200120148061034d57506040518060400160405280600881526020017f7175616e74697479000000000000000000000000000000000000000000000000815250805190602001208280519060200120145b61035657600080fd5b61035f836116ee565b6040518060400160405280600681526020017f746f6b656e4100000000000000000000000000000000000000000000000000008152508051906020012083805190602001201415610409576040518060400160405280600581526020017f707269636500000000000000000000000000000000000000000000000000000081525080519060200120828051906020012014156103ff576005549050610464565b6003549050610464565b6040518060400160405280600581526020017f7072696365000000000000000000000000000000000000000000000000000000815250805190602001208280519060200120141561045e576006549050610464565b60045490505b92915050565b60008060008060006040518060400160405280600781526020017f6465706f73697400000000000000000000000000000000000000000000000000815250805190602001208780519060200120148061050557506040518060400160405280600a81526020017f7769746864726177616c00000000000000000000000000000000000000000000815250805190602001208780519060200120145b61050e57600080fd5b610517886116ee565b600086121561052557600080fd5b6040518060400160405280600781526020017f6465706f73697400000000000000000000000000000000000000000000000000815250805190602001208780519060200120141561065a576040518060400160405280600681526020017f746f6b656e410000000000000000000000000000000000000000000000000000815250805190602001208880519060200120141561060a57856003546105c99190612174565b9450600654600554866105dc9190612272565b6105e69190612272565b6007546105f39190612208565b9350836004546106039190612389565b9050610655565b856004546106189190612174565b93506005546006548561062b9190612272565b6106359190612272565b6007546106429190612208565b9450846003546106529190612389565b90505b610740565b6040518060400160405280600681526020017f746f6b656e41000000000000000000000000000000000000000000000000000081525080519060200120888051906020012014156106f457856003546106b39190612389565b9450600654600554866106c69190612272565b6106d09190612272565b6007546106dd9190612208565b9350600454846106ed9190612389565b905061073f565b856004546107029190612389565b9350600554600654856107159190612272565b61071f9190612272565b60075461072c9190612208565b94506003548561073c9190612389565b90505b5b8460085461074e9190612208565b92508360095461075e9190612208565b9150939792965093509350565b60008060003373ffffffffffffffffffffffffffffffffffffffff1673ffffffffffffffffffffffffffffffffffffffff16815260200190815260200160002060009054906101000a900460ff166107c257600080fd5b600160003373ffffffffffffffffffffffffffffffffffffffff1673ffffffffffffffffffffffffffffffffffffffff16815260200190815260200160002060010154905090565b6000806000806000806000600354600454600554600654600754600854600954965096509650965096509650965090919293949596565b6000806108508686868661178d565b9050601660030b8114610898576040517f08c379a000000000000000000000000000000000000000000000000000000000815260040161088f9061208c565b60405180910390fd5b6000808573ffffffffffffffffffffffffffffffffffffffff1673ffffffffffffffffffffffffffffffffffffffff16815260200190815260200160002060009054906101000a900460ff1615610989576000600160008673ffffffffffffffffffffffffffffffffffffffff1673ffffffffffffffffffffffffffffffffffffffff16815260200190815260200160002090508360070b8160020160008973ffffffffffffffffffffffffffffffffffffffff1673ffffffffffffffffffffffffffffffffffffffff16815260200190815260200160002060008282546109809190612174565b92505081905550505b80915050949350505050565b6000806109a284846118ab565b9050601660030b81146109ea576040517f08c379a00000000000000000000000000000000000000000000000000000000081526004016109e1906120cc565b60405180910390fd5b8091505092915050565b6000803373ffffffffffffffffffffffffffffffffffffffff1673ffffffffffffffffffffffffffffffffffffffff16815260200190815260200160002060009054906101000a900460ff16610a4957600080fd5b610a52826116ee565b6040518060400160405280600681526020017f746f6b656e4100000000000000000000000000000000000000000000000000008152508051906020012082805190602001201415610ab157806003541215610aac57600080fd5b610ac1565b806004541215610ac057600080fd5b5b6000806000806000610b09876040518060400160405280600a81526020017f7769746864726177616c000000000000000000000000000000000000000000008152508861046a565b9450945094509450945060008513610b2057600080fd5b60008413610b2d57600080fd5b60008313610b3a57600080fd5b60008213610b4757600080fd5b6040518060400160405280600681526020017f746f6b656e4100000000000000000000000000000000000000000000000000008152508051906020012087805190602001201415610c985780600160003373ffffffffffffffffffffffffffffffffffffffff1673ffffffffffffffffffffffffffffffffffffffff168152602001908152602001600020600101541215610be157600080fd5b80600160003373ffffffffffffffffffffffffffffffffffffffff1673ffffffffffffffffffffffffffffffffffffffff1681526020019081526020016000206001016000828254610c339190612389565b9250508190555085600160003373ffffffffffffffffffffffffffffffffffffffff1673ffffffffffffffffffffffffffffffffffffffff1681526020019081526020016000206000016000828254610c8c9190612174565b92505081905550610d9a565b80600160003373ffffffffffffffffffffffffffffffffffffffff1673ffffffffffffffffffffffffffffffffffffffff168152602001908152602001600020600001541215610ce757600080fd5b80600160003373ffffffffffffffffffffffffffffffffffffffff1673ffffffffffffffffffffffffffffffffffffffff1681526020019081526020016000206000016000828254610d399190612389565b9250508190555085600160003373ffffffffffffffffffffffffffffffffffffffff1673ffffffffffffffffffffffffffffffffffffffff1681526020019081526020016000206001016000828254610d929190612174565b925050819055505b846003819055508360048190555082600581905550816006819055507f09f6d6c156080917dd4eb3faa52c09b5ef538b97a7406838fb175391b9e8138381604051610de59190611f64565b60405180910390a150505050505050565b600080610e0384846119c3565b9050601660030b8114610e4b576040517f08c379a0000000000000000000000000000000000000000000000000000000008152600401610e42906120ac565b60405180910390fd5b8091505092915050565b60008060003373ffffffffffffffffffffffffffffffffffffffff1673ffffffffffffffffffffffffffffffffffffffff16815260200190815260200160002060009054906101000a900460ff16610eac57600080fd5b600160003373ffffffffffffffffffffffffffffffffffffffff1673ffffffffffffffffffffffffffffffffffffffff16815260200190815260200160002060000154905090565b60606040518060400160405280600381526020017f4f53520000000000000000000000000000000000000000000000000000000000815250905090565b6000803373ffffffffffffffffffffffffffffffffffffffff1673ffffffffffffffffffffffffffffffffffffffff16815260200190815260200160002060009054906101000a900460ff1615610f8757600080fd5b6103e8600160003373ffffffffffffffffffffffffffffffffffffffff1673ffffffffffffffffffffffffffffffffffffffff1681526020019081526020016000206000016000828254610fdb9190612174565b925050819055506103e8600160003373ffffffffffffffffffffffffffffffffffffffff1673ffffffffffffffffffffffffffffffffffffffff16815260200190815260200160002060010160008282546110369190612174565b9250508190555060016000803373ffffffffffffffffffffffffffffffffffffffff1673ffffffffffffffffffffffffffffffffffffffff16815260200190815260200160002060006101000a81548160ff0219169083151502179055503373ffffffffffffffffffffffffffffffffffffffff167f500201dd509e994c0e890b017f78b50955f36d83d2acbb63c9e747547b799cac600160003373ffffffffffffffffffffffffffffffffffffffff1673ffffffffffffffffffffffffffffffffffffffff16815260200190815260200160002060000154600160003373ffffffffffffffffffffffffffffffffffffffff1673ffffffffffffffffffffffffffffffffffffffff16815260200190815260200160002060010154604051611160929190611f7f565b60405180910390a2565b60006040518060400160405280600181526020017f780000000000000000000000000000000000000000000000000000000000000081525080519060200120828051906020012014806111ff57506040518060400160405280600181526020017f7900000000000000000000000000000000000000000000000000000000000000815250805190602001208280519060200120145b8061124c57506040518060400160405280600181526020017f6b00000000000000000000000000000000000000000000000000000000000000815250805190602001208280519060200120145b61125557600080fd5b6040518060400160405280600181526020017f780000000000000000000000000000000000000000000000000000000000000081525080519060200120828051906020012014156112aa576008549050611305565b6040518060400160405280600181526020017f790000000000000000000000000000000000000000000000000000000000000081525080519060200120828051906020012014156112ff576009549050611305565b60075490505b919050565b6000803373ffffffffffffffffffffffffffffffffffffffff1673ffffffffffffffffffffffffffffffffffffffff16815260200190815260200160002060009054906101000a900460ff1661135f57600080fd5b611368826116ee565b6040518060400160405280600681526020017f746f6b656e41000000000000000000000000000000000000000000000000000081525080519060200120828051906020012014156114075780600160003373ffffffffffffffffffffffffffffffffffffffff1673ffffffffffffffffffffffffffffffffffffffff16815260200190815260200160002060000154121561140257600080fd5b611457565b80600160003373ffffffffffffffffffffffffffffffffffffffff1673ffffffffffffffffffffffffffffffffffffffff16815260200190815260200160002060010154121561145657600080fd5b5b600080600080600061149f876040518060400160405280600781526020017f6465706f736974000000000000000000000000000000000000000000000000008152508861046a565b94509450945094509450600085136114b657600080fd5b600084136114c357600080fd5b600083136114d057600080fd5b600082136114dd57600080fd5b6040518060400160405280600681526020017f746f6b656e41000000000000000000000000000000000000000000000000000081525080519060200120878051906020012014156115df5785600160003373ffffffffffffffffffffffffffffffffffffffff1673ffffffffffffffffffffffffffffffffffffffff168152602001908152602001600020600001600082825461157a9190612389565b9250508190555080600160003373ffffffffffffffffffffffffffffffffffffffff1673ffffffffffffffffffffffffffffffffffffffff16815260200190815260200160002060010160008282546115d39190612174565b92505081905550611692565b85600160003373ffffffffffffffffffffffffffffffffffffffff1673ffffffffffffffffffffffffffffffffffffffff16815260200190815260200160002060010160008282546116319190612389565b9250508190555080600160003373ffffffffffffffffffffffffffffffffffffffff1673ffffffffffffffffffffffffffffffffffffffff168152602001908152602001600020600001600082825461168a9190612174565b925050819055505b846003819055508360048190555082600581905550816006819055507fbc6e679f8b1549497ecf3e87d44b1b69461a370197d72d0e0b663ea343108f43816040516116dd9190611f64565b60405180910390a150505050505050565b6040518060400160405280600681526020017f746f6b656e410000000000000000000000000000000000000000000000000000815250805190602001208180519060200120148061178157506040518060400160405280600681526020017f746f6b656e420000000000000000000000000000000000000000000000000000815250805190602001208180519060200120145b61178a57600080fd5b50565b600080600061016773ffffffffffffffffffffffffffffffffffffffff1663eca3691760e01b888888886040516024016117ca9493929190611f1f565b604051602081830303815290604052907bffffffffffffffffffffffffffffffffffffffffffffffffffffffff19166020820180517bffffffffffffffffffffffffffffffffffffffffffffffffffffffff83818316178352505050506040516118349190611edf565b6000604051808303816000865af19150503d8060008114611871576040519150601f19603f3d011682016040523d82523d6000602084013e611876565b606091505b50915091508161188757601561189c565b8080602001905181019061189b9190611c36565b5b60030b92505050949350505050565b600080600061016773ffffffffffffffffffffffffffffffffffffffff1663099794e860e01b86866040516024016118e4929190611ef6565b604051602081830303815290604052907bffffffffffffffffffffffffffffffffffffffffffffffffffffffff19166020820180517bffffffffffffffffffffffffffffffffffffffffffffffffffffffff838183161783525050505060405161194e9190611edf565b6000604051808303816000865af19150503d806000811461198b576040519150601f19603f3d011682016040523d82523d6000602084013e611990565b606091505b5091509150816119a15760156119b6565b808060200190518101906119b59190611c36565b5b60030b9250505092915050565b600080600061016773ffffffffffffffffffffffffffffffffffffffff166349146bde60e01b86866040516024016119fc929190611ef6565b604051602081830303815290604052907bffffffffffffffffffffffffffffffffffffffffffffffffffffffff19166020820180517bffffffffffffffffffffffffffffffffffffffffffffffffffffffff8381831617835250505050604051611a669190611edf565b6000604051808303816000865af19150503d8060008114611aa3576040519150601f19603f3d011682016040523d82523d6000602084013e611aa8565b606091505b509150915081611ab9576015611ace565b80806020019051810190611acd9190611c36565b5b60030b9250505092915050565b6000611aee611ae984612111565b6120ec565b905082815260208101848484011115611b0657600080fd5b611b11848285612473565b509392505050565b600081359050611b28816125ff565b92915050565b600081359050611b3d81612616565b92915050565b600081519050611b528161262d565b92915050565b600081359050611b6781612644565b92915050565b600082601f830112611b7e57600080fd5b8135611b8e848260208601611adb565b91505092915050565b60008060408385031215611baa57600080fd5b6000611bb885828601611b19565b9250506020611bc985828601611b19565b9150509250929050565b60008060008060808587031215611be957600080fd5b6000611bf787828801611b19565b9450506020611c0887828801611b19565b9350506040611c1987828801611b19565b9250506060611c2a87828801611b58565b91505092959194509250565b600060208284031215611c4857600080fd5b6000611c5684828501611b43565b91505092915050565b600060208284031215611c7157600080fd5b600082013567ffffffffffffffff811115611c8b57600080fd5b611c9784828501611b6d565b91505092915050565b60008060408385031215611cb357600080fd5b600083013567ffffffffffffffff811115611ccd57600080fd5b611cd985828601611b6d565b9250506020611cea85828601611b2e565b9150509250929050565b60008060408385031215611d0757600080fd5b600083013567ffffffffffffffff811115611d2157600080fd5b611d2d85828601611b6d565b925050602083013567ffffffffffffffff811115611d4a57600080fd5b611d5685828601611b6d565b9150509250929050565b600080600060608486031215611d7557600080fd5b600084013567ffffffffffffffff811115611d8f57600080fd5b611d9b86828701611b6d565b935050602084013567ffffffffffffffff811115611db857600080fd5b611dc486828701611b6d565b9250506040611dd586828701611b2e565b9150509250925092565b611de88161241d565b82525050565b6000611df982612142565b611e038185612158565b9350611e13818560208601612482565b80840191505092915050565b611e288161242f565b82525050565b611e3781612446565b82525050565b6000611e488261214d565b611e528185612163565b9350611e62818560208601612482565b611e6b81612573565b840191505092915050565b6000611e83600f83612163565b9150611e8e82612584565b602082019050919050565b6000611ea6601083612163565b9150611eb1826125ad565b602082019050919050565b6000611ec9601183612163565b9150611ed4826125d6565b602082019050919050565b6000611eeb8284611dee565b915081905092915050565b6000604082019050611f0b6000830185611ddf565b611f186020830184611ddf565b9392505050565b6000608082019050611f346000830187611ddf565b611f416020830186611ddf565b611f4e6040830185611ddf565b611f5b6060830184611e2e565b95945050505050565b6000602082019050611f796000830184611e1f565b92915050565b6000604082019050611f946000830185611e1f565b611fa16020830184611e1f565b9392505050565b600060a082019050611fbd6000830188611e1f565b611fca6020830187611e1f565b611fd76040830186611e1f565b611fe46060830185611e1f565b611ff16080830184611e1f565b9695505050505050565b600060e082019050612010600083018a611e1f565b61201d6020830189611e1f565b61202a6040830188611e1f565b6120376060830187611e1f565b6120446080830186611e1f565b61205160a0830185611e1f565b61205e60c0830184611e1f565b98975050505050505050565b600060208201905081810360008301526120848184611e3d565b905092915050565b600060208201905081810360008301526120a581611e76565b9050919050565b600060208201905081810360008301526120c581611e99565b9050919050565b600060208201905081810360008301526120e581611ebc565b9050919050565b60006120f6612107565b905061210282826124b5565b919050565b6000604051905090565b600067ffffffffffffffff82111561212c5761212b612544565b5b61213582612573565b9050602081019050919050565b600081519050919050565b600081519050919050565b600081905092915050565b600082825260208201905092915050565b600061217f8261242f565b915061218a8361242f565b9250817f7fffffffffffffffffffffffffffffffffffffffffffffffffffffffffffffff038313600083121516156121c5576121c46124e6565b5b817f80000000000000000000000000000000000000000000000000000000000000000383126000831216156121fd576121fc6124e6565b5b828201905092915050565b60006122138261242f565b915061221e8361242f565b92508261222e5761222d612515565b5b600160000383147f800000000000000000000000000000000000000000000000000000000000000083141615612267576122666124e6565b5b828205905092915050565b600061227d8261242f565b91506122888361242f565b9250827f7fffffffffffffffffffffffffffffffffffffffffffffffffffffffffffffff04821160008413600084131616156122c7576122c66124e6565b5b817f80000000000000000000000000000000000000000000000000000000000000000583126000841260008413161615612304576123036124e6565b5b827f80000000000000000000000000000000000000000000000000000000000000000582126000841360008412161615612341576123406124e6565b5b827f7fffffffffffffffffffffffffffffffffffffffffffffffffffffffffffffff058212600084126000841216161561237e5761237d6124e6565b5b828202905092915050565b60006123948261242f565b915061239f8361242f565b9250827f8000000000000000000000000000000000000000000000000000000000000000018212600084121516156123da576123d96124e6565b5b827f7fffffffffffffffffffffffffffffffffffffffffffffffffffffffffffffff018213600084121615612412576124116124e6565b5b828203905092915050565b600061242882612453565b9050919050565b6000819050919050565b60008160030b9050919050565b60008160070b9050919050565b600073ffffffffffffffffffffffffffffffffffffffff82169050919050565b82818337600083830152505050565b60005b838110156124a0578082015181840152602081019050612485565b838111156124af576000848401525b50505050565b6124be82612573565b810181811067ffffffffffffffff821117156124dd576124dc612544565b5b80604052505050565b7f4e487b7100000000000000000000000000000000000000000000000000000000600052601160045260246000fd5b7f4e487b7100000000000000000000000000000000000000000000000000000000600052601260045260246000fd5b7f4e487b7100000000000000000000000000000000000000000000000000000000600052604160045260246000fd5b6000601f19601f8301169050919050565b7f5472616e73666572206661696c65640000000000000000000000000000000000600082015250565b7f4173736f6369617465206661696c656400000000000000000000000000000000600082015250565b7f446973736f6369617465206661696c6564000000000000000000000000000000600082015250565b6126088161241d565b811461261357600080fd5b50565b61261f8161242f565b811461262a57600080fd5b50565b61263681612439565b811461264157600080fd5b50565b61264d81612446565b811461265857600080fd5b5056fea2646970667358221220dd404b945c1eceae6e7811b46fc7d6f9214d402512ca6092054941ef59725c9764736f6c63430008040033",
  "linkReferences": {},
  "deployedLinkReferences": {}
}